:020000040800F2
:10000000005000204D6501088D3000088F30000839
:1000100000000000000000000000000000000000E0
:100020000000000000000000000000009130000807
:100030000000000000000000933000089530000828
:100040009D6501089D6501089D3000089D650108BA
:100050009D650108B53000089D650108C5300008A0
:100060009D6501089D6501089D6501089D65010864
:100070009D6501089D6501089D6501089D65010854
:100080009D6501089D6501089D650108000000004F
:100090009D6501089D6501089D6501089D65010834
:1000A0009D6501089D6501089D6501089D65010824
:1000B000D93000089D650108000000009D65010819
:1000C00010B5064C2378002B07D1054B002B02D02E
:1000D000044800E000BF0123237010BD200200206F
:1000E0000000000074710108044B10B5002B03D010
:1000F0000349044800E000BF10BDC04600000000F6
:10010000240200207471010802B4714649084900B4
:10011000095C49008E4402BC7047C04603B4714676
:10012000490840004900095E49008E4403BC7047FD
:1001300003B47146490840004900095A49008E44F9
:1001400003BC7047002243088B4274D303098B42DF
:100150005FD3030A8B4244D3030B8B4228D3030C97
:100160008B420DD3FF22090212BA030C8B4202D339
:100170001212090265D0030B8B4219D300E0090A61
:10018000C30B8B4201D3CB03C01A5241830B8B426A
:1001900001D38B03C01A5241430B8B4201D34B0353
:1001A000C01A5241030B8B4201D30B03C01A5241B8
:1001B000C30A8B4201D3CB02C01A5241830A8B423D
:1001C00001D38B02C01A5241430A8B4201D34B0226
:1001D000C01A5241030A8B4201D30B02C01A52418A
:1001E000CDD2C3098B4201D3CB01C01A524183093E
:1001F0008B4201D38B01C01A524143098B4201D378
:100200004B01C01A524103098B4201D30B01C01AA2
:100210005241C3088B4201D3CB00C01A524183081C
:100220008B4201D38B00C01A524143088B4201D349
:100230004B00C01A5241411A00D2014652411046A9
:100240007047FFE701B5002000F0F0F802BDC0469E
:100250000029F7D076E7704703460B437FD400228E
:1002600043088B4274D303098B425FD3030A8B424A
:1002700044D3030B8B4228D3030C8B420DD3FF22B4
:10028000090212BA030C8B4202D31212090265D082
:10029000030B8B4219D300E0090AC30B8B4201D335
:1002A000CB03C01A5241830B8B4201D38B03C01A7C
:1002B0005241430B8B4201D34B03C01A5241030BF3
:1002C0008B4201D30B03C01A5241C30A8B4201D3A4
:1002D000CB02C01A5241830A8B4201D38B02C01A4F
:1002E0005241430A8B4201D34B02C01A5241030AC6
:1002F0008B4201D30B02C01A5241CDD2C3098B42AB
:1003000001D3CB01C01A524183098B4201D38B0127
:10031000C01A524143098B4201D34B01C01A5241CA
:1003200003098B4201D30B01C01A5241C3088B420F
:1003300001D3CB00C01A524183088B4201D38B00FA
:10034000C01A524143088B4201D34B00C01A52419C
:10035000411A00D201465241104670475DE0CA0F73
:1003600000D04942031000D34042534000229C4633
:1003700003098B422DD3030A8B4212D3FC2289013D
:1003800012BA030A8B420CD3890192118B4208D313
:10039000890192118B4204D389013AD0921100E075
:1003A0008909C3098B4201D3CB01C01A5241830989
:1003B0008B4201D38B01C01A524143098B4201D3B6
:1003C0004B01C01A524103098B4201D30B01C01AE1
:1003D0005241C3088B4201D3CB00C01A524183085B
:1003E0008B4201D38B00C01A5241D9D243088B42B1
:1003F00001D34B00C01A5241411A00D20146634654
:1004000052415B10104601D34042002B00D54942B7
:10041000704763465B1000D3404201B5002000F0F6
:1004200005F802BD0029F8D016E770477047C046AE
:100430008446101C62468C46191C634600E0C04688
:100440001FB501F069FB002801D40021C8421FBD7F
:1004500010B501F0C1FA4042013010BD10B501F0F5
:100460005BFB002801DB002010BD012010BDC04651
:1004700010B501F051FB002801DD002010BD012066
:1004800010BDC04610B501F0E3FA002801DC0020E1
:1004900010BD012010BDC04610B501F0D9FA0028EA
:1004A00001DA002010BD012010BDC0468446081CA2
:1004B0006146FFE71FB500F0D3F9002801D4002101
:1004C000C8421FBD10B500F055F94042013010BDC3
:1004D00010B500F0C5F9002801DB002010BD012097
:1004E00010BDC04610B500F0BBF9002801DD0020AA
:1004F00010BD012010BDC04610B500F063F9002802
:1005000001DC002010BD012010BDC04610B500F078
:1005100059F9002801DA002010BD012010BDC046A5
:10052000002B11D1002A0FD1002900D1002802D0C0
:100530000021C943081C07B4024802A140180290D8
:1005400003BDC046E9FEFFFF03B4684601B502984B
:1005500000F04EF8019B9E4602B00CBC7047C046AE
:10056000F0B5CE46474615042D0C2E0080B5070485
:10057000140C3F0C9946030C7E435D436743634371
:100580007F19340CE4199C46A54203D980235B02F1
:100590009846C4444B4643435143250C36046544B6
:1005A000360C2404A4195B19591820000CBC904681
:1005B0009946F0BD70B500220C4B04000D00FFF70A
:1005C0006BFF002804D12000290002F0C7F870BD9D
:1005D000064B00222000290001F078FD02F0BEF851
:1005E00080231B069C466044F1E7C0460000E041C2
:1005F000F0B54F464646D646C0B5040082B00D0061
:10060000914698468B422FD82CD04146484602F05E
:10061000B7F929000600200002F0B2F9331A9C460F
:10062000203B9A4600D576E04B46524693401F0049
:100630004B46624693401E00AF4228D825D0534611
:10064000A41BBD41002B00DA7BE0002200230092B6
:100650000193012352469340019301236246934044
:10066000009318E08242D0D9002200230092019327
:100670000A9B002B01D01C605D600098019902B0BC
:100680001CBC90469946A246F0BDA342D7D9002291
:100690000023009201936346002BE9D0FB079846A4
:1006A000414672080A437B0866460EE0AB4201D120
:1006B000A2420CD8A41A9D41012024196D410021A9
:1006C000013E24184D41002E06D0AB42EED9013E2A
:1006D00024196D41002EF8D1009801995346001954
:1006E0006941002B23DB2B005246D3402A0064468D
:1006F000E2401C0053461500002B2DDB2600574618
:10070000BE40330026006746BE403200801A994141
:1007100000900191ACE7624620239B1A4A46DA40DA
:100720006146130042468A4017001F4380E7624635
:1007300020239B1A2A0066469A402300F340134365
:10074000D4E76246202300219B1A002200910192E7
:100750000122DA40019280E72023624626009B1A9C
:10076000DE402F00B0466646B74046463B00334366
:10077000C8E7C04670B542004E024C0045026D0A03
:10078000120EC30F760A240EC90FFF2A0FD0FF2CBA
:1007900011D00120A24200D070BDB542FCD18B42E5
:1007A0000DD0002AF8D12800451EA841F4E7012009
:1007B000002DF1D1EBE70120002EEDD1E9E700207B
:1007C000EAE7C04670B54A004E02450244006D0A91
:1007D000240EC30F760A120EC90FFF2C15D0FF2A64
:1007E0000ED0002C15D1002A01D1002E1CD0002DD6
:1007F00014D08B4227D00220013B1840013870BD35
:10080000002EEED002204042F9E7002DFAD1FF2A57
:100810000ED0002A0ED1002EEDD00BE001230139BD
:10082000994308000130EAE70020002DE7D0E2E715
:10083000002EE7D18B42DED1944205DD0221581E05
:1008400008400138DBE70024A24204DCB542D2D8DC
:100850000020B542D3D2581E012398430130CEE781
:1008600030B5420044024D02C30F4800640A120E24
:100870006D0A000EC90FFF2A12D0FF280CD0002AE3
:1008800012D1002819D1002D17D1002C2BD0022015
:10089000013B1840013826E0002DF0D0022022E074
:1008A000002CFBD1FF281FD000281FD1002D1DD107
:1008B0000220013B1840013815E0002C0ED08B427D
:1008C000E5D10022904204DCAC42E0D80020AC42EA
:1008D00009D2581E01239843013004E00123013955
:1008E00099430800013030BD002DD7D18B42CED1C5
:1008F0008242E7DD0221581E08400138F3E7C04676
:10090000F8B54746CE464400C20F80B547024802BC
:10091000400A8446664648007F0A240EF6002500F9
:100920009046FB00000EC90FB146FF2800D185E0BC
:1009300001267140261A914257D0002E43DD00282F
:1009400000D07FE04946002900D1AAE0013E002EF8
:1009500000D0F7E05B1A5A0100D48BE09B019C09A0
:10096000200001F0EFFF05388440854200DDD3E030
:10097000451B230020200135EB40451BAC40621E87
:1009800094412343072400251C40012241460A408C
:10099000002C04D00F211940042900D00433590140
:1009A00000D480E00135ECB2FF2D00D0A3E0FF249D
:1009B00000235B02E405580AD207204310430CBC15
:1009C00090469946F8BD002E74D1601CC0B2012833
:1009D00000DCA7E04A469C1A620100D5B6E0002C74
:1009E000BED1002200240023E3E7002E00DC85E0D6
:1009F000002846D0FF2C49D080224846D20410431C
:100A0000814601221B2E09DC20204C46801B84409D
:100A10004A462000F240441EA04102439B185A015E
:100A200028D50135FF2D00D1A8E0012207249449E3
:100A30001A405B080B4013431C40A6E7002E00D071
:100A400078E775E7FF2C54D080224946D204114341
:100A5000894601221B2E09DC20214846891B88403B
:100A60004A460100F240481E81410A439B1A5A013E
:100A700000D573E7012241460A40590700D089E7B3
:100A800011E04846002858D1FF2C0CD1DB08002B80
:100A900000D18CE78020C00303435B025B0AFF2484
:100AA00087E7FF2C25D0DB08FF2DF0D05B025B0A27
:100AB000ECB27EE7002C4DD0FF2818D08024E4044F
:100AC000724223431B2A00DDC4E01C002025D440D1
:100AD000AA1A93405A1E934123434A460500D31A4B
:100AE000884638E7721CF8D0F243FF28EAD10A00A2
:100AF0004B46FF25D7E79B015B0A5AE7002E41D101
:100B0000651CE9B2012945DDFF2D00D14FE707241F
:100B10004B445B081C4038E707225A4B2D1A2340F0
:100B2000144032E7002C1DD1002B7AD14B46002B0C
:100B300000D191E00A000025B5E7013E002E19D151
:100B40004B446CE7FF2C84D1FF25ACE74A4688462E
:100B5000D41A05E7002BC5D10A00FF28C8D005002C
:100B60004B46A0E7002B49D14B46002B77D00A001B
:100B7000FF2598E7FF2C00D043E787E70A00FF2412
:100B8000002316E7002C15D1002B57D1FF28E6D102
:100B90004B467BE7002C20D1002B57D0494600293B
:100BA00053D04B445A0168D50724364A1C400125CE
:100BB0001340EAE6FF28EBD08022D20476421343AA
:100BC0001B2E53DC2025AD1B1A00AB40F2405C1EEF
:100BD000A34113434B44050021E7002BD8D04946DD
:100BE000002900D152E78021C9030F4200D14DE70F
:100BF0006046084200D049E74B4647E74846FF2594
:100C0000002800D14FE78022D203174204D060466B
:100C1000104201D14B46884601224146FF250A4039
:100C200041E7484600281FD01A1A500120D54A46ED
:100C30000724D31A1C4088460025A6E6741CC9D098
:100C4000F643FF28BCD14B4620E799464B4600258A
:100C5000DB082BE7012340E700220023A9E68023DD
:100C60000022DB03FF24A4E600251CE70123B1E7F3
:100C7000002AF1D013000025FCE60025FAE6C04664
:100C8000FFFFFF7DFFFFFFFB70B500283DD0C317BE
:100C9000C5185D40C40F280001F054FE9E22121AB0
:100CA000962A07DCD2B2082833DD0838854068026E
:100CB000400A23E0992A0BDD052329001B1AD9409D
:100CC00003001B339D402B005D1EAB4119430D00FB
:100CD000052801DD431F9D402B000F490B406E0787
:100CE00009D00F263540042D05D004335D0102D50F
:100CF0009F220B40121A9B01580AD2B24002D20521
:100D0000400AE4071043204370BD00240022002065
:100D1000F4E76802400AF1E7FFFFFFFB70B5041E2D
:100D200034D001F00FFE9E22121A962A07DCD2B2AE
:100D300008282EDD083884406002400A21E0992A04
:100D400009DD030021001B3399404B1E9941052307
:100D50001B1ADC400C43052801DD431F9C40230087
:100D60000D490B40650709D00F252C40042C05D0F8
:100D700004335C0102D59F220B40121A9B01580AD2
:100D8000D2B24002D205400A104370BD00220020BA
:100D9000F7E76002400AF4E7FFFFFFFBF0B54F46BC
:100DA0004646D6460C000903C0B5490A470F5E0007
:100DB00039431F03DB0F9C4665007B0A570F1F4317
:100DC0006D0DE40F760DA146C000B846D200AB1BF6
:100DD00064457BD0002B5FDD002E00D0A4E03E00F8
:100DE000164300D112E15E1E002E00D09EE1871A4C
:100DF0004346B84280410125C91A4042091A0B02F4
:100E000000D431E149024E0A002E00D16EE13000DB
:100E100001F098FD0300083B1F2B00DD61E120225B
:100E20003900D21A9E40D1409F400E439D4200DDC2
:100E300051E15D1B6B1C1F2B00DD7CE12021C91AD9
:100E40003D0030008F408840DD40791E8F413100E9
:100E500007222843D940002507433A40002A09D0F9
:100E60000F233B40042B05D03B1DBB42BF417F42BB
:100E7000C9191F000B0200D426E26A1CC64B550597
:100E80006D0D9A4200D106E1C44AFF080A4053079B
:100E900052023B43120B8EE0002B00D0B8E06B1CDB
:100EA0005B055B0D012B00DC30E1871A4346B8423D
:100EB000B641CB1A76429E1B330200D54CE13B0073
:100EC0003343A1D100220024002570E0002B00DC78
:100ED000E5E0002E00D183E0AF4EB54260D0802621
:100EE00036043743B846382B00DC3EE14346134313
:100EF0001F007A1E97413F188742804140420918DF
:100F00000B0200D4B0E0A44B01359D4200D1C3E0F8
:100F1000A24A7B080A4001210F401F435108D30712
:100F200007221F433A4099E79B4EB54238D08026AE
:100F300036043743B846382B00DDDCE01F2B00DCDD
:100F400030E11E004746203EF740BC46202B04D02F
:100F50004026F31A46469E403243170063467A1EE7
:100F600097411F43CCE0002B00D104E243461343DA
:100F700000D159E14B07C00818438023C9081B035F
:100F8000194208D04546ED081D4204D14346D00819
:100F9000590708432900420FC9007F4D1143C00083
:100FA0004B07CA087C49C00803438D4268D012032E
:100FB0006D05120B6D0D002112031800130B0A0DA5
:100FC00012051A43764B2D0513402B435B00E407B3
:100FD0005B08234319001CBC90469946A246F0BD0D
:100FE0003E00164312D05E1E002E00D000E187188E
:100FF0008742804141444042091801250B0233D504
:10100000022585E764463300414610001D00C7E70E
:10101000002D00D0DAE00C000443F3D05C1C00D1BA
:101020009FE15D4CA64200D12FE1DB43382B00DD70
:1010300066E11F2B00DD83E120240500E41A0F0088
:10104000DD40D940A0404346A7405B1A441EA04162
:1010500098462F433843171ABA42924143465242A8
:10106000991A64463500CAE607223A40002A00D0A1
:10107000F6E64B07CA084849FF083B438D4296D124
:101080001900114300D19EE1802109030A43120394
:10109000120B414D8FE71500002200238BE7002B38
:1010A00000D0C7E06B1C5F057F0D012F00DCF1E075
:1010B000394DAB4200D1B9E085180A00854289411B
:1010C0004244494251180722CF076D082F4349086F
:1010D0003A401D00C2E607223049ED1A31403A403D
:1010E000BCE63E002838864000279FE6380001F025
:1010F00029FC20308EE6434613431F007A1E974199
:10110000C71BB84280414042091A78E60E003B00F6
:1011100006431343002D61D1002E00D0F4E0002BD4
:1011200000D11BE164463900100039E71A4FBB4279
:101130007AD03300FFE630001F3DE840202B03D07B
:101140004021CB1A9E4037437B1E9F410722074315
:101150003A400021002589E7171A4346BA42B641B2
:10116000591A76428E1B64464EE61F2B00DDADE019
:1011700020264746F61AB740B9461700B246DF4068
:101180004E463E4337005646B240561EB2411743C4
:101190004246DA408918AEE6FF070000FFFF7FFFF6
:1011A000FFFF0F8020264746F61AB740B9461700C2
:1011B000B246DF404E463E4337005646B240561ECA
:1011C000B24117434246DA40891A99E77F4CA6425A
:1011D0005BD0802424045B42214327E7002E0CD1FE
:1011E000002B00D1CBE0644639001000774DD7E6E4
:1011F000764FBB4218D0330075E6002B14D04B0756
:10120000C00818438023C9081B03194207D0FC08F3
:101210001C4204D17907D0080843E14621004C461E
:10122000420FC9001143C000684DB9E61D000022FD
:101230000023C0E6002D5BD10D00054300D1E2E69E
:101240005D1C00D1B0E0614DAE421FD0DB43382BB6
:1012500071DC1F2B00DD96E020250F00ED1AAF405A
:10126000B9460700AA46DF404D463D432F0055468C
:10127000A840D940451EA84188440743BF1897425B
:1012800092415142414435003AE6644635004146B8
:10129000100085E60B000343002D00D063E6002B11
:1012A000F5D04346134300D17AE687188742804140
:1012B00007224144404209183A400B0200D4D5E6C7
:1012C000434B01351940C9E5380069E61E00474621
:1012D000203EF740BC46202B04D04026F31A464659
:1012E0009E403243170063467A1E97411F4302E631
:1012F000364DAE42CAD080252D045B422943A6E775
:101300000843411E8841A6E6002B00D148E6871A13
:101310004346B842B641CB1A76429E1B33024BD5A8
:10132000171A4346BA429241591A5242891A072261
:1013300064463A4092E501430F00791E8F419DE7D4
:101340001C000F00203CE740202B03D04024E31A70
:1013500099400843411E884138437CE6002200241E
:1013600025E6171A4346BA429241591A5242891A3F
:101370006446350043E541461000144D10E68022D6
:101380000024120380E61D000F00203DEF40BC4604
:10139000202B03D04025EB1A9940084307006346F1
:1013A000781E87411F4369E7871897429B41414454
:1013B0005B42C9183500A3E53B003343CED007227A
:1013C00031003A4052E600231A00F4E5FF0700001E
:1013D000FFFF7FFFF0B55746DE464E464546E0B577
:1013E000834607000E03480085B092461C00360B6A
:1013F000400DCD0F002800D19DE0954B984239D08B
:101400008023F6001B041E43924A7B0F3343994608
:10141000944603006344009300230026FF000293D8
:1014200023031B0B98466300E40F52465B0D0194A7
:1014300000D1B3E086498B4200D19EE04246D10004
:10144000802212040A435146490F11438B468149B9
:1014500052468C4600996344CB1A0021D200009377
:101460002B0063409A460F2E00D905E17A4BB60057
:101470009B599F465B463343994600D0B8E0022310
:101480000826002700900293CAE7CB463A0002994B
:101490000195019B9A46022927D0032900D180E2B9
:1014A000012944D06D49009B8C4663441C00002CEC
:1014B00038DD530700D013E2D2085B46DB0109D5C3
:1014C0005946674B19408B468021C9008C46009BCA
:1014D00063441C00634B9C4207DC5B4664055F076A
:1014E0005B0217431B0B620D02E000230027584AE2
:1014F00000211B031C0B0B0D1B05234314055A4A2B
:10150000380013401C4353466400DB0764081C4347
:10151000210005B03CBC90469946A246AB46F0BDC2
:101520000122524201231B1B382B00DCADE10022BB
:1015300000230027DCE75B46334399465ED0002E4C
:1015400000D18AE1300001F0FDF903000B3B1C2BB8
:1015500000DD7BE11D22D31A5A460100DA4008392A
:101560008E4013005F46334399468F403F4B002621
:101570001B1A00930023029352E7414653460B4344
:101580003B499B468C46009B634400935B46002B83
:101590003BD1022300221E43022161E7434613434D
:1015A0009B4637D04346002B00D162E1404601F014
:1015B000C9F903000B3B1C2B00DD53E1020041463F
:1015C000083A914088461D21CB1A5146D9400B005C
:1015D00041460B439B46534693401A00009B2549C6
:1015E0009C46604403008C4663440093002137E727
:1015F0000323B14600900C26029311E700230093C9
:1016000001330426002702930AE70323C3461E433F
:10161000032125E701331E430022012120E7002397
:101620009A46802300271B03094A61E78023494625
:101630001B03194200D1E2E05946194200D0DEE016
:101640000B431B0317001B0BA246014A50E7C04681
:10165000FF07000001FCFFFF707C0108FF03000092
:10166000FFFFFFFEFE070000FFFF0F800DFCFFFFE6
:1016700001F8FFFFF3030000D94500D9CBE000D10A
:10168000C6E03C0048460027009B013B00935B46B8
:10169000160E1B021E431302984633041B0C994678
:1016A000310C0191FEF7D4FD4A4642430B04210C54
:1016B000050019438A4207D98919013D8E4203D892
:1016C0008A4201D9851E8919881A0199FEF7C0FD41
:1016D00009048C464A46210464464243090C03002F
:1016E00021438A4204D98919013B8E4200D8F1E096
:1016F0002D041D43AB464346891A4246280C12046A
:101700001D0C5B46140C22001B041B0C5A43039453
:101710006B434443029568431B19150CEB189C421C
:1017200003D980246402A44660441C0C15041B04E5
:101730002D0C20185D19814277D373D00C1AA24A60
:101740007D1BAF42BF419446009B7F426344E01B38
:101750001C00864200D1DBE00199FEF779FD4A4684
:1017600042430B04290C070019438A4207D98919FF
:10177000013F8E4203D88A4201D9871E8919881AEF
:101780000199FEF765FD09044A46894629044D463C
:101790004243090C030029438A4207D98919013BB6
:1017A0008E4203D88A4201D9831E89193F04891ABF
:1017B0003A00039F1A43380013041B0C5843814618
:1017C0000298150C6F43434345434846000C84463A
:1017D000DB1963449F4203D980204002844665445C
:1017E00048461F0C00041B04000C7D191818A94260
:1017F00000D284E000D17FE001231A4357E6802322
:101800004A461B0313431B031B0BAA466F4A6FE692
:10181000BA4200D935E74B46DC0758087B081C4321
:10182000FF0734E70024AF4289D247444745A4412B
:101830005B466442A4196418013BA6421ED2A04232
:101840006DD800D1B6E0241A9B4678E703005A46CB
:10185000283B9A400027914688E6584601F072F8E6
:10186000203072E603005246283B9A4093460022FD
:10187000B4E6504601F066F820309AE6A642E2D17E
:10188000B845DCD9341A9B4659E71F2B65DC504C10
:101890000099A4465C46614408008C4011008240D7
:1018A000D940501E82410C4314435A46DA4013007B
:1018B000620709D00F222240042A05D02200141DFD
:1018C0009442894149425B181A0262D501220023E1
:1018D00000270DE68A4200D80AE7831E891907E728
:1018E0000F231340042B00D1E6E5171D97429241C8
:1018F00053429B44FA08E0E5002800D1D7E571186F
:10190000531EB14227D3A94215D358D01A0073E70A
:10191000002B00DC04E6012300229B44CDE50223DA
:101920004744474589415B429C46494289190C1905
:10193000E344241A03E743465F0047459B41B8460A
:101940005B429E19023A8919A94200D054E74045EA
:1019500000D051E7ABE51A00F6E71F215F46494288
:101960000C1BE740202B07D01A49009B8C46634490
:1019700018005B4683401A43501E82413A430727B2
:101980000023174009D00F2100231140140004291F
:1019900095D122005F075B021B0BD2081743002280
:1019A000A6E5802359461B030B431B0317001B0BA3
:1019B000064A9DE5BD42B2D89B460024BFE680455D
:1019C000B9D31A00C3E7C046FF030000FF070000B9
:1019D0001E0400003E040000F0B54F464646D646C1
:1019E0008446C0B58046194E18030F034D00000B06
:1019F0005C0082463F0B6D0DC90F9146640DDB0FF5
:101A00000120B5420AD0B44203D0A54201D15745C6
:101A10000CD01CBC90469946A246F0BD66463E439B
:101A2000F7D1AC42F5D154461443F2D10120C84558
:101A3000EFD1994207D0002DEBD163461F43380008
:101A4000471EB841E5E70020E3E7C046FF07000076
:101A5000F0B54F464646D6464D00C0B50E03C90FF9
:101A60008A462C491F035C008046360B6D0D91465B
:101A70003F0B640DDB0F8D421ED08C4216D0002D23
:101A80001ED130438446002C01D13A4323D0624614
:101A9000002A1AD09A4529D051460220013908401F
:101AA00001381CBC90469946A246F0BD390011434E
:101AB000E5D002204042F4E73043FAD1AC420FD0E7
:101AC000002C0FD13A43E7D00CE00122013B9343B5
:101AD00018000130E5E763460020002BE1D0DBE78A
:101AE0003A43E6D19A45D7D1A542D5DCA54205DBDC
:101AF000BE42D1D808D00020BE42D2D250460123E7
:101B0000013898430130CCE7C845C5D80020C84506
:101B1000F4D3C6E7FF070000F0B54F464646D64669
:101B20004D00C0B50E03C90F8A462E491F035C0045
:101B30008046360B6D0D91463F0B640DDB0F8D42D9
:101B400018D08C4211D0002D18D130438446002C7F
:101B50001ED13A431CD163460020002B30D05146A1
:101B600002200139084001382AE039001143EAD047
:101B7000022025E03043FBD1AC4226D0002C26D1F8
:101B80003A4324D15146022001390840013817E078
:101B90006246002A0FD09A45E1D1A54205DBBE423C
:101BA000DDD819D00020BE420AD2504601230138A8
:101BB0009843013004E00122013B934318000130B7
:101BC0001CBC90469946A246F0BD3A43D0D19A45F6
:101BD000C5D1A542C3DCE0E7C845C0D80020C84550
:101BE000E3D3EDE7FF070000F0B55746DE464E466B
:101BF0004546E0B5834606000F03480087B092468D
:101C00001D003F0B400DCC0F002800D16FE0DE4BD4
:101C1000984238D08023FF001B041F43730F3B43BF
:101C20000193DA4B0027994600239B46F600814436
:101C30002B0369001B0B52469846490DED0F0029F6
:101C400000D185E0D04B994200D173E04346DA00E1
:101C500080231B0413435246CC48520F844613433F
:101C6000524600206144D20089442100694000911D
:101C70008C46012149448A460F2F00D990E0C4497F
:101C8000BF00CF59BF465B463B43019300D06AE19A
:101C900002230827002681469B46C9E732005846A2
:101CA000019B61460091022800D175E0032800D114
:101CB000FEE1012800D02CE10023002700260025AA
:101CC0003F032A0D3F0BB34812053A4302401B0560
:101CD0001343009A5B00D1075B080B4330001900E7
:101CE00007B03CBC90469946A246AB46F0BD5B4669
:101CF0003B43019300D12FE1002F00D1A5E1380033
:101D000000F020FE03000B3B1C2B00DD96E11D22A2
:101D1000D31A5A460100DA405E4608398F40130054
:101D20008E403B4301939C4B00271B1A994600238E
:101D30009B467DE7414653460B4393498C46E1441D
:101D4000002B00D01AE102220220174300228CE768
:101D5000134300D10DE14346002B00D181E1404601
:101D600000F0F0FD02000B3A1C2A00DD72E10100D8
:101D7000434608398B4098461D239A1A5346D34050
:101D80001A004346134352468A404946081A82497C
:101D900089468144002068E77B4B002700268EE7B8
:101DA000140C1204120C1100370C3604350C794354
:101DB00028008C462E006043604483465643210031
:101DC000300C80465846794340440291844506D9F8
:101DD0008846802149028C46E044414602913604FF
:101DE000010C360C00048B4681191E0C1B041B0CC5
:101DF0000391190079438C46280075436544A84631
:101E00005843050C45447743A94203D98021490230
:101E10008C466744290C8C4639000004000C2D04C4
:101E20002D186144AB4405915946049101990F0462
:101E30003F0C080C390051434243904602008C4647
:101E4000090C8B4662437C4344445C44A04503D95F
:101E50008021490288464244210C88466146090493
:101E6000090C8C4639005943434370437E430F0CA1
:101E7000F6182404BE19644442448C46B34203D984
:101E800080235B0298464044029B61469846049B2F
:101E9000370443449B46AB45AD416B420D04059965
:101EA0002D0C8C467F196744FD18A8465D462D19F8
:101EB000A542A44193466442A446C344DC448F42F5
:101EC000BF4198459B4193459241A445A4415B4243
:101ED0007F421F43360C52426442BF192243BF184F
:101EE000624638184302D20D039913436A020A432B
:101EF000501E82416146ED0D2A434E023243D90104
:101F000000D4B3E00126500832400243DE073243DA
:101F10005B08224C5444002C62DD510709D00F208D
:101F20001040042805D0101D9042924152429B1847
:101F30000200D90104D580241948E4000340544428
:101F40001848844200DD27E75E075B02D2081F0BBA
:101F5000630516435B0DB2E600239946013304275F
:101F600000269B4664E60323019781460C279B4687
:101F70005EE6012201201743002276E603230320B8
:101F80001F43434671E6C046FF07000001FCFFFF08
:101F9000B07C0108FFFF0F800DFCFFFFFF03000076
:101FA000FFFFFFFEFE0700000023802700933F0392
:101FB0000026434B83E6019B3200A446584670E658
:101FC000AC466EE6802701993F0339422DD03B4253
:101FD0002BD11F433F033F0B00951600384B6EE695
:101FE00001252D1B382D00DD66E61F2D40DC354810
:101FF0001C005044160082408440EE40501E824136
:1020000034431443EB40620709D00F222240042AD4
:1020100005D02200141D9442804140421B181A0230
:102020003ED501230027002649E68027019B3F0378
:102030001F433F033F0B0094214B40E603005A46E9
:10204000283B9A40002601926DE6584600F07AFC43
:10205000203057E603005246283B9A4013000022E6
:1020600093E6504600F06EFC20307BE6CA4650E70F
:102070001F201E004042041BE640202D03D0124CBE
:102080005444A3401A43501E82413243072600277E
:10209000164009D00F200023104014000428B9D1A5
:1020A00022005E075B021F0BD2081643002306E6E0
:1020B00080273F031F433F033F0B1600004BFEE505
:1020C000FF0700001E0400003E040000F8B557465C
:1020D0004E464546DE460C000903E0B5490A460F68
:1020E0005F0031431E03DB0F760A9B46530F3343D9
:1020F000C84E6500C000E40FD2006D0DA2468146B7
:102100007F0D9C469046B74200D1B9E05B46012660
:1021100073409B46EE1BA34500D183E0002E63DD98
:10212000002F00D0B1E06346134300D123E1731EBA
:10213000002B00D0BAE1861A6346B04280410125E7
:10214000C91A4042091A0B0200D447E149024B0A5E
:1021500098464346002B00D189E1404600F0F2FB4F
:102160000300083B1F2B00DD7CE120223000D21A47
:102170004146D040994002009E400A439D4200DD06
:102180006AE15D1B6B1C1F2B00DD94E12021100018
:102190003500C91A8E40DA408840DD40711E8E41FC
:1021A000110007222843002506433240002A09D0A7
:1021B0000F233340042B05D0331DB342B641764282
:1021C00089191E000B0200D43DE26A1C914B550593
:1021D0006D0D9A4200D119E18F4AF6080A4057075F
:1021E00052023743120B9BE0002E00D0C5E06E1C5C
:1021F0007605760D012E00DC48E16746861ACB1B7A
:10220000B042BF417F42B8461F004346FF1A3B0021
:10221000B8461B0200D55FE137439AD10022002463
:10222000002579E0002E00DCFAE0002F00D18DE0DF
:10223000784B9D4267D0802367461B041F43BC46F2
:10224000382E00DC52E1634613435A1E93411E1898
:1022500086428041404209180B0200D4BEE06D4B1B
:1022600001359D4200D1D2E06B4A73080A4001213A
:102270000E401E435108D30707221E43324095E704
:102280001E00164300D045E740E7624B9D423AD01E
:10229000802367461B041F43BC46382E00DDEBE05D
:1022A0001F2E00DC3AE133006746203BDF403B0055
:1022B000202E05D04027BF1B6646BE4032439046C5
:1022C0004646721E96413343DAE0002B00D114E2F9
:1022D0006346134300D168E180234E07C008C90854
:1022E0001B030643194208D06046C008184204D1B7
:1022F00063460100D2085E071643F3009946C90001
:10230000720F444D11434B46DE08424B4F07374393
:10231000CA089D4200D16EE012036D05120B6D0DCF
:1023200000211203130B0A0D12051A433B4B2D0516
:1023300013402B435B00E4075B082343380019007C
:102340003CBC90469946A246AB46F8BD6346134353
:1023500011D0731E002B00D007E186188642804101
:1023600061444042091801250B0237D502257BE75D
:102370003E00614691463500C5E75C46002D00D021
:10238000E1E00B000343F3D0731C00D1ACE1214B1F
:102390009F4200D13AE1F343382B00DD6FE11F2B60
:1023A00000DD8CE120250E00ED1AAE40B04606009F
:1023B000AA46DE40454635432E005546D940A84042
:1023C0006346451EA8415B1A9C463043161AB2422A
:1023D000924163465242991A3D00B4E607223240C8
:1023E000002A00D0E4E60B4BF6084F073743CA0833
:1023F0009D4200D090E73B00134300D1A6E180232B
:102400001B031A431203120B024D89E71500002229
:10241000002785E7FF070000FFFF7FFFFFFF0F801A
:10242000002E00D0C7E06B1C5E05760D012E00DC8F
:10243000F0E0C84DAB4200D1B9E085180A008542F2
:1024400089416244494251180722CE076D082E4344
:10245000490832401D00A9E6BF49ED1A1140072284
:102460003240A3E6320028388240002686E630005B
:1024700000F068FA203073E6634613435A1E934116
:10248000C61AB04280414042091A5CE60E00674617
:1024900006431743002D5ED1002E00D0F3E0002F3D
:1024A00000D11EE15C46614691462CE7A94FBE4231
:1024B0007BD01E00F1E610001F3DE840202B03D02A
:1024C0004021CB1A9A401643731E9E4107220643B1
:1024D00032400021002583E7161A6346B24280414C
:1024E000591A40420B1A98465C4632E61F2E00DD10
:1024F000ABE02027BB1B9A4663465746BB40994634
:1025000013004F46F3401F433B005746BA40571E47
:10251000BA4113436246F240891898E62027BB1B54
:102520009A4663465746BB40994613004F46F340D0
:102530001F433B005746BA40571EBA4113436246F9
:10254000F240891A9CE7834B9F425FD080252D047F
:102550007342294320E7002E0CD1002F00D1D0E098
:102560005C46614691467B4DCDE67A4FBE421CD01B
:102570001E0065E6002F18D0C0084E0706438020D5
:10258000C9080003014208D06346DC08044204D1B4
:102590002100DA46D2085E071643F300994601246B
:1025A0005346C900720F11431C406A4DABE61D0033
:1025B00000220027B4E6002D59D10B00034300D1BF
:1025C000D6E6731C00D1B2E0624B9F421ED0F343AB
:1025D000382B6FDC1F2B00DD97E020250E00ED1A55
:1025E000AE40B0460600AA46DE40454635432E00C2
:1025F0005546A840D940451EA8418C440643B6180C
:1026000096429241514261443D0025E63D006146BB
:10261000914678E60B000343002D00D055E6002BD1
:10262000F5D06346134300D16DE68618864280419B
:1026300061444042091800220B0200D4D0E6464B08
:1026400001351940B2E5B1465DE633006746203BEF
:10265000DF403B00202E05D04027BF1B6646BE4012
:10266000324390464646721E96413343EFE5394B5E
:102670009F42CBD080252D0473422943A8E708430D
:10268000411E8841A2E6002F00D13CE66346861A2F
:10269000CF1AB0429B415B42FB1A98461B024ED5B3
:1026A000161A6346B2429241591A5242891A5C463E
:1026B00000227BE501430E00711E8E419FE71D0045
:1026C0000E00203DEE40B046202B04D04025EB1AF2
:1026D00099400843814648464346411E8841184375
:1026E00074E60022002417E6161A6346B2429241AD
:1026F000591A5242891A3D0025E561469146154D09
:1027000001E680220024120379E61D000E00203D20
:10271000EE40B046202B04D04025EB1A99400843E8
:1027200081464E464346711E8E411E4367E786181A
:1027300096429B4161445B42C9183D008CE5474687
:102740003743CED007224146324049E600273A00BF
:10275000E6E5C046FF070000FFFF7FFF30B5144DE0
:102760000A034B00120B5B0DC90F0024AB4211DDB5
:10277000104CA34210DC8024640322430E4CE41A64
:102780001F2C0CDD0D48C31ADA4013005C420029EF
:1027900000D11C00200030BD094BCC18FAE7094DD0
:1027A000E040AC4663449A4013000343EEE7C04662
:1027B000FE0300001D0400003304000013040000A9
:1027C000FFFFFF7FEDFBFFFF70B500282DD0C31783
:1027D000C5185D40C40F280000F0B4F8154B1B1A53
:1027E0005B055B0D0A2815DD0B38854000222D03A3
:1027F0002D0B002110002D030A0D2D0B12052A436D
:102800000D4D1B052A4013435B00E4075B0823437F
:10281000190070BD02002900153291400A000B21F9
:10282000081AC5402D032D0BE3E7002400230025E3
:102830000022DEE71E040000FFFF0F8010B5041E1B
:1028400025D000F07FF8144B1B1A5B055B0D0A289E
:1028500012DD0B38844000222403240B00211000D9
:1028600024030A0D240B120522430C4C1B052240A5
:1028700013435B00590810BD02002100153291403E
:102880000A000B21081AC4402403240BE6E70023A6
:1028900000240022E2E7C0461E040000FFFF0F8074
:1028A0004100090E4B1C70B5DBB24602750AC40F1D
:1028B000012B14DDE0239B006D07360BCB180021A4
:1028C0000A0D280012051C4D32435B052A405B08A7
:1028D00013435B00E4075B082343190070BD002924
:1028E00014D1002D1ED0280000F02CF80A281CDC82
:1028F0000B232A001B1ADA40030015339D400F4BAF
:1029000012031B1A5B05160B5B0DD8E7002D06D0D2
:10291000320B802636036D071643094BCFE7084B71
:102920000026CCE700230026C9E703002A000B3B62
:102930009A400025E3E7C046FFFF0F8089030000AF
:10294000FF0700001C2101231B04984201D3000C47
:1029500010391B0A984201D3000A08391B09984212
:1029600001D30009043902A2105C40187047C04628
:102970000403020201010101000000000000000048
:1029800010B5002903D1FFF7DDFF203002E0081C5D
:10299000FFF7D8FF10BDC0460023C25C0133002AF8
:1029A000FBD1581E7047000013B50822002168466D
:1029B00013F0C6FF8022194C194BD2056260012228
:1029C000236000232261A218D377A21CD377C222EE
:1029D000FF32626222002C32137004222000E36373
:1029E000A360A363E360A36262612363A361636383
:1029F000E36100F03FFD002801D000F0F1F9094B40
:102A000069460093802320005B01019300F00AFED9
:102A1000002801D000F0E4F913BDC046C422002014
:102A20000024014000000448054B02689A4205D189
:102A30008023044A9B00516B0B4353637047C0468D
:102A40000024014000100240F0B5012602278BB09F
:102A50001422002105A813F073FF04204B4B4C4DAA
:102A6000DA6A00243243DA62DA6A32400192019A69
:102A7000DA6A3A43DA62DA6A3A400292029AD96A28
:102A80000143D9628021DA6A0240A0200392039AAE
:102A9000DA6AC0050A43DA62DB6A00220B4004935B
:102AA0003C49049B00F040FF28000022402100F038
:102AB0003BFF00220721384800F036FFA020374BAB
:102AC00005A9C005059308970696079400F072FEC5
:102AD000A42305A9280005930694079400F06AFE34
:102AE00013232F4F05A9280005930697079400F09C
:102AF00061FE402305A928000593069607940894D3
:102B000000F058FE802305A99B01234805930697F2
:102B1000079400F04FFEA0200322224B05A9C00518
:102B2000069207270593079400F044FE022305A9A7
:102B30001948089305970696079400F03BFEC023BA
:102B4000A0209B0005A9C00505930696079408944C
:102B500000F030FEC02303221B0105A928000593C5
:102B60000692079400F026FE22002100052000F0C6
:102B7000ADFD052000F0D4FD22002100380000F05A
:102B8000A5FD380000F0CCFD0BB0F0BD00100240F8
:102B90000004005002930000000800500290000062
:102BA00000001110310C00001FB50120184BD96A2C
:102BB0000143D962DA6A02400092009AD96A001889
:102BC0000143D962DA6A02400192019AD96A02305D
:102BD0000143D9628021DA6A02400292029ADA6ADB
:102BE00001300A43DA620022DB6A0B4003931100D2
:102BF000039B00F06BFD052000F092FD00220720F2
:102C0000110000F063FD072000F08AFD05B000BD53
:102C10000010024010B5134B134C01222360134BDC
:102C2000200063600023E260A36023616361A3610D
:102C3000E361236200F08AFE002801D000F0D0F8A2
:102C40000021200000F0D8FE002801D000F0C8F8D4
:102C50000021200000F0F6FE002801D000F0C0F8AE
:102C600010BDC0460054004020230020BB7C7000F3
:102C700010B5040086B01422002101A813F060FEF4
:102C8000114B22689A421CD10221104C1048E26A72
:102C90000A43E262E36A0B400093009BC0239B005F
:102CA000019312230293113B03935B18049301A930
:102CB0000133059300F07EFD8023A26B9B03134339
:102CC000A36306B010BDC04600540040001002408F
:102CD000000400500748084B10B50360062343600A
:102CE000064BC360836000F0D1FE002801D000F0E5
:102CF00077F810BD6C23002000300040FF0F00006B
:102D000030B59DB0382200210EA813F019FE142210
:102D10000021684613F014FE2422002105A813F0B8
:102D20000FFE80231D491E4C0A681B0122401343DD
:102D30000B6000F0DFFE1B4A0125136D0EA8234037
:102D400013650E230E93F2331093F03B12930E3B58
:102D5000189380231B031A93802300241B041B93C6
:102D600011951395199400F03FFF0F23290000934C
:102D700068460C3B019302940394049401F0BCF95F
:102D80002A230593223B0893802305A85B020A941B
:102D9000069301F089FA1DB030BDC04600700040B6
:102DA000FFE7FFFF0010024010B500F013FBFFF734
:102DB000A7FFFFF749FE00F041F800F0BDF800F072
:102DC000DDF8FFF787FFFFF7EFFD00F0BBF9FFF736
:102DD00021FF00F0FDF912F029FB12F03BFBFCE7AC
:102DE0007047000010B5024812F050FC10BDC046FC
:102DF0005800002010B5702011F056FF094811F05E
:102E0000F9FF12F0A1FF0100074811F0F3FF12F0E3
:102E1000BFFF00F0BBFA8021044A4900044812F0C9
:102E20008DFB10BDF07C0108FB7C0108E52D00083E
:102E3000E02E000010B512F0FDF910BDF0B5002530
:102E400091B001AF14220021380006AE13F078FDD6
:102E5000282229003000009513F072FD274C284BE2
:102E6000200023607F23A36080336560E3602561D9
:102E70006561A561E56101F05BFBA84201D0FFF748
:102E8000AFFF3D80BD70002239002000FD603D6134
:102E900001F0B6FB002801D0FFF7A2FF194B00227A
:102EA00069462000009301F02BFC002801D0FFF7B9
:102EB00097FFF0231B05B361192301216B44D977D8
:102EC000802300225B00310020003280B2707260EB
:102ED000F26032617261F261736201F07DFC002880
:102EE00001D0FFF77DFF00222000110001F090FDCE
:102EF000002801D0FFF774FF11B0F0BD7C23002043
:102F00000028004001010100094B026810B59A42F7
:102F10000DD18023074ADB02116D02200B4313659C
:102F20000022110000F0D2FB022000F0F9FB10BDDE
:102F300000280040001002400E480F4B10B50360FF
:102F4000822380225B004360002392008261E13A89
:102F50008360C36003614361FF3A0362436283623B
:102F60000733C261C36201F075FE002801D0FFF78C
:102F700037FF10BDF8230020003001400C480D4BF6
:102F800010B5036082235B00436000238360C3604D
:102F9000036143618361C3610362436283620733F8
:102FA000C36201F057FE002801D0FFF719FF10BDE2
:102FB000A02300200038004030B5040089B014225E
:102FC000002103A813F0BCFC2368254A93422CD1AE
:102FD00080220224234B5201596B03250A4301210D
:102FE0005A63DA6A20482243DA62DA6A224000929F
:102FF000009ADA6A0A43DA62DB6A04940B400193AE
:10300000019B082303A90393069500F0D3FBC0237B
:10301000A02003930023049405930695079303A926
:10302000C00500F0C7FB09B030BD104A9342FAD189
:1030300080220C4BD201996B0B480A439A630222FF
:10304000D96A1143D962DB6A03A913400293029B38
:10305000F0231B020393032304920693E1E7C04687
:1030600000300140001002400004005000380040D1
:103070000122054B596B0A435A638022996B520512
:103080000A439A637047C046001002407047FEE74B
:103090007047704710B513F0ABF910BD10B5044C74
:1030A000200001F0DFF9200001F06AFD10BDC046EC
:1030B0007C23002010B5012000F03CFC022000F031
:1030C00039FC10BD10B5102000F034FC80208001C8
:1030D00000F030FC10BD000010B5024802F016F8F8
:1030E00010BDC0468C2400208022104B520019686D
:1030F0000A431A60DA680E490A40DA601A680D4914
:103100000A4001211A609A688A439A601A680A493B
:103110000A401A60DA6809490A40DA6000221A6136
:103120008022074B12059A607047C046001002408B
:103130000C40FF88F6FFF6FEFFFFFBFFFFFF02FFDC
:1031400000ED00E010B586B01022002102A813F0B7
:10315000F7FB08220021684613F0F2FB134C144BD6
:103160002000236000236360A360E3602361636148
:1031700001F0DCFE002801D0FFF732FE802302A917
:103180005B012000029301F0EDFE002801D0FFF763
:1031900027FE0023694620000093019301F084FF7D
:1031A000002801D0FFF71CFE06B010BD50240020FF
:1031B00000080140044B02689A4204D10423034AE8
:1031C000516B0B43536370470008014000100240ED
:1031D0000B480C4B10B5036096239B0143600C22F7
:1031E000002342618360C36003618361C361036242
:1031F000436202F095FA002801D0FFF7F1FD10BDFF
:103200008C2400200044004010B5040086B0142235
:10321000002101A813F094FB144B22689A4222D19A
:103220008022134B9202996BA0200A4301219A63DA
:10323000DA6AC0050A43DA62DB6A0B400093009B3E
:103240000C2301930A3B02935B1804935B1801A9BA
:10325000059300F0AFFA00221C20110000F036FAAE
:103260001C2000F05DFA06B010BDC04600440040CE
:10327000001002407047000010B5024811F0E4FD54
:1032800010BDC046087D010810B5110002481A00A3
:1032900011F0DAFD012010BD1B7D010830B51100D1
:1032A00085B01A00154811F0CFFD6B4602ACDD1D4C
:1032B0002B0001220821200010F0B4FD002814D1B9
:1032C0000F4811F0C1FD0A2323700E4B01226380C9
:1032D0000D4B08212000636010F07EFD0B4920207B
:1032E00011F048FF022005B030BD2978084811F0E0
:1032F000ABFD6188074811F0A7FDEFE72B7D0108C2
:103300003C7D0108A5A5FFFFFFA55AFF0400002092
:10331000477D0108597D010800B511008BB01A00E6
:10332000154811F091FD1422144905A813F0ECFA88
:1033300011F0DEFD00280AD111F0B0FD12F008FAFC
:1033400001000F4811F056FD02200BB000BD0D4AE0
:10335000002302920222039301920093102106336C
:10336000013A05A812F01AF801000528E6D006482F
:1033700011F016FDE2E7C046647D0108B171010855
:10338000977D010875320008757D0108802110B510
:103390004900002012F071FC80210020890012F009
:1033A00063FC10BDFA210A4B70B58900050018684E
:1033B000FCF7C8FE00F0BEF904000120002C05D186
:1033C00002382200290000F081F9200070BDC046BB
:1033D000000000204023084A10B5116800200B436C
:1033E0001360FFF7DFFF041E03D1FFF741FE20004B
:1033F00010BD0124FBE7C04600200240014B1868C5
:103400007047C0460C25002070B50400FFF7F6FF9A
:10341000631C5A1E93410500E418FFF7EFFF401BA1
:10342000A042FAD370BD00000221024A13688B4308
:103430001360704710E000E00223024A11680B435A
:103440001360704710E000E0084B13B50400084912
:103450001868FCF777FE44430194019B002B00D1D0
:1034600013BD019B013B0193F7E7C046000000201C
:1034700040420F0070B504000120002C19D0636D8C
:10348000002B06D122005032A36520001370FFF7F5
:10349000CBFA636DDB0604D40422236898681040DD
:1034A00008D01023626D012013436365002350345C
:1034B000237070BD626D5549114002220A43626556
:1034C000032299681140524A012902D11D680D4218
:1034D00019D180266168F6054D006D08B54203D00C
:1034E00080252D06A94276D11D69AD00AD081D616C
:1034F0001D69294319611825D968A943D960D9687C
:10350000A5682943D9601168424D29401160616B5B
:1035100015684906294311608022996852051142B5
:1035200002D199680A439A60DA683B490A402169E6
:10353000DA60DD68E268022900D10420266B611C94
:1035400032432A43A569C97FAD032A43E569ED03E8
:103550002A434D032A4325002C352D786D002A433C
:103560000243C220DA60626AFF30824204D0A56A58
:10357000D8682A430243DA60A21CD27F012A06D10E
:10358000002934D18022D96852020A43DA60E16B03
:103590001A69012933D12148656C02401A61226CF5
:1035A00018692A43A56C2A4302431A611A69114318
:1035B000196107215A6900208A435A615A69A16B2F
:1035C0000A435A610322A065636D93431A000123E5
:1035D000134363656DE71D69114EAD00AD081D61B4
:1035E00015683540156015682943116083E720216F
:1035F000606D01436165A16D0A43A265C7E70121C2
:103600000A42D6D01A698A431A61D2E7FDFEFFFF4B
:1036100008270140FFFFFFFD1902FEFF03FCFFFF2B
:10362000FFFFC3FFF8B504005034237806000D00F7
:103630000220012B0BD032680138916820704B07B3
:1036400006D52022716D0A43726500222270F8BDF2
:1036500080232868194E6F684103DB02490B034041
:10366000B74219D0906A01439162002B08D08023A1
:10367000134A1B0411680A200B431360FFF7E4FE92
:103680002B689B0305D580230D4ADB0311680B4390
:10369000136000202070DAE7956A8D439562002B55
:1036A00004D0074A074913680B4013608303F0D521
:1036B000034A054913680B40EAE7C04601100000C1
:1036C00008270140FFFF7FFFFFFFBFFF30B5FF2549
:1036D00003242A00C3B21C40E400A240890129400F
:1036E000D243A14000280BDA0F200340083B0A48D0
:1036F0009B089B001B18D86902401143D96130BD5B
:10370000064B80088000C018C0239B00C45822408C
:103710001143C150F3E7C04600ED00E000E100E0D6
:103720001F2318401E3B8340014A13607047C04668
:1037300000E100E0094A431E012093420DD8C02158
:10374000074A08485360036A09061B021B0A0B4319
:10375000036200200723906013607047FFFFFF00A3
:1037600010E000E000ED00E070B5841DE37F022B67
:1037700004D00423C363033B180070BD0E2103680B
:10378000456C1A688A431A600122196891431960CE
:103790001C232B4015009D40016C431D4D60E277BA
:1037A0000024826BDC771300A242E5D0904723000F
:1037B000E2E70000F0B5544A0B688218541EA2419B
:1037C00087B00393002305320592039ADA4001D1B2
:1037D00007B0F0BD01259D40039A2A40029200D116
:1037E0008FE04A6801921022019E9643022E0FD16B
:1037F000DA08920007248218176A04920F221C40EC
:10380000A400A24097430A69A2401743049A176292
:1038100003225C00A240013ED243012E0DD8CE68A7
:103820008768A64017403E4386604668AE43019DC8
:10383000ED06ED0F9D40354345600326019D076869
:103840003540A54017403D430560C5682A408D6856
:10385000A5402A43C260019AD20052D501252B4CC3
:10386000AC46626B0F272A431D003540AD00AF40C8
:103870006263274A9C08A400A418A268BA43A02740
:103880000492FF050022B84210D0224F6246B8428F
:103890000CD0214F9218B84208D0204F3200B842C5
:1038A00004D01F4E6244B04200D0059AAA40049D45
:1038B000019F2A43A2601B4A029C1668029DE443B2
:1038C0003543FF0301D43500254015605668029D3D
:1038D000019F3543BF0301D43500254055609668EC
:1038E000029D019F3543FF0201D4350025409560BC
:1038F000D568029E019F2E43BF0201D425402E00B1
:10390000D660013361E7C04600E4FFAF001002401B
:10391000000001400004005000080050000C00505E
:103920000010005000040140002A01D0816170475E
:103930008162FCE7044B10B55A69104202D058610D
:1039400012F0B4F910BDC0460004014070B5040087
:103950000120002C3FD0250041352B78DBB2002B15
:1039600005D12200403213702000FFF781F9242393
:1039700001212B702368E0681A68A6688A431A60E0
:1039800061681A4A0A401A619968194A1140996097
:10399000012821D1802109023143996058681549D5
:1039A00001435960D96800200A40DA6061692269E0
:1039B0000A43A16909020A43DA60216AE2690A43FB
:1039C0001A60012219680A431A60202360642B7070
:1039D00020634234207070BD842109023143996014
:1039E0000228DBD1802109015960D7E7FFFFFFF0F2
:1039F000FF7FFFFF00800002F0B504004134227811
:103A00000300D2B20220202A18D11D0040352E78A2
:103A1000012E13D01B68223020701E682338864385
:103A20001E601E68064F3E401E601E6831431960CE
:103A3000196808431860002022702870F0BDC04645
:103A4000FFEFFFFFF0B5050041352A780300D2B241
:103A50000220202A17D11C0040342678012E12D0D3
:103A60001B68223028701E68233886431E601E683B
:103A7000054F09023E403143196019680843186038
:103A800000202A702070F0BDFFF0FFFF70B5040029
:103A90000120002C14D023680F4A1A600F4A1A60C4
:103AA00062685A60A2689A60FFF7A8FC0500236864
:103AB000D868002805D11969E268914208D01A61D6
:103AC00070BDFFF79BFC401B3028F0D90320F7E7BF
:103AD000034A1A60F4E7C046CCCC000055550000FC
:103AE000AAAA00000368024A00201A607047C04674
:103AF000AAAA00008023034A5B0011680B431360ED
:103B00007047C0460070004010B503240A4A13688D
:103B1000A343184310600422084B186902431A613A
:103B2000012905D130BF04211A698A431A6110BDE9
:103B300040BF20BF20BFF6E70070004000ED00E06E
:103B40008023034ADB0011680B4313607047C046B3
:103B5000007000408023034A9B0011680B431360F0
:103B60007047C046007000400C22194B10B5D96850
:103B70000A40082A29D00C2A09D0042A1DD1186825
:103B8000144BC006C0171840134BC01810BD8A0252
:103B90001248120F825C0902D868890F0131C003F4
:103BA00004D50F485043FCF7CDFAEFE71B68DB065E
:103BB00001D50C48F6E70848F4E780205B6800026E
:103BC0001B045B0F01339840E0E70548DEE7C04681
:103BD0000010024000E548FF0024F4009071010845
:103BE00000127A0000093D00F0B5050087B00028FA
:103BF00002D1012007B0F0BD0C23C24CE668E26898
:103C00001E4080235B021A4001920268D20741D411
:103C10002B689B0700D587E02B68DB0628D5002E94
:103C200000D0E1E023689B0502D5EB69002BE0D0D2
:103C30006268B5496B6A0A401A43626061682A6A21
:103C40000902090A12060A43626080225B0B0133F3
:103C500012029A401300E16800200A06AB49120FD5
:103C60008A5CD340AA4A1360FFF79CFB0028C1D1AD
:103C70002B681B0700D5EEE02B685B0700D510E131
:103C80002B689B0600D595E1AB6A002B00D0C4E100
:103C90000020AFE7082E04D00C2E09D1019A002A8B
:103CA00006D023689B03B3D56B68002BB0D1A0E787
:103CB0006A689A4211D1226813432360FFF79EFB82
:103CC00007008022236892021342A1D1FFF796FBDE
:103CD000C01B6428F5D903208CE7A021C9028A42C1
:103CE00005D180222168D2020A432260E3E72168DD
:103CF00088480140216021680B400593059B864957
:103D000023680B402360002AD8D1FFF777FB070018
:103D1000802223689202134200D179E7FFF76EFBFD
:103D2000C01B6428F4D9D6E72022EB68134203D0E5
:103D30002168934311432160042E04D00C2E25D119
:103D4000019A002A22D12268520702D5002B00D105
:103D50004FE761682A697148120201400A4309214C
:103D6000626022688A4313432360FFF7FDFEE36825
:103D7000664A1B061B0FD35CD840654B18600020B9
:103D8000FFF710FB002800D146E733E7002B19D0DE
:103D9000092122688A4313432360FFF72FFB0700A2
:103DA00004222368134207D062682B695B491B0217
:103DB0000A40134363602FE7FFF720FBC01B022874
:103DC000EED988E70122236893432360FFF716FBAF
:103DD000070004222368134200D11DE7FFF70EFB02
:103DE000C01B0228F5D976E7EB69002B20D0802391
:103DF00022685B0013432360FFF700FB070080226B
:103E00002368920013420DD063683F4A13406A6AE8
:103E10001343636062682B6A12021B06120A134383
:103E2000636025E7FFF7EAFAC01B0228E7D952E7EB
:103E300023683B4A13402360FFF7E0FA0700802223
:103E400023689200134200D112E7FFF7D7FAC01B94
:103E50000228F4D93FE76A690123002A10D0226DB5
:103E600013432365FFF7CAFA07000222236D1342AA
:103E700000D001E7FFF7C2FAC01B0228F5D92AE7F4
:103E8000226D9A432265FFF7B9FA07000222236DDB
:103E9000134200D1F0E6FFF7B1FAC01B0228F5D9B2
:103EA00019E780230021A26B5B0501911A4204D11E
:103EB000A26B1343A363012301938022194F520085
:103EC0003B68134208D08022AB68520093422BD14A
:103ED000226D134323654CE080223B68520013435C
:103EE0003B60FFF78BFA80235B00029003933B68F3
:103EF000039A1342E7D1FFF781FA029BC01A6428A4
:103F0000F5D9E8E600100240FF1FFFFF9971010894
:103F100000000020FFFFFEFFFFFFFBFFFFE0FFFFB1
:103F2000FFFEFFFF00700040002B16D1236D6A4A90
:103F300013402365236D694A13402365FFF75EFA3A
:103F400007008022236D920013422AD0FFF756FA11
:103F5000634BC01B9842F4D9BDE6A021C9008B4237
:103F60000BD18023216DDB000B432365236D1A43A6
:103F70002265FFF743FA07000EE0236D564A13400F
:103F80002365236D554A1340A4E7FFF737FA544BD6
:103F9000C01B984200D99EE68022236D92001342F6
:103FA000F3D0019B012B00D06AE6A36B4D4A13406E
:103FB000A36365E6A96901234B4A002918D0A168CB
:103FC0001943A160616B0B4363638023116A9B01FA
:103FD0000B431362FFF712FA07000222A368134291
:103FE00000D051E6FFF70AFAC01B0228F5D972E6A5
:103FF000A1689943A160136A3C490B401362FFF723
:10400000FDF907000222A368134200D13CE6FFF746
:10401000F5F9C01B0228F5D95DE60C2E43D0344AD1
:10402000022B2ED12368802613402360FFF7E6F988
:104030000700B604236833421DD1296BEB6AE2689E
:104040000B432C490A4013436A6B80251343E360FA
:10405000802322685B0413432360FFF7CFF9060037
:10406000AD0423682B4200D012E6FFF7C7F9801B8E
:104070000228F6D92FE6FFF7C1F9C01B0228D9D9CB
:1040800029E62368802513402360FFF7B7F906006F
:10409000AD0423682B4200D1FAE5FFF7AFF9801B8E
:1040A0000228F6D917E68022E368E96A52021A402C
:1040B00001208A4200D09DE5F022296B92031A402C
:1040C0008A4200D096E5C02000040340686B181AAD
:1040D000431E9841C0B28DE5FFFEFFFFFFFBFFFFCF
:1040E00088130000FFFFFFEF00000140FFDFFFFF2C
:1040F000FFFFFFFEFFFF02FFF7B5061E019101D192
:104100000120FEBD0122514C0199236813408B42CE
:1041100027D3326893072FD4D30735D401232268DD
:1041200001991A408A4200D981E03268484C53070D
:1041300000D584E0130706D5E26833694549DB0002
:104140000A401343E360FFF70FFDE368424A1B0692
:104150001B0FD35CD840414B18600020FFF722F9B9
:10416000CFE72368019993430B43236023681340EF
:10417000019A9342C4D1CCE7F0203549CB68834300
:10418000B0680343CB60C7E7314D72682B68022AE1
:1041900019D19B03B4D50321EB688B431343EB6028
:1041A000FFF72CF973680700022B19D10C22EB687A
:1041B0001340082BB2D0FFF721F9294BC01B9842BE
:1041C000F4D903209DE7032A02D19B01E3D497E7AA
:1041D000012A02D15B07DED492E79B05DBD48FE78F
:1041E000032B0BD10C22EB681340934296D0FFF7C0
:1041F00005F91B4BC01B9842F4D9E2E7012B10D004
:104200000C22EB68134289D0FFF7F8F8144BC01B5F
:104210009842F5D9D5E7FFF7F1F8114BC01B98424A
:10422000CFD80C22EB681340042BF4D176E7226838
:104230009A43226022681A4200D176E760E7E36879
:1042400008490B40F1680B43E36073E7002002402C
:1042500000100240FFC7FFFF997101080000002015
:1042600088130000FFF8FFFF044B054ADB685B057D
:104270005B0FD35C034A1068D840704700100240BF
:10428000A971010800000020044B054ADB689B046B
:104290005B0FD35C034A1068D8407047001002409F
:1042A000A9710108000000200368F7B505009B060E
:1042B0003DD5802300215F4C5B05A26B00911A4223
:1042C00004D1A26B1343A3630123009380275A4EAA
:1042D0007F0033683B426CD06868C023C026010071
:1042E0002268B6039B023040324019401E009042C3
:1042F00000D06FE0236D334000D074E06968C023C4
:104300000A009B021A409A4207D123684B48034097
:10431000C020800301400B432360236D1A43009BA0
:104320002265012B03D1A36B454A1340A3632B687D
:10433000DA0706D503203F49CA6C8243A8680243C6
:10434000CA649A0706D50C203A49CA6C8243E868C9
:104350000243CA645A0706D536493A48CA6C024035
:1043600028690243CA641A0706D532493648CA6C1E
:10437000024068690243CA64DA0506D52D4933480C
:10438000CA6C0240A8690243CA645A0606D5294984
:104390002F48CA6C0240286A0243CA6400201B06E8
:1043A00017D5244A2B49D36C0B40E9690B43D364DE
:1043B0000FE033683B433360FFF720F80190336828
:1043C0003B4289D1FFF71AF8019BC01A6428F6D93D
:1043D0000320FEBD994200D08CE7236801209B0397
:1043E00000D487E7F5E78B4200D187E72B689B066F
:1043F00000D483E78022216D206D120302432265E1
:10440000226D124B14480B40024022652365CB05F8
:1044100000D473E7FEF7F2FF80270600BF00236D8C
:104420003B4200D06AE7FEF7E9FF0C4B801B984245
:10443000F5D9CDE70010024000700040FFFFCFFF2C
:10444000FFFFFFEFFFF3FFFFFFCFFFFFFFFFFCFFCB
:10445000FFFFFFFBFFFFF3FFFFFFF7FF88130000E5
:1044600070470000036810B59A680400D2040AD5AA
:10447000DB68DB0507D5FFF7F3FF21680E4BCA6841
:10448000D2B21343CB6023689A6892040BD5DB68E1
:104490009B0508D5200000F08DFB2168074BCA68FA
:1044A000D2B21343CB608022054B92025A610123A2
:1044B0000234E37710BDC0467FFEFFFF7FFDFFFFA4
:1044C00000040140A0210268F8B5D36804008B43C2
:1044D000D360FEF793FFFA2706002025BF0023686C
:1044E000DB682B4201D00020F8BDFEF787FF801B60
:1044F000B842F4D90320F7E7F8B540240368050073
:10450000DA68224201D00020F8BD01225242DA606E
:10451000FEF774FFFA270600BF002B68DB68234212
:10452000F1D1FEF76BFF801BB842F6D90320EBE711
:1045300070B50400012500281AD0861CF37FDBB279
:10454000002B03D14219D377FEF7DEFC0223CA22E7
:10455000F377236820005A62773A5A62FFF7CCFF5C
:104560002368051E06D0FF225A620423F377012533
:10457000280070BD9A681B4920690A409A606268E9
:1045800099680243A06902430A439A60E26860693D
:104590001A61A268196912040A4380211A61DA6853
:1045A0008A43DA60DA6C7D398A43DA64E269D96C6D
:1045B00002430A43DA649B689B060CD42000FFF791
:1045C00081FF002807D0FF22236801345A620423A8
:1045D000F377E577CBE7FF2223685A620123F3776D
:1045E000C6E7C046BFFF8FFF0023092803D81B0181
:1045F0001843C0B270470A380133C0B2F5E7000073
:104600000223F0B5471C0C00F97F85B005001E00A1
:10461000012937D00121F977C118CB7701914021C9
:104620000668637820780293B3680B40002A2CD187
:10463000002B00D1E370FFF7D7FF03900298FFF73C
:10464000D3FF0290A078FFF7CFFF0300E0780004CB
:104650001843039B1B041843029B1B021843CA23E5
:104660007362773B736202902800FFF745FF2B6867
:10467000061E16D0FF225A620423019AD377002324
:10468000FB770126300005B0F0BD002B00D1E370B0
:10469000029B00041B021843A3781843E3781B0411
:1046A000DCE71548029A154902401A609A682069A9
:1046B0000A409A60E268996802430A4380219A603E
:1046C000DA688A43DA609B689B060CD42800FFF7FF
:1046D000F9FE002807D0FF222B685A620423019AB2
:1046E000D377FE77CDE7FF222B685A620123019A28
:1046F000D3770023FB77C5E77F7F7F00FFFFFBFFBA
:104700000223F0B5471C0E00F97F85B004001D00A0
:10471000012936D00121F977C1180191CB77317881
:10472000F07849037378B5780291002A4CD11032A1
:10473000134202D093430A337370FFF755FF03907F
:104740007078FFF751FF06002800FFF74DFF039B2D
:1047500036021D04029B18430543CA222368200029
:104760005A62773A5A62FFF7C7FE2E432368051E46
:104770000AD0FF225A620423019AD3770023FB77E1
:104780000125280005B0F0BD8021124806405E607A
:10479000DA688A43DA609B689B060CD42000FFF736
:1047A00091FE002807D0FF2223685A620423019A51
:1047B000D377FD77E4E7FF2223685A620123019A49
:1047C000D3770023FB77DCE7029A0004104305430C
:1047D0001E02C2E73FFFFF000223F7B50D00411C98
:1047E000CE7F04001800012E00D18CE00138C8777C
:1047F000E118CB7740216B7826680093B36828785E
:10480000AF780B40002A5DD1002B00D1EB70FFF791
:10481000EBFE01900098FFF7E7FE00903800FFF7ED
:10482000E3FE07006B1CD87FFFF7DEFE6A69EB69C9
:104830001343EA78120413431F43019B1B041F43D5
:10484000009B1B021F43AA696B6800061343009379
:10485000CA236A6A7362773B7362AD3307439A4235
:1048600052D1B3683B4A1340B360F2683A4BD2B2BC
:104870001343F360FEF7C2FD060001222368DD68E2
:10488000154031D0009ADF615A6480229968520045
:104890000A439A608022996852010A439A608022F2
:1048A0002E4B9202196800201143196099680A433F
:1048B0009A60FF2223685A62FE3AA31CA418DA7792
:1048C000E07720E0002B00D1EB70EB696A6900040F
:1048D00013431F43009B074318020743E8786B1CF0
:1048E00000040743D87FAEE7FEF788FDFA23801B5C
:1048F0009B009842C1D9FF22032023685A62A31C5F
:104900000134D877E577FEBDB368154A1340B3602C
:10491000F268144BD2B21343F360FEF76FFD06004A
:1049200002222368DD6815400BD0009A1F629A644A
:104930008022996892000A439A60802299689201C5
:10494000ABE7FEF75BFDFA23801B9B009842E7D99B
:10495000D1E7C046FFFEFFFF7FFEFFFF00040140DE
:10496000FFFDFFFF7FFDFFFF0A23020953430F22D4
:1049700010401818C0B2704770B50C0001683F2095
:104980008B6A63600B695B045B0CA3600B680E4968
:104990000B40190C1E0ADDB240230840F6B2194044
:1049A00020706670A570E170002A0AD1FFF7DCFF65
:1049B00020703000FFF7D8FF60702800FFF7D4FFA9
:1049C000A070002070BDC0467F7F7F0070B50C00D6
:1049D00003680E495B680B40180CDD04DEB21B0453
:1049E000ED0E5B0FE0706570A6702370002A0AD18F
:1049F000FFF7BAFFE0702800FFF7B6FF60703000E5
:104A0000FFF7B2FFA070002070BDC0463FFFFF005F
:104A10000223F0B585B0461C02910392F27F040098
:104A20001800012A58D00122E718F277FB77236893
:104A3000C9325A62773A5A629B685B0535D423685B
:104A40002E499A680A409A60D9682D4AC9B20A4329
:104A5000DA60FEF7D3FC019004222368DD6815407C
:104A60003CD00721029A5A619A688A439A609A68F0
:104A700003990A4380219A60224A49031068084337
:104A8000106090680143916080229968D2010A43C6
:104A90009A6080229968D2000A439A60FF2200201F
:104AA0005A620123FB77F07716E0FEF7A7FC042596
:104AB00001902368DB682B42C1D0FEF79FFC019B6D
:104AC000C01AFA239B009842F3D9FF2223680320DF
:104AD0005A620023F877F37705B0F0BDFEF78EFC3D
:104AE000019BC01AFA239B009842B5D9FF220320EC
:104AF00023685A62F877F577EEE7C046FFFBFFFFC1
:104B00007FFBFFFF000401400223F7B5451CEA7F4D
:104B100004001800012A2DD00122E618EA77F37765
:104B20002368C9325A62773A5A629A6812490A402F
:104B30009A609A6811490A409A60FEF75FFC0190FA
:104B400004222368DF68174006D0FB325A62002037
:104B50000123F377E8770DE0FEF750FC019BC01AC4
:104B6000FA239B009842EBD9FF22032023685A6264
:104B7000F077EF77FEBDC046FFFBFFFFFFBFFFFFF3
:104B8000036810B5DB6804005B0507D511F0EAFB8C
:104B90002168064BCA68D2B21343CB608022044B13
:104BA00052035A6101230234E37710BD7FFBFFFFFC
:104BB0000004014070470000E021036810B55A6806
:104BC0008A435A6082224168520091420CD180216E
:104BD000826809028A4203D08021C9008A4203D137
:104BE00040211A688A431A608021826A89018A42B8
:104BF00006D11968074C2140196019680A431A60E8
:104C00000300012251331A70002350300370032037
:104C100010BDC046FFDFFFFFF8B504000D00170010
:104C200080262268936833420BD06B1CFAD0FEF7C3
:104C3000E5FBC01B8542F4D82000FFF7BDFF00282C
:104C400001D10020F8BD2023626D0320134363656A
:104C5000F8E7000070B504000120002C37D00023D5
:104C60002500A36251352B78DBB2002B05D1220041
:104C7000503213702000FEF79FF902234022216872
:104C80002B700B68A06893430B606368A2690343B1
:104C9000E06803432069034360690343E069034319
:104CA000206A0343A06A034380208000104003432E
:104CB0000B600423120C1A40636A00201A434A60F6
:104CC000CB69034A1340CB61012360652B7070BD33
:104CD000FFF7FFFFF0B51E000300503317001A78EE
:104CE000040085B00D000220012A00D199E00122C4
:104CF0001A70FEF783FB2300019051331B78616823
:104D0000DBB2012B0CD0822202205200914200D053
:104D100080E0A268002A00D07CE0042B00D079E07B
:104D20000120002D76D0002F74D0002E72D02300E9
:104D300051331A78042A01D005221A700023402228
:104D40006365236463642368E687E6861868A7635F
:104D5000A6872563A686104202D1186802431A600E
:104D60008022E068120190425DD1002901D0012E1D
:104D700007D12A880235DA60E38E2563013B9BB2B6
:104D8000E386012502272E00E38E002B15D1E38F49
:104D9000002B12D1019A0A992000FFF73DFF00284D
:104DA00000D086E0A368002B34D123680390DA6832
:104DB00003929B680393039B2CE0226893683B4219
:104DC0000ED0E38E002B0BD0012D09D10025236BD3
:104DD00019880233D1602363E38E013B9BB2E386E3
:104DE000936833420CD0E38F002B09D03500D26892
:104DF000A36B1A800233A363E38F013B9BB2E3876B
:104E0000FEF7FCFA019BC01A0A9B8342BCD801330F
:104E1000BAD003202300012251331A7000235034EA
:104E2000237005B0F0BD002901D0012E08D12A78E9
:104E30001A73236B01332363E38E013B9BB2E3863A
:104E4000012502272E00E38E002B02D1E38F002BD9
:104E5000A0D023689A683A420FD0E28E002A0CD084
:104E6000012D0AD10025226B12781A73236B0133AE
:104E70002363E38E013B9BB2E38623689A68324248
:104E80000DD0E28F002A0AD03500DB68A26B1370C8
:104E9000A36B0133A363E38F013B9BB2E387FEF770
:104EA000ADFA019BC01A0A9B8342CCD80133CAD009
:104EB000AFE7202301206365ACE700008022036890
:104EC000D205904208D0154A904205D0144A90422B
:104ED00002D0144A904214D1702293434A6813437B
:104EE0008022D205904208D00C4A904205D00C4A4C
:104EF000904202D00B4A904203D10B4A1340CA6839
:104F00001343802293430A69134303608B68C3628F
:104F10000B688362012343617047C0460004004070
:104F20000008014000140140FFFCFFFF70B50400C1
:104F30000120002C14D0250039352B78DBB2002B52
:104F400005D12200383213702000FEF733F9022316
:104F500020682B70211DFFF7B1FF012300202B706B
:104F600070BD0000F0B5040002223834257803003B
:104F70001000012D17D01D0001271B68393527703F
:104F80002A709A68454802409A600A68402A00D10F
:104F90006DE014D8102A0BD006D8002A08D00123BF
:104FA00000202B702070F0BD202A01D0302AF6D1CD
:104FB00070219868884369390A4302433DE0602ABA
:104FC0003DD017D8502AEAD14868CA68196A1E6AC3
:104FD0001201BE43F0271E629E69BE4332430A2679
:104FE000B14301439A61196270219A688A431100A2
:104FF000572221E0702A12D0802080018242CED137
:105000009A6827484E6810408A68C9683243090286
:105010000A4302439A6080229968D2010CE09A68A0
:105020001F484E6810408A68C968324309020A4323
:1050300002439A60772299680A439A60AFE7102684
:10504000186A4A68B043C96818629E69154F090317
:105050003E403143A026186A99617021B043120185
:1050600002431A629A688A4311006722E4E748689B
:10507000CA68196A1E6A1201BE43F0271E629E6941
:10508000BE4332430A26B14301439A61196270213B
:105090009A688A4311004722CEE7C0468800FFFF86
:1050A000FF00FFFFFF0FFFFF70B50400022238343E
:1050B000257803001000012D13D01D0070261868FC
:1050C00039352A7042688368B2430E6849683243B2
:1050D0008026B3430B4342608360012300202B7082
:1050E000207070BD036807491A680A401A609A6800
:1050F0002331FF318A439A602023836700230366AC
:105100007047C046DFFEFFFF70477047F8B5036881
:105110000400DA6918689E6811070AD120210A4242
:1051200000D16AE0084268D0236E2000002B5AD1DB
:105130005AE0012135000D4003D190277F0038420D
:105140005BD00A4205D0C60503D51962E66F31432C
:10515000E16702210A4206D0002D04D01962E66FF1
:1051600049183143E16704210A4206D0002D04D0DA
:105170001962E66F02393143E167110708D58106EC
:1051800001D4002D04D008211962E36F1943E167AF
:10519000E36F002B28D020231A4206D0184204D0F7
:1051A000236E002B01D0200098472368E56F9B6891
:1051B00020005B0602D408231D401AD0FFF792FF9F
:1051C000402123689A680A420FD09A68E06E8A43A9
:1051D0009A60002809D01A4B8363FEF7C5FA0028AD
:1051E00002D0E06E836B9847F8BD2000FFF78DFF7B
:1051F000FAE7FFF78AFFE567F6E7802149030A42ED
:1052000006D0750204D51962200010F0CBFFEBE741
:1052100080210A4203D0084201D0636E85E7402115
:105220000A42E1D00842DFD01A6820008A431A609F
:105230002023636700236366FFF766FFD4E7C04659
:1052400045520008806A0023020010B55A321380CC
:10525000083A1380FFF759FF10BD0000F8B50400AD
:105260002569A26803682A436569C1692A431868E9
:10527000814D0A43284002431A605A687F48804D96
:105280000240E06802435A60A069AB4201D0226A42
:1052900010439A687B4E324002439A607A4A9342A6
:1052A00014D10322794BDB6C1340794AD05C802304
:1052B0001B02994200D09EE0082800D998E0FAF736
:1052C00023FF636B6E978F9797979200714A934273
:1052D00007D10C226D4BDB6C1A406D4B9B18187973
:1052E000E5E76D4A934200D1B4E06C4A934200D1A5
:1052F000B0E0AB4200D0B8E0C0218020634A090191
:10530000D36CC0000B4083423BD003D8002B0AD0A3
:1053100001250DE08020000183420ED08B42F7D1A1
:105320008020000210E0FEF79FFF0025A8420BD16D
:105330000023280023666366F8BD1068584BC0063A
:10534000C0171840574BC018032263685A43824263
:10535000DED81A038242DBD30027020E01025E0868
:1053600089197A41080011001A003B00FBF7D8F8B0
:105370004D4BC2184D4B9A42CAD823683D00D860A5
:10538000D6E7FEF7F1FBD0E7FEF76EFF636840005B
:105390005B08C01861680BE0FEF776FFF6E71025A2
:1053A0003A4B61681A684808154006D0404BC0184F
:1053B000FAF7C8FE002583B204E03E4BC018FAF7A6
:1053C000C1FE83B219003C4810398142A0D80F2198
:1053D00018001B0788435B0F21680343CB60A7E7D6
:1053E000FEF7C2FBD2E76368580880235B02D0E770
:1053F00001250023E6E708283BD8FAF785FE2F05AC
:10540000083A233A3A3A2600FEF73EFF28E01025F4
:105410001E4B61681A68480815400DD0274BC0180C
:10542000FAF790FE002583B2190023481039814213
:1054300000D96DE72168D1E71A4BC018FAF782FE50
:1054400083B2F1E7FEF790FB0AE063685808802317
:105450001B0207E080231B02994295D0FEF704FF50
:1054600063685B08C0186168DAE780231B02994211
:10547000BED001250023D7E7F369FFEFFFCFFFFF81
:1054800000480040FFF4FFFF0038014000100240D8
:10549000C571010800440040004C0040005000402D
:1054A00000E548FF0024F40000FDFFFFFFFC0F00B3
:1054B00000127A000048E801EFFF000000093D00FB
:1054C000436A30B5DA0706D50168284C4A6822409D
:1054D000846A22434A609A0706D50168244C4A68C8
:1054E0002240C46A22434A605A0706D50168214C0B
:1054F0004A682240046B22434A601A0706D50168B5
:105500001D4C4A682240446B22434A60DA0606D5A5
:1055100001681A4C8A682240846B22438A609A068A
:1055200006D50168164C8A682240C46B22438A6003
:105530005A0610D50168134D4A68046C2A4022436C
:105540004A6080225203944205D14A680E4C2240A0
:10555000446C22434A601B0606D502680B49536817
:105560000B40816C0B43536030BDC046FFFFFDFF15
:10557000FFFFFEFFFFFFFBFFFF7FFFFFFFEFFFFFD0
:10558000FFDFFFFFFFFFEFFFFFFF9FFFFFFFF7FFC3
:10559000F8B504000E0015001F002268D3693340DF
:1055A0009B1B59424B41AB4201D000201BE0069BA4
:1055B0000133F3D0FDF722FF069BC01B984201D8B0
:1055C000002BEAD1236808491A6803200A401A60B0
:1055D0009A68A331FF318A439A6020236367A367E7
:1055E000002370342370F8BD5FFEFFFFF0B587B075
:1055F0000593436F04000D0017000220202B49D1B2
:105600000138002946D0002A44D08023A2685B01DB
:105610009A4204D12369002B01D101423AD12300DF
:1056200070331A780220012A34D0012200261A7021
:105630002123E6676367FDF7E1FE230050331F80F7
:10564000023303931F808023A26804905B019A4277
:1056500004D12369B34201D12E001D00230052332F
:105660001A88059B92B20093049B002A0AD140211C
:105670002000FFF78DFF00280BD1202370346360DA
:10568000207007E0002280212000FFF781FF002822
:1056900002D0032007B0F0BD2268002D0BD1338863
:1056A0000236DB05DB0D9362039B039A1B88013BEB
:1056B0009BB21380D2E72B7801359362F4E70000A8
:1056C00073B500260400C667FDF798FE2368050041
:1056D0001B681B0715D423681B685B070AD580214C
:1056E0000E4B00220093C9032B002000FFF750FF50
:1056F000002811D1202300206367A3677034207035
:105700000BE08021054B3200009389030300200049
:10571000FFF73EFF0028DED0032076BDFFFFFF012C
:1057200010B5041E01D1012010BD436F002B04D120
:10573000020070321370FDF767FD242301212268F7
:105740006367136820008B431360FFF787FD012810
:10575000E9D0636A002B02D02000FFF7B1FE236876
:1057600007495A6820000A402A215A609A688A43E9
:105770009A60012219680A431A60FFF7A1FFD3E774
:10578000FFB7FFFF7FB505000291039270352B78BC
:10579000040002AE0220012B30D0242301382870EF
:1057A000636723681A6882431A609A681548024042
:1057B0000A439A6000290CD110225968B0799143AC
:1057C000B2880006114359605A681202120A024355
:1057D0005A60012219680A431A60FDF70FFE802102
:1057E000094A03000092C90300222000FFF7D0FEFF
:1057F000002805D12023636700232B7004B070BDFF
:105800000320F9E7FFFFCFFFFFFFFF0102000223A4
:1058100010B57032147801001800012C05D0096809
:105820000868034300200B60107010BD30B5294C90
:1058300087B0230046331978A21D002927D0002203
:105840001A700323E37002332371230047331B785C
:105850006371230048331B78A37101236370E078E0
:1058600001A903F001FB02AD00281DD000232B701D
:10587000AB60AB81AB7320004C300CF049FB2800CF
:1058800003F058FF431E9841C0B207B030BD6378A3
:10589000012B02D0042BE2D1DFE70223E370D38F88
:1058A0001A0A22716371DAE723004A331B78E17820
:1058B000E020221D002B04D12B702871A981AA6041
:1058C000D8E701232B7080231B012871A981AA60CE
:1058D000EB81D0E73C02002010B5FFF7A7FF10BD19
:1058E000014B18787047C0463C020020024B06333B
:1058F000DA8F0132DA8770473C020020064B012123
:105900001A00463211701A00017A47321170427A39
:1059100048331A707047C0463C020020F0B5644C12
:105920008BB0257802000E00002D48D1037B042B9C
:105930003FD183681A78012A3BD15A78012A38D19D
:105940009A78012A35D1DF78012F32D123004A33EA
:105950001D70A31DDD87230046331D7023004733D0
:105960001D70230004AE0132483330001D70E27018
:1059700032702770677003F0D9FA230032796433EC
:105980001A70022230003270377103F0A5FB280034
:1059900025004C3503F08AFF464928000CF0AEFA8A
:1059A000454928000CF00EFBFFF740FF2378002B41
:1059B00003D120004C300CF0E3FA0BB0F0BD83684B
:1059C000187860700728F1D8FAF79EFB0415181EA6
:1059D0002432384C0023A21D04A8D387237002333D
:1059E0000370230064331B78037103F075FB0120FF
:1059F00003F05CFFDAE70223E370D7E7220001231C
:105A00004A3213706370D1E7230000224A331A70C0
:105A10000123F7E7157B042222710022E570013291
:105A2000D1B28D42C2D9985CA11801300871F6E755
:105A3000032304A8037003F0B3FDB7E70025A31DFB
:105A4000DD87022304A80370230064331B782570CC
:105A5000037103F041FB6B461D7001AB07CE07C31A
:105A60006846E8E7127B032A0AD104A801320270D3
:105A70005A789B7812021343838003F091FDC7E7A5
:105A8000072AC5D104A8023A027059789A78090207
:105A90000A438280DA781979120409020A43597993
:105AA0000A4364214A4382609B790373E5E7C04659
:105AB0003C020020D9580008881300000122014B45
:105AC0001A727047A402002010B50FF0F5FFFA22F9
:105AD0000123D20090420BD9064AFD33904207D8E9
