:020000040800F2
:10000000005000207D820108B5320008B732000898
:1000100000000000000000000000000000000000E0
:10002000000000000000000000000000B9320008DD
:100030000000000000000000BB320008BD320008D4
:10004000CD820108CD820108C5320008CD820108A9
:10005000CD820108DD320008CD820108ED320008B2
:10006000CD820108CD820108CD820108CD82010830
:10007000CD820108CD820108CD820108CD82010820
:10008000CD820108CD820108CD8201080000000068
:10009000CD820108CD820108CD820108CD82010800
:1000A000CD820108CD820108CD820108CD820108F0
:1000B00001330008CD82010800000000CD82010854
:1000C00010B5064C2378002B07D1054B002B02D02E
:1000D000044800E000BF0123237010BD200200206F
:1000E00000000000A48E0108044B10B5002B03D0C3
:1000F0000349044800E000BF10BDC04600000000F6
:1001000024020020A48E010802B471464908490067
:10011000095649008E4402BC7047C04602B471467D
:1001200049084900095C49008E4402BC7047C0463A
:1001300003B47146490840004900095E49008E44F5
:1001400003BC704703B47146490840004900095A8E
:1001500049008E4403BC7047002243088B4274D38D
:1001600003098B425FD3030A8B4244D3030B8B42B8
:1001700028D3030C8B420DD3FF22090212BA030CC1
:100180008B4202D31212090265D0030B8B4219D3A2
:1001900000E0090AC30B8B4201D3CB03C01A5241C2
:1001A000830B8B4201D38B03C01A5241430B8B420A
:1001B00001D34B03C01A5241030B8B4201D30B03F3
:1001C000C01A5241C30A8B4201D3CB02C01A52411A
:1001D000830A8B4201D38B02C01A5241430A8B42DD
:1001E00001D34B02C01A5241030A8B4201D30B02C6
:1001F000C01A5241CDD2C3098B4201D3CB01C01AE0
:10020000524183098B4201D38B01C01A52414309E9
:100210008B4201D34B01C01A524103098B4201D3D7
:100220000B01C01A5241C3088B4201D3CB00C01A44
:10023000524183088B4201D38B00C01A52414308BC
:100240008B4201D34B00C01A5241411A00D20146E1
:10025000524110467047FFE701B5002000F0F0F86A
:1002600002BDC0460029F7D076E7704703460B432E
:100270007FD4002243088B4274D303098B425FD39F
:10028000030A8B4244D3030B8B4228D3030C8B42CB
:100290000DD3FF22090212BA030C8B4202D31212B1
:1002A000090265D0030B8B4219D300E0090AC30B86
:1002B0008B4201D3CB03C01A5241830B8B4201D333
:1002C0008B03C01A5241430B8B4201D34B03C01A1C
:1002D0005241030B8B4201D30B03C01A5241C30A94
:1002E0008B4201D3CB02C01A5241830A8B4201D305
:1002F0008B02C01A5241430A8B4201D34B02C01AEF
:100300005241030A8B4201D30B02C01A5241CDD293
:10031000C3098B4201D3CB01C01A524183098B42DE
:1003200001D38B01C01A524143098B4201D34B01C7
:10033000C01A524103098B4201D30B01C01A52412A
:10034000C3088B4201D3CB00C01A524183088B42B1
:1003500001D38B00C01A524143088B4201D34B009A
:10036000C01A5241411A00D201465241104670470C
:100370005DE0CA0F00D04942031000D34042534011
:1003800000229C4603098B422DD3030A8B4212D3D1
:10039000FC22890112BA030A8B420CD38901921103
:1003A0008B4208D3890192118B4204D389013AD040
:1003B000921100E08909C3098B4201D3CB01C01A15
:1003C000524183098B4201D38B01C01A5241430928
:1003D0008B4201D34B01C01A524103098B4201D316
:1003E0000B01C01A5241C3088B4201D3CB00C01A83
:1003F000524183088B4201D38B00C01A5241D9D29B
:1004000043088B4201D34B00C01A5241411A00D21B
:100410000146634652415B10104601D34042002B17
:1004200000D54942704763465B1000D3404201B596
:10043000002000F005F802BD0029F8D016E770474B
:100440007047C0468446101C62468C46191C6346A1
:1004500000E0C0461FB501F0A9FB002801D400212F
:10046000C8421FBD10B501F001FB4042013010BD74
:1004700010B501F09BFB002801DB002010BD01201E
:1004800010BDC04610B501F091FB002801DD002031
:1004900010BD012010BDC04610B501F023FB00289F
:1004A00001DC002010BD012010BDC04610B501F0D8
:1004B00019FB002801DA002010BD012010BDC04644
:1004C0008446081C6146FFE71FB500F013FA0028B8
:1004D00001D40021C8421FBD10B500F095F940427B
:1004E000013010BD10B500F005FA002801DB002036
:1004F00010BD012010BDC04610B500F0FBF900286A
:1005000001DD002010BD012010BDC04610B500F077
:10051000A3F9002801DC002010BD012010BDC04659
:1005200010B500F099F9002801DA002010BD012073
:1005300010BDC046002B15D1002A13D1002906DBBF
:1005400001DC002806D00020C043410802E08021E1
:100550000906002007B4024801A14018029003BD1B
:10056000E1FEFFFF03B4684601B5029800F030F9E0
:10057000019B9E4602B00CBC7047C046002B11D1B7
:10058000002A0FD1002900D1002802D00021C94340
:10059000081C07B4024802A14018029003BDC046DF
:1005A000A1FEFFFF03B4684601B5029800F04EF8C3
:1005B000019B9E4602B00CBC7047C046F0B5CE46CB
:1005C000474615042D0C2E0080B50704140C3F0C73
:1005D0009946030C7E435D43674363437F19340CA4
:1005E000E4199C46A54203D980235B029846C44483
:1005F0004B4643435143250C36046544360C2404D2
:10060000A4195B19591820000CBC90469946F0BDFE
:1006100070B500220C4B04000D00FFF747FF0028C7
:1006200004D12000290002F0E3F870BD064B00223F
:100630002000290001F094FD02F0DAF880231B0667
:100640009C466044F1E7C0460000E041F0B54F46EB
:100650004646D646C0B5040082B00D009146984685
:100660008B422FD82CD04146484602F0D3F92900BE
:100670000600200002F0CEF9331A9C46203B9A4631
:1006800000D576E04B46524693401F004B466246EB
:1006900093401E00AF4228D825D05346A41BBD412D
:1006A000002B00DA7BE0002200230092019301235B
:1006B000524693400193012362469340009318E011
:1006C0008242D0D900220023009201930A9B002B82
:1006D00001D01C605D600098019902B01CBC90467E
:1006E0009946A246F0BDA342D7D90022002300922A
:1006F00001936346002BE9D0FB07984641467208F8
:100700000A437B0866460EE0AB4201D1A2420CD8F8
:10071000A41A9D41012024196D410021013E241895
:100720004D41002E06D0AB42EED9013E24196D4159
:10073000002EF8D100980199534600196941002B09
:1007400023DB2B005246D3402A006446E2401C00C3
:1007500053461500002B2DDB26005746BE403300C4
:1007600026006746BE403200801A994100900191F0
:10077000ACE7624620239B1A4A46DA4061461300E2
:1007800042468A4017001F4380E7624620239B1A97
:100790002A0066469A402300F3401343D4E762469A
:1007A000202300219B1A0022009101920122DA40AD
:1007B000019280E72023624626009B1ADE402F002C
:1007C000B0466646B74046463B003343C8E7C0469E
:1007D000F0B583B016001F000090019102F026F9D9
:1007E00004000D0002000B0030003900FFF7E6FEA8
:1007F000009A019B121A8B41089920000A604B60F5
:10080000290003B0F0BDC04670B542004E024C0056
:1008100045026D0A120EC30F760A240EC90FFF2A75
:100820000FD0FF2C11D00120A24200D070BDB542E4
:10083000FCD18B420DD0002AF8D12800451EA841DA
:10084000F4E70120002DF1D1EBE70120002EEDD1DE
:10085000E9E70020EAE7C04670B54A004E024502CB
:1008600044006D0A240EC30F760A120EC90FFF2C26
:1008700015D0FF2A0ED0002C15D1002A01D1002E50
:100880001CD0002D14D08B4227D00220013B1840F1
:10089000013870BD002EEED002204042F9E7002D55
:1008A000FAD1FF2A0ED0002A0ED1002EEDD00BE097
:1008B00001230139994308000130EAE70020002DA7
:1008C000E7D0E2E7002EE7D18B42DED1944205DD8E
:1008D0000221581E08400138DBE70024A24204DC54
:1008E000B542D2D80020B542D3D2581E0123984336
:1008F0000130CEE730B5420044024D02C30F48003C
:10090000640A120E6D0A000EC90FFF2A12D0FF28CA
:100910000CD0002A12D1002819D1002D17D1002C9B
:100920002BD00220013B1840013826E0002DF0D0EA
:10093000022022E0002CFBD1FF281FD000281FD16D
:10094000002D1DD10220013B1840013815E0002C7C
:100950000ED08B42E5D10022904204DCAC42E0D8BC
:100960000020AC4209D2581E01239843013004E014
:100970000123013999430800013030BD002DD7D142
:100980008B42CED18242E7DD0221581E0840013859
:10099000F3E7C046F8B54746CE464400C20F80B5DF
:1009A00047024802400A8446664648007F0A240EF1
:1009B000F60025009046FB00000EC90FB146FF2847
:1009C00000D185E001267140261A914257D0002EB1
:1009D00043DD002800D07FE04946002900D1AAE08D
:1009E000013E002E00D0F7E05B1A5A0100D48BE0E4
:1009F0009B019C09200001F0EFFF053884408542EF
:100A000000DDD3E0451B230020200135EB40451BD2
:100A1000AC40621E94412343072400251C40012260
:100A200041460A40002C04D00F211940042900D06F
:100A30000433590100D480E00135ECB2FF2D00D021
:100A4000A3E0FF2400235B02E405580AD2072043F9
:100A500010430CBC90469946F8BD002E74D1601C22
:100A6000C0B2012800DCA7E04A469C1A620100D50A
:100A7000B6E0002CBED1002200240023E3E7002EC4
:100A800000DC85E0002846D0FF2C49D08022484673
:100A9000D2041043814601221B2E09DC20204C4643
:100AA000801B84404A462000F240441EA04102437D
:100AB0009B185A0128D50135FF2D00D1A8E001224D
:100AC000072494491A405B080B4013431C40A6E7D7
:100AD000002E00D078E775E7FF2C54D080224946DD
:100AE000D2041143894601221B2E09DC20214846ED
:100AF000891B88404A460100F240481E81410A4352
:100B00009B1A5A0100D573E7012241460A40590752
:100B100000D089E711E04846002858D1FF2C0CD1BD
:100B2000DB08002B00D18CE78020C00303435B026D
:100B30005B0AFF2487E7FF2C25D0DB08FF2DF0D0D0
:100B40005B025B0AECB27EE7002C4DD0FF2818D088
:100B50008024E404724223431B2A00DDC4E01C000D
:100B60002025D440AA1A93405A1E934123434A4653
:100B70000500D31A884638E7721CF8D0F243FF28E4
:100B8000EAD10A004B46FF25D7E79B015B0A5AE7EB
:100B9000002E41D1651CE9B2012945DDFF2D00D1B0
:100BA0004FE707244B445B081C4038E707225A4BA9
:100BB0002D1A2340144032E7002C1DD1002B7AD18E
:100BC0004B46002B00D191E00A000025B5E7013E1D
:100BD000002E19D14B446CE7FF2C84D1FF25ACE7E4
:100BE0004A468846D41A05E7002BC5D10A00FF28DB
:100BF000C8D005004B46A0E7002B49D14B46002B3F
:100C000077D00A00FF2598E7FF2C00D043E787E75D
:100C10000A00FF24002316E7002C15D1002B57D122
:100C2000FF28E6D14B467BE7002C20D1002B57D084
:100C30004946002953D04B445A0168D50724364A07
:100C40001C4001251340EAE6FF28EBD08022D204A5
:100C5000764213431B2E53DC2025AD1B1A00AB40FC
:100C6000F2405C1EA34113434B44050021E7002BD7
:100C7000D8D04946002900D152E78021C9030F424C
:100C800000D14DE76046084200D049E74B4647E7B0
:100C90004846FF25002800D14FE78022D2031742A3
:100CA00004D06046104201D14B468846012241469D
:100CB000FF250A4041E7484600281FD01A1A500174
:100CC00020D54A460724D31A1C4088460025A6E6AC
:100CD000741CC9D0F643FF28BCD14B4620E7994687
:100CE0004B460025DB082BE7012340E700220023C9
:100CF000A9E680230022DB03FF24A4E600251CE7ED
:100D00000123B1E7002AF1D013000025FCE60025FD
:100D1000FAE6C046FFFFFF7DFFFFFFFB70B500282E
:100D20003DD0C317C5185D40C40F280001F054FE24
:100D30009E22121A962A07DCD2B2082833DD083820
:100D400085406802400A23E0992A0BDD052329002B
:100D50001B1AD94003001B339D402B005D1EAB4185
:100D600019430D00052801DD431F9D402B000F494D
:100D70000B406E0709D00F263540042D05D00433F3
:100D80005D0102D59F220B40121A9B01580AD2B274
:100D90004002D205400AE4071043204370BD0024FE
:100DA00000220020F4E76802400AF1E7FFFFFFFBA2
:100DB00070B5041E34D001F00FFE9E22121A962A3E
:100DC00007DCD2B208282EDD083884406002400AD1
:100DD00021E0992A09DD030021001B3399404B1EB5
:100DE000994105231B1ADC400C43052801DD431FF4
:100DF0009C4023000D490B40650709D00F252C406E
:100E0000042C05D004335C0102D59F220B40121A3A
:100E10009B01580AD2B24002D205400A104370BD6D
:100E200000220020F7E76002400AF4E7FFFFFFFB23
:100E3000F0B54F464646D6460C000903C0B5490AF0
:100E4000470F5E0039431F03DB0F9C4665007B0A9A
:100E5000570F1F436D0DE40F760DA146C000B84635
:100E6000D200AB1B64457BD0002B5FDD002E00D091
:100E7000A4E03E00164300D112E15E1E002E00D019
:100E80009EE1871A4346B84280410125C91A404273
:100E9000091A0B0200D431E149024E0A002E00D19A
:100EA0006EE1300001F098FD0300083B1F2B00DDD0
:100EB00061E120223900D21A9E40D1409F400E436A
:100EC0009D4200DD51E15D1B6B1C1F2B00DD7CE1B1
:100ED0002021C91A3D0030008F408840DD40791E36
:100EE0008F41310007222843D940002507433A406B
:100EF000002A09D00F233B40042B05D03B1DBB42E9
:100F0000BF417F42C9191F000B0200D426E26A1CB0
:100F1000C64B55056D0D9A4200D106E1C44AFF0843
:100F20000A40530752023B43120B8EE0002B00D0C5
:100F3000B8E06B1C5B055B0D012B00DC30E1871A10
:100F40004346B842B641CB1A76429E1B330200D5C7
:100F50004CE13B003343A1D100220024002570E086
:100F6000002B00DCE5E0002E00D183E0AF4EB5425F
:100F700060D0802636043743B846382B00DC3EE18B
:100F8000434613431F007A1E97413F188742804112
:100F9000404209180B0200D4B0E0A44B01359D4239
:100FA00000D1C3E0A24A7B080A4001210F401F4341
:100FB0005108D30707221F433A4099E79B4EB54299
:100FC00038D0802636043743B846382B00DDDCE0C5
:100FD0001F2B00DC30E11E004746203EF740BC4698
:100FE000202B04D04026F31A46469E403243170079
:100FF00063467A1E97411F43CCE0002B00D104E2E8
:101000004346134300D159E14B07C00818438023DE
:10101000C9081B03194208D04546ED081D4204D1FA
:101020004346D008590708432900420FC9007F4DA5
:101030001143C0004B07CA087C49C00803438D42D6
:1010400068D012036D05120B6D0D002112031800FC
:10105000130B0A0D12051A43764B2D0513402B4333
:101060005B00E4075B08234319001CBC90469946CB
:10107000A246F0BD3E00164312D05E1E002E00D0E8
:1010800000E1871887428041414440420918012508
:101090000B0233D5022585E7644633004146100034
:1010A0001D00C7E7002D00D0DAE00C000443F3D0A8
:1010B0005C1C00D19FE15D4CA64200D12FE1DB43D7
:1010C000382B00DD66E11F2B00DD83E120240500C5
:1010D000E41A0F00DD40D940A0404346A7405B1A08
:1010E000441EA04198462F433843171ABA429241F2
:1010F00043465242991A64463500CAE607223A40EE
:10110000002A00D0F6E64B07CA084849FF083B43CF
:101110008D4296D11900114300D19EE1802109032F
:101120000A431203120B414D8FE7150000220023E2
:101130008BE7002B00D0C7E06B1C5F057F0D012FF4
:1011400000DCF1E0394DAB4200D1B9E085180A006E
:10115000854289414244494251180722CF076D0810
:101160002F4349083A401D00C2E607223049ED1AD4
:1011700031403A40BCE63E002838864000279FE6D2
:10118000380001F029FC20308EE6434613431F004F
:101190007A1E9741C71BB84280414042091A78E63F
:1011A0000E003B0006431343002D61D1002E00D0FA
:1011B000F4E0002B00D11BE164463900100039E750
:1011C0001A4FBB427AD03300FFE630001F3DE840A3
:1011D000202B03D04021CB1A9E4037437B1E9F41DA
:1011E000072207433A400021002589E7171A4346A2
:1011F000BA42B641591A76428E1B64464EE61F2B00
:1012000000DDADE020264746F61AB740B946170084
:10121000B246DF404E463E4337005646B240561E69
:10122000B24117434246DA408918AEE6FF07000094
:10123000FFFF7FFFFFFF0F8020264746F61AB740CB
:10124000B9461700B246DF404E463E433700564689
:10125000B240561EB24117434246DA40891A99E716
:101260007F4CA6425BD0802424045B42214327E7C5
:10127000002E0CD1002B00D1CBE0644639001000C9
:10128000774DD7E6764FBB4218D0330075E6002B7A
:1012900014D04B07C00818438023C9081B03194208
:1012A00007D0FC081C4204D17907D0080843E14666
:1012B00021004C46420FC9001143C000684DB9E6F9
:1012C0001D0000220023C0E6002D5BD10D00054368
:1012D00000D1E2E65D1C00D1B0E0614DAE421FD00E
:1012E000DB43382B71DC1F2B00DD96E020250F003F
:1012F000ED1AAF40B9460700AA46DF404D463D43D0
:101300002F005546A840D940451EA84188440743B0
:10131000BF18974292415142414435003AE6644633
:1013200035004146100085E60B000343002D00D038
:1013300063E6002BF5D04346134300D17AE68718C5
:101340008742804107224144404209183A400B023B
:1013500000D4D5E6434B01351940C9E5380069E6AC
:101360001E004746203EF740BC46202B04D04026B6
:10137000F31A46469E403243170063467A1E974151
:101380001F4302E6364DAE42CAD080252D045B4293
:101390002943A6E70843411E8841A6E6002B00D159
:1013A00048E6871A4346B842B641CB1A76429E1B9E
:1013B00033024BD5171A4346BA429241591A524248
:1013C000891A072264463A4092E501430F00791ECC
:1013D0008F419DE71C000F00203CE740202B03D0ED
:1013E0004024E31A99400843411E884138437CE673
:1013F0000022002425E6171A4346BA429241591AA0
:101400005242891A6446350043E541461000144DA6
:1014100010E680220024120380E61D000F00203D0C
:10142000EF40BC46202B03D04025EB1A99400843DF
:1014300007006346781E87411F4369E78718974274
:101440009B4141445B42C9183500A3E53B0033434F
:10145000CED0072231003A4052E600231A00F4E5CC
:10146000FF070000FFFF7FFFF0B55746DE464E4600
:101470004546E0B5834607000E03480085B0924616
:101480001C00360B400DCD0F002800D19DE0954B80
:10149000984239D08023F6001B041E43924A7B0FEA
:1014A0003343994694460300634400930023002687
:1014B000FF00029323031B0B98466300E40F524680
:1014C0005B0D019400D1B3E086498B4200D19EE0D0
:1014D0004246D100802212040A435146490F11436B
:1014E0008B46814952468C4600996344CB1A0021B1
:1014F000D20000932B0063409A460F2E00D905E1DD
:101500007A4BB6009B599F465B463343994600D0C1
:10151000B8E002230826002700900293CAE7CB46D2
:101520003A0002990195019B9A46022927D0032986
:1015300000D180E2012944D06D49009B8C46634470
:101540001C00002C38DD530700D013E2D2085B46A4
:10155000DB0109D55946674B19408B468021C900EC
:101560008C46009B63441C00634B9C4207DC5B463B
:1015700064055F075B0217431B0B620D02E000234B
:101580000027584A00211B031C0B0B0D1B0523438E
:1015900014055A4A380013401C4353466400DB07C5
:1015A00064081C43210005B03CBC90469946A24605
:1015B000AB46F0BD0122524201231B1B382B00DC3D
:1015C000ADE1002200230027DCE75B463343994668
:1015D0005ED0002E00D18AE1300001F0FDF9030059
:1015E0000B3B1C2B00DD7BE11D22D31A5A46010068
:1015F000DA4008398E4013005F46334399468F40E6
:101600003F4B00261B1A00930023029352E74146EA
:1016100053460B433B499B468C46009B63440093D7
:101620005B46002B3BD1022300221E43022161E7CF
:10163000434613439B4637D04346002B00D162E11B
:10164000404601F0C9F903000B3B1C2B00DD53E1C0
:1016500002004146083A914088461D21CB1A514666
:10166000D9400B0041460B439B46534693401A001A
:10167000009B25499C46604403008C4663440093CC
:10168000002137E70323B14600900C26029311E7AF
:101690000023009301330426002702930AE7032363
:1016A000C3461E43032125E701331E4300220121C7
:1016B00020E700239A46802300271B03094A61E79D
:1016C000802349461B03194200D1E2E059461942E2
:1016D00000D0DEE00B431B0317001B0BA246014AA0
:1016E00050E7C046FF07000001FCFFFF909901088A
:1016F000FF030000FFFFFFFEFE070000FFFF0F805B
:101700000DFCFFFF01F8FFFFF3030000D94500D9EE
:10171000CBE000D1C6E03C0048460027009B013BDF
:1017200000935B46160E1B021E43130298463304B9
:101730001B0C9946310C0191FEF794FD4A46424339
:101740000B04210C050019438A4207D98919013D70
:101750008E4203D88A4201D9851E8919881A0199B7
:10176000FEF780FD09048C464A4621046446424344
:10177000090C030021438A4204D98919013B8E4296
:1017800000D8F1E02D041D43AB464346891A42467A
:10179000280C12041D0C5B46140C22001B041B0CAD
:1017A0005A4303946B434443029568431B19150C39
:1017B000EB189C4203D980246402A44660441C0CAC
:1017C00015041B042D0C20185D19814277D373D0AA
:1017D0000C1AA24A7D1BAF42BF419446009B7F4238
:1017E0006344E01B1C00864200D1DBE00199FEF758
:1017F00039FD4A4642430B04290C070019438A422B
:1018000007D98919013F8E4203D88A4201D9871E20
:101810008919881A0199FEF725FD09044A46894667
:1018200029044D464243090C030029438A4207D943
:101830008919013B8E4203D88A4201D9831E891936
:101840003F04891A3A00039F1A43380013041B0C03
:10185000584381460298150C6F434343454348461D
:10186000000C8446DB1963449F4203D98020400268
:101870008446654448461F0C00041B04000C7D1977
:101880001818A94200D284E000D17FE001231A4356
:1018900057E680234A461B0313431B031B0BAA4630
:1018A0006F4A6FE6BA4200D935E74B46DC07580865
:1018B0007B081C43FF0734E70024AF4289D247442A
:1018C0004745A4415B466442A4196418013BA64203
:1018D0001ED2A0426DD800D1B6E0241A9B4678E70C
:1018E00003005A46283B9A400027914688E658460E
:1018F00001F072F8203072E603005246283B9A400D
:1019000093460022B4E6504601F066F820309AE68D
:10191000A642E2D1B845DCD9341A9B4659E71F2BC1
:1019200065DC504C0099A4465C46614408008C403C
:1019300011008240D940501E82410C4314435A4644
:10194000DA401300620709D00F222240042A05D092
:101950002200141D9442894149425B181A0262D543
:101960000122002300270DE68A4200D80AE7831EE1
:10197000891907E70F231340042B00D1E6E5171D53
:101980009742924153429B44FA08E0E5002800D177
:10199000D7E57118531EB14227D3A94215D358D0A9
:1019A0001A0073E7002B00DC04E6012300229B44AD
:1019B000CDE502234744474589415B429C46494265
:1019C00089190C19E344241A03E743465F0047458D
:1019D0009B41B8465B429E19023A8919A94200D040
:1019E00054E7404500D051E7ABE51A00F6E71F2168
:1019F0005F4649420C1BE740202B07D01A49009B49
:101A00008C46634418005B4683401A43501E824153
:101A10003A4307270023174009D00F210023114024
:101A20001400042995D122005F075B021B0BD2082A
:101A300017430022A6E5802359461B030B431B03D3
:101A400017001B0B064A9DE5BD42B2D89B460024F9
:101A5000BFE68045B9D31A00C3E7C046FF030000C4
:101A6000FF0700001E0400003E040000F0B54F46D2
:101A70004646D6468446C0B58046194E18030F0325
:101A80004D00000B5C0082463F0B6D0DC90F914667
:101A9000640DDB0F0120B5420AD0B44203D0A54249
:101AA00001D157450CD01CBC90469946A246F0BDCA
:101AB00066463E43F7D1AC42F5D154461443F2D1C9
:101AC0000120C845EFD1994207D0002DEBD16346E4
:101AD0001F433800471EB841E5E70020E3E7C04652
:101AE000FF070000F0B54F464646D6464D00C0B54C
:101AF0000E03C90F8A462C491F035C008046360B33
:101B00006D0D91463F0B640DDB0F8D421ED08C4254
:101B100016D0002D1ED130438446002C01D13A430B
:101B200023D06246002A1AD09A4529D05146022075
:101B30000139084001381CBC90469946A246F0BDC8
:101B400039001143E5D002204042F4E73043FAD196
:101B5000AC420FD0002C0FD13A43E7D00CE0012269
:101B6000013B934318000130E5E763460020002B5A
:101B7000E1D0DBE73A43E6D19A45D7D1A542D5DC9F
:101B8000A54205DBBE42D1D808D00020BE42D2D249
:101B900050460123013898430130CCE7C845C5D8E9
:101BA0000020C845F4D3C6E7FF070000F0B54F4654
:101BB0004646D6464D00C0B50E03C90F8A462E498B
:101BC0001F035C008046360B6D0D91463F0B640D84
:101BD000DB0F8D4218D08C4211D0002D18D130432C
:101BE0008446002C1ED13A431CD163460020002BB2
:101BF00030D0514602200139084001382AE039002E
:101C00001143EAD0022025E03043FBD1AC4226D07C
:101C1000002C26D13A4324D15146022001390840F4
:101C2000013817E06246002A0FD09A45E1D1A5425B
:101C300005DBBE42DDD819D00020BE420AD2504694
:101C4000012301389843013004E00122013B934312
:101C5000180001301CBC90469946A246F0BD3A439C
:101C6000D0D19A45C5D1A542C3DCE0E7C845C0D86C
:101C70000020C845E3D3EDE7FF070000F0B5574665
:101C8000DE464E464546E0B5834606000F03480053
:101C900087B092461D003F0B400DCC0F002800D1AD
:101CA0006FE0DE4B984238D08023FF001B041F43B7
:101CB000730F3B430193DA4B0027994600239B4661
:101CC000F60081442B0369001B0B52469846490DD0
:101CD000ED0F002900D185E0D04B994200D173E08F
:101CE0004346DA0080231B0413435246CC48520F6C
:101CF00084461343524600206144D20089442100A7
:101D0000694000918C46012149448A460F2F00D931
:101D100090E0C449BF00CF59BF465B463B430193A7
:101D200000D06AE102230827002681469B46C9E7C6
:101D300032005846019B61460091022800D175E0AF
:101D4000032800D1FEE1012800D02CE10023002768
:101D5000002600253F032A0D3F0BB34812053A43E6
:101D600002401B051343009A5B00D1075B080B433D
:101D70003000190007B03CBC90469946A246AB46DD
:101D8000F0BD5B463B43019300D12FE1002F00D112
:101D9000A5E1380000F020FE03000B3B1C2B00DD0A
:101DA00096E11D22D31A5A460100DA405E460839F0
:101DB0008F4013008E403B4301939C4B00271B1A1E
:101DC000994600239B467DE7414653460B43934982
:101DD0008C46E144002B00D01AE102220220174376
:101DE00000228CE7134300D10DE14346002B00D1C4
:101DF00081E1404600F0F0FD02000B3A1C2A00DDB4
:101E000072E10100434608398B4098461D239A1A17
:101E10005346D3401A004346134352468A4049462C
:101E2000081A824989468144002068E77B4B0027D5
:101E300000268EE7140C1204120C1100370C360425
:101E4000350C794328008C462E006043604483465D
:101E500056432100300C8046584679434044029155
:101E6000844506D98846802149028C46E044414693
:101E700002913604010C360C00048B4681191E0CAD
:101E80001B041B0C0391190079438C4628007543F1
:101E90006544A8465843050C45447743A94203D9F5
:101EA000802149028C466744290C8C463900000485
:101EB000000C2D042D186144AB4405915946049142
:101EC00001990F043F0C080C3900514342439046DE
:101ED00002008C46090C8B4662437C4344445C44BC
:101EE000A04503D98021490288464244210C8846F6
:101EF00061460904090C8C46390059434343704339
:101F00007E430F0CF6182404BE19644442448C46E8
:101F1000B34203D980235B0298464044029B61464A
:101F20009846049B370443449B46AB45AD416B4206
:101F30000D0405992D0C8C467F196744FD18A846A1
:101F40005D462D19A542A44193466442A446C3446C
:101F5000DC448F42BF4198459B4193459241A44543
:101F6000A4415B427F421F43360C52426442BF1978
:101F70002243BF18624638184302D20D0399134317
:101F80006A020A43501E82416146ED0D2A434E0209
:101F90003243D90100D4B3E0012650083240024355
:101FA000DE0732435B08224C5444002C62DD5107AB
:101FB00009D00F201040042805D0101D90429241F6
:101FC00052429B180200D90104D580241948E4002C
:101FD000034054441848844200DD27E75E075B0253
:101FE000D2081F0B630516435B0DB2E6002399462A
:101FF0000133042700269B4664E6032301978146AC
:102000000C279B465EE6012201201743002276E65C
:10201000032303201F43434671E6C046FF07000029
:1020200001FCFFFFD0990108FFFF0F800DFCFFFFAF
:10203000FF030000FFFFFFFEFE07000000238027D4
:1020400000933F030026434B83E6019B3200A446E6
:10205000584670E6AC466EE6802701993F03394248
:102060002DD03B422BD11F433F033F0B0095160061
:10207000384B6EE601252D1B382D00DD66E61F2D41
:1020800040DC35481C005044160082408440EE403D
:10209000501E824134431443EB40620709D00F22A3
:1020A0002240042A05D02200141D9442804140425F
:1020B0001B181A023ED501230027002649E6802777
:1020C000019B3F031F433F033F0B0094214B40E61E
:1020D00003005A46283B9A40002601926DE6584676
:1020E00000F07AFC203057E603005246283B9A4025
:1020F0001300002293E6504600F06EFC20307BE691
:10210000CA4650E71F201E004042041BE640202D17
:1021100003D0124C5444A3401A43501E8241324310
:1021200007260027164009D00F2000231040140076
:102130000428B9D122005E075B021F0BD2081643A8
:10214000002306E680273F031F433F033F0B160093
:10215000004BFEE5FF0700001E0400003E040000E7
:10216000F8B557464E464546DE460C000903E0B535
:10217000490A460F5F0031431E03DB0F760A9B4678
:10218000530F3343C84E6500C000E40FD2006D0DFD
:10219000A24681467F0D9C469046B74200D1B9E0E9
:1021A0005B46012673409B46EE1BA34500D183E0AE
:1021B000002E63DD002F00D0B1E06346134300D151
:1021C00023E1731E002B00D0BAE1861A6346B042A9
:1021D00080410125C91A4042091A0B0200D447E187
:1021E00049024B0A98464346002B00D189E14046FC
:1021F00000F0F2FB0300083B1F2B00DD7CE12022F6
:102200003000D21A4146D040994002009E400A4315
:102210009D4200DD6AE15D1B6B1C1F2B00DD94E11C
:10222000202110003500C91A8E40DA408840DD4078
:10223000711E8E41110007222843002506433240BB
:10224000002A09D00F233340042B05D0331DB3429D
:10225000B641764289191E000B0200D43DE26A1C89
:10226000914B55056D0D9A4200D119E18F4AF60840
:102270000A40570752023743120B9BE0002E00D052
:10228000C5E06E1C7605760D012E00DC48E1674640
:10229000861ACB1BB042BF417F42B8461F0043465F
:1022A000FF1A3B00B8461B0200D55FE137439AD1C5
:1022B00000220024002579E0002E00DCFAE0002F47
:1022C00000D18DE0784B9D4267D0802367461B0488
:1022D0001F43BC46382E00DC52E1634613435A1EAE
:1022E00093411E1886428041404209180B0200D4D7
:1022F000BEE06D4B01359D4200D1D2E06B4A7308C0
:102300000A4001210E401E435108D30707221E43F5
:10231000324095E71E00164300D045E740E7624B88
:102320009D423AD0802367461B041F43BC46382E8B
:1023300000DDEBE01F2E00DC3AE133006746203B76
:10234000DF403B00202E05D04027BF1B6646BE4025
:10235000324390464646721E96413343DAE0002BE4
:1023600000D114E26346134300D168E180234E0795
:10237000C008C9081B030643194208D06046C008BC
:10238000184204D163460100D2085E071643F300E9
:102390009946C900720F444D11434B46DE08424B2B
:1023A0004F073743CA089D4200D16EE012036D0506
:1023B000120B6D0D00211203130B0A0D12051A43A7
:1023C0003B4B2D0513402B435B00E4075B08234385
:1023D000380019003CBC90469946A246AB46F8BD71
:1023E0006346134311D0731E002B00D007E18618FB
:1023F0008642804161444042091801250B0237D5CD
:1024000002257BE73E00614691463500C5E75C4604
:10241000002D00D0E1E00B000343F3D0731C00D18A
:10242000ACE1214B9F4200D13AE1F343382B00DD70
:102430006FE11F2B00DD8CE120250E00ED1AAE4070
:10244000B0460600AA46DE40454635432E005546B6
:10245000D940A8406346451EA8415B1A9C463043BC
:10246000161AB242924163465242991A3D00B4E6AE
:1024700007223240002A00D0E4E60B4BF6084F0753
:102480003743CA089D4200D090E73B00134300D178
:10249000A6E180231B031A431203120B024D89E7A6
:1024A00015000022002785E7FF070000FFFF7FFFE0
:1024B000FFFF0F80002E00D0C7E06B1C5E05760D7D
:1024C000012E00DCF0E0C84DAB4200D1B9E0851828
:1024D0000A00854289416244494251180722CE07C9
:1024E0006D082E43490832401D00A9E6BF49ED1A88
:1024F000114007223240A3E63200283882400026ED
:1025000086E6300000F068FA203073E66346134335
:102510005A1E9341C61AB04280414042091A5CE6F5
:102520000E00674606431743002D5ED1002E00D0F3
:10253000F3E0002F00D11EE15C46614691462CE796
:10254000A94FBE427BD01E00F1E610001F3DE840BF
:10255000202B03D04021CB1A9A401643731E9E4174
:102560000722064332400021002583E7161A6346FE
:10257000B2428041591A40420B1A98465C4632E6F4
:102580001F2E00DDABE02027BB1B9A466346574653
:10259000BB40994613004F46F3401F433B0057464C
:1025A000BA40571EBA4113436246F240891898E672
:1025B0002027BB1B9A4663465746BB4099461300EB
:1025C0004F46F3401F433B005746BA40571EBA419F
:1025D00013436246F240891A9CE7834B9F425FD0C7
:1025E00080252D047342294320E7002E0CD1002FB3
:1025F00000D1D0E05C46614691467B4DCDE67A4FF6
:10260000BE421CD01E0065E6002F18D0C0084E0741
:1026100006438020C9080003014208D06346DC0855
:10262000044204D12100DA46D2085E071643F300C3
:10263000994601245346C900720F11431C406A4D4C
:10264000ABE61D0000220027B4E6002D59D10B0097
:10265000034300D1D6E6731C00D1B2E0624B9F4227
:102660001ED0F343382B6FDC1F2B00DD97E02025B5
:102670000E00ED1AAE40B0460600AA46DE404546C2
:1026800035432E005546A840D940451EA8418C44EC
:102690000643B61896429241514261443D0025E6F8
:1026A0003D006146914678E60B000343002D00D0C3
:1026B00055E6002BF5D06346134300D16DE686182E
:1026C0008642804161444042091800220B0200D436
:1026D000D0E6464B01351940B2E5B1465DE6330020
:1026E0006746203BDF403B00202E05D04027BF1B24
:1026F0006646BE40324390464646721E964133437C
:10270000EFE5394B9F42CBD080252D0473422943FE
:10271000A8E70843411E8841A2E6002F00D13CE60D
:102720006346861ACF1AB0429B415B42FB1A984619
:102730001B024ED5161A6346B2429241591A5242B2
:10274000891A5C4600227BE501430E00711E8E4112
:102750009FE71D000E00203DEE40B046202B04D028
:102760004025EB1A99400843814648464346411E9E
:102770008841184374E60022002417E6161A6346BF
:10278000B2429241591A5242891A3D0025E56146EA
:102790009146154D01E680220024120379E61D00C2
:1027A0000E00203DEE40B046202B04D04025EB1A11
:1027B0009940084381464E464346711E8E411E4352
:1027C00067E7861896429B4161445B42C9183D0009
:1027D0008CE547463743CED007224146324049E692
:1027E00000273A00E6E5C046FF070000FFFF7FFF35
:1027F00030B5144D0A034B00120B5B0DC90F0024BA
:10280000AB4211DD104CA34210DC80246403224350
:102810000E4CE41A1F2C0CDD0D48C31ADA401300CD
:102820005C42002900D11C00200030BD094BCC18AF
:10283000FAE7094DE040AC4663449A401300034375
:10284000EEE7C046FE0300001D0400003304000054
:1028500013040000FFFFFF7FEDFBFFFF70B50028B2
:102860002DD0C317C5185D40C40F280000F0B4F880
:10287000154B1B1A5B055B0D0A2815DD0B388540CF
:1028800000222D032D0B002110002D030A0D2D0B0E
:1028900012052A430D4D1B052A4013435B00E40734
:1028A0005B082343190070BD0200290015329140D6
:1028B0000A000B21081AC5402D032D0BE3E7002465
:1028C000002300250022DEE71E040000FFFF0F802A
:1028D00010B5041E25D000F07FF8144B1B1A5B05C1
:1028E0005B0D0A2812DD0B38844000222403240BE0
:1028F0000021100024030A0D240B120522430C4C66
:102900001B05224013435B00590810BD0200210043
:10291000153291400A000B21081AC4402403240BED
:10292000E6E7002300240022E2E7C0461E04000080
:10293000FFFF0F804100090E4B1C70B5DBB2460251
:10294000750AC40F012B14DDE0239B006D07360BC5
:10295000CB1800210A0D280012051C4D32435B05DF
:102960002A405B0813435B00E4075B08234319001C
:1029700070BD002914D1002D1ED0280000F02CF8C5
:102980000A281CDC0B232A001B1ADA40030015332B
:102990009D400F4B12031B1A5B05160B5B0DD8E70E
:1029A000002D06D0320B802636036D071643094BE7
:1029B000CFE7084B0026CCE700230026C9E7030039
:1029C0002A000B3B9A400025E3E7C046FFFF0F803B
:1029D00089030000FF0700001C2101231B0498420B
:1029E00001D3000C10391B0A984201D3000A0839A0
:1029F0001B09984201D30009043902A2105C401857
:102A00007047C046040302020101010100000000FA
:102A10000000000010B5002903D1FFF7DDFF2030D2
:102A200002E0081CFFF7D8FF10BDC046F0B54E46C7
:102A30005746DE464546E0B50F00002183B006004C
:102A40008946002F06DA3900002746428F410121CE
:102A500049428946002B07DA4946C9431000894696
:102A60001900002342428B4134003D0092469846B3
:102A7000BB4269D866D041465046FFF7CBFF83463C
:102A800039003000FFF7C6FF5B461B1A9C46203B0F
:102A90009B4600D575E05146584681400B00514693
:102AA000604681400A00BB4261D85ED034003D00E0
:102AB0005946A41A9D41002900DA7AE0002100203D
:102AC00001260090019159468E40019661460126EB
:102AD0008E4061460096002950D0D90756085F08FD
:102AE0000E4363460EE0AF4201D1A6420CD8A41BB0
:102AF000BD41012124196D410022013B641855415B
:102B0000002B06D0AF42EED9013B24196D41002BBA
:102B1000F8D1009801995B4600196941002B3DDB13
:102B20002E00DE4063462C00DC405B46002B4BDB76
:102B300034005D46AC4023006446A6403200801A53
:102B4000994103E0B24296D9002000214B46002B68
:102B500004D003000C0000215842A14103B03CBC4A
:102B600090469946A246AB46F0BDB1429ED900219F
:102B700000200090019161460029AED10098019992
:102B8000E4E72023624651469B1AD9404046009113
:102B900061468840030000990B4380E7624620238A
:102BA0009B1A2A009A40260013006246D6401E4314
:102BB000B8E7614620260127761A00200021F74059
:102BC00000900191019781E7674620236246350016
:102BD000BC409B1ADD4023002B43ADE70023C25CC1
:102BE0000133002AFBD1581E7047000013B508229C
:102BF0000021684615F03CFD8022194C194BD20586
:102C000062600122236000232261A218D377A21CF4
:102C1000D377C222FF32626222002C321370042268
:102C20002000E363A360A363E360A36262612363A4
:102C3000A3616363E36101F01BF8002801D000F099
:102C4000F1F9094B69460093802320005B01019351
:102C500001F0E6F8002801D000F0E4F913BDC04609
:102C6000142300200024014000000448054B0268A2
:102C70009A4205D18023044A9B00516B0B43536356
:102C80007047C0460024014000100240F0B5012604
:102C900002278BB01422002105A815F0E9FC0420BE
:102CA0004B4B4C4DDA6A00243243DA62DA6A324026
:102CB0000192019ADA6A3A43DA62DA6A3A40029297
:102CC000029AD96A0143D9628021DA6A0240A020BF
:102CD0000392039ADA6AC0050A43DA62DB6A0022C9
:102CE0000B4004933C49049B01F01CFA280000228D
:102CF000402101F017FA00220721384801F012FAAA
:102D0000A020374B05A9C0050593089706960794A0
:102D100001F04EF9A42305A9280005930694079411
:102D200001F046F913232F4F05A9280005930697B4
:102D3000079401F03DF9402305A928000593069664
:102D40000794089401F034F9802305A99B012348D6
:102D500005930697079401F02BF9A0200322224B3C
:102D600005A9C005069207270593079401F020F9ED
:102D7000022305A91948089305970696079401F0C0
:102D800017F9C023A0209B0005A9C005059306964E
:102D90000794089401F00CF9C02303221B0105A934
:102DA000280005930692079401F002F92200210001
:102DB000052001F089F8052001F0B0F8220021007B
:102DC000380001F081F8380001F0A8F80BB0F0BD30
:102DD0000010024000040050029300000008005060
:102DE0000290000000001110310C00001FB50120FE
:102DF000184BD96A0143D962DA6A02400092009AFC
:102E0000D96A00180143D962DA6A02400192019A34
:102E1000D96A02300143D9628021DA6A0240029203
:102E2000029ADA6A01300A43DA620022DB6A0B4056
:102E300003931100039B01F047F8052001F06EF8A1
:102E400000220720110001F03FF8072001F066F88A
:102E500005B000BD0010024010B5134B134C012209
:102E60002360134B200063600023E260A3602361B2
:102E70006361A361E361236201F080FA002801D05D
:102E800000F0D0F80021200001F0FCFB002801D068
:102E900000F0C8F80021200001F01AFC002801D041
:102EA00000F0C0F810BDC046005400407023002060
:102EB000BB7C700010B5040086B01422002101A86C
:102EC00015F0D6FB104B22689A421AD102210F4C02
:102ED0000F48E26A0A43E262E36A0B400093009BF8
:102EE000C0239B000193122302930F3B049301A97B
:102EF0000133059301F05CF88023A26B9B0313431D
:102F0000A36306B010BDC04600540040001002404C
:102F1000000400500748084B10B5036006234360C7
:102F2000064BC360836001F0F7FB002801D000F07E
:102F300079F810BDBC23002000300040FF0F0000D6
:102F400070B580259CB0382200210EA815F090FBAA
:102F500014220021684615F08BFB0021242205A8CD
:102F600015F086FB1D4A1E4C13682D0123402B4390
:102F7000136001F005FC1B4A0126136D0EA81C40CE
:102F80000E2314650E93F2331093F03B12930E3B15
:102F9000189380231B031A93802300241B041B9384
:102FA00011961396199401F065FC0F2331000093DC
:102FB00068460C3B019302940394049401F0E2FEF2
:102FC0002E230593263B0893802305A85B020995D1
:102FD0000A94069301F0AEFF1CB070BD0070004073
:102FE000FFE7FFFF0010024010B500F0F1FDFFF712
:102FF000A7FFFFF74BFE00F035F800F0B1F800F046
:10300000D1F8FFF787FFFFF7F1FD00F0AFF9FFF709
:1030100023FF00F0F1F900F00BFA13F0D5FF13F0E5
:10302000FBFFFCE77047000010B5024814F038F9C8
:1030300010BDC0465800002010B5054813F048FCEC
:103040008021044A4900044814F050F810BDC046DD
:10305000109A0108293000081027000010B513F05D
:10306000B5FE10BDF0B5002591B001AF14220021CE
:10307000380006AE15F0FCFA282229003000009531
:1030800015F0F6FA274C284B200023607F23A3601D
:1030900080336560E36025616561A561E56102F0EB
:1030A0008DF8A84201D0FFF7BDFF3D80BD70002222
:1030B00039002000FD603D6102F0E8F8002801D0F1
:1030C000FFF7B0FF194B002269462000009302F081
:1030D0005DF9002801D0FFF7A5FFF0231B05B361C0
:1030E000192301216B44D977802300225B00310032
:1030F00020003280B2707260F26032617261F261FF
:10310000736202F0AFF9002801D0FFF78BFF0022B5
:103110002000110002F0C2FA002801D0FFF782FF60
:1031200011B0F0BDCC2300200028004001010100B7
:10313000094B026810B59A420DD18023074ADB0281
:10314000116D02200B4313650022110000F0BCFE3C
:10315000022000F0E3FE10BD0028004000100240F5
:103160000E480F4B10B50360822380225B00436042
:10317000002392008261E13A8360C360036143618E
:10318000FF3A0362436283620733C261C36202F0A3
:10319000A7FB002801D0FFF745FF10BD4824002001
:1031A000003001400C480D4B10B5036082235B00DA
:1031B000436000238360C360036143618361C36133
:1031C0000362436283620733C36202F089FB002813
:1031D00001D0FFF727FF10BDF0230020003800408A
:1031E00030B5040089B01422002103A815F040FA7C
:1031F0002368254A93422CD180220224234B52017A
:10320000596B03250A4301215A63DA6A2048224395
:10321000DA62DA6A22400092009ADA6A0A43DA62D3
:10322000DB6A04940B400193019B082303A90393D9
:10323000069500F0BDFEC023A02003930023049454
:1032400005930695079303A9C00500F0B1FE09B0E8
:1032500030BD104A9342FAD180220C4BD201996BB7
:103260000B480A439A630222D96A1143D962DB6A86
:1032700003A913400293029BF0231B020393032331
:1032800004920693E1E7C04600300140001002407E
:1032900000040050003800400122054B596B0A43DE
:1032A0005A638022996B52050A439A637047C0465D
:1032B000001002407047FEE77047704710B514F0E9
:1032C0002DFF10BD10B5044C200001F011FF2000AF
:1032D00002F09CFA10BDC046CC23002010B501209E
:1032E00000F026FF022000F023FF10BD10B51020D3
:1032F00000F01EFF8020800100F01AFF10BD0000CA
:1033000010B5024802F048FD10BDC0465C25002003
:103310008022104B520019680A431A60DA680E497D
:103320000A40DA601A680D490A4001211A609A6859
:103330008A439A601A680A490A401A60DA68094999
:103340000A40DA6000221A618022074B12059A6057
:103350007047C046001002400C40FF88F6FFF6FEA2
:10336000FFFFFBFFFFFF02FF00ED00E010B586B09E
:103370001022002102A815F07BF9082200216846DE
:1033800015F076F9134C144B200023600023636082
:10339000A360E3602361636102F00EFC002801D0AA
:1033A000FFF740FE802302A95B012000029302F098
:1033B0001FFC002801D0FFF735FE002369462000DE
:1033C0000093019302F0B6FC002801D0FFF72AFE1B
:1033D00006B010BDA024002000080140044B026884
:1033E0009A4204D10423034A516B0B435363704741
:1033F00000080140001002400B480C4B10B5036060
:10340000E1235B0243600C22002342618360C360BE
:10341000036183610362436202F0C8FF002801D0A8
:10342000FFF700FE10BDC046DC240020004800402D
:103430000B480C4B10B5036096239B0143600C2294
:10344000002342618360C36003618361C3610362DF
:10345000436202F0ABFF002801D0FFF7E3FD10BD8F
:103460005C2500200044004010B5040088B0142200
:10347000002103A815F0FCF82368244A93421DD1CB
:103480008022234BD202996BA0200A4301219A6328
:10349000DA6AC0050A43DA62DB6A0B400193019BDA
:1034A000C023DB010393022304935B18069303A953
:1034B0000333079300F07CFD08B010BD154A93421A
:1034C000FAD18022124B9202996BA0200A4301216B
:1034D0009A63DA6AC0050A43DA62DB6A0B40029338
:1034E000029B0C2303930A3B04935B1806935B181F
:1034F00003A9079300F05CFD00221C20110000F0DE
:10350000E3FC1C2000F00AFDD6E7C046004800405E
:10351000001002400044004010B50300012916D1FC
:1035200003780C003F2B10D10931304811F0F0FB2B
:103530002F4811F0EDFB2F4811F0EAFB2E4811F057
:10354000E7FB2E4811F0E4FB0024200010BD01240D
:103550000529FAD900784D28F7D158784328F4D1B5
:1035600098783A28F1D118793A28EED1D8783038BD
:103570000428EAD8FCF7D2FD030C141C2400062909
:1035800004D0581D13F092FD1D4B58741D48D9E707
:103590000629FBD0581D13F089FD194B9874F5E7E7
:1035A0000629F3D0581D13F081FD154BD874EDE7B3
:1035B0000629EBD0581D13F079FD114B1875E5E77E
:1035C0005B79302B06D100240D4B0E485C7511F051
:1035D0009FFBBAE7312B03D10122094B5A75D5E77E
:1035E000094811F095FB0224AFE7C0461D9A010877
:1035F0004B9A0108829A0108BA9A0108F39A0108C5
:1036000018270020279B01082C9B01081048114B0C
:1036100010B50360104B43600023836011F070FD10
:103620000E4B5B7D002B10D100F0A2FA0021002090
:103630000B4B00221860596019002831DA601A61BA
:103640009A601A750A705A8510BD00F09DFAEDE770
:103650003C02002019350008993700083027002067
:10366000E0250020FA22F8B53C4C00232068616870
:103670009200FCF783FF0100394811F049FBE16833
:10368000384811F045FB2169374811F041FBA1682A
:10369000364811F03DFB217D354811F039FBA76913
:1036A00034493800FCF7E2FD0A256843642106002E
:1036B0003800FCF7DBFDFA21361889003800FCF7EA
:1036C000D5FD320001002C4811F022FBFA21E769F8
:1036D00089003800FCF740FD642106003800FCF743
:1036E0003BFD2A0072433100821A244811F010FB7E
:1036F000276A64213800FCF72FFD290006003800F6
:10370000FCF72AFD2A0072433100821A1C4811F08E
:10371000FFFAFA21676A89003800FCF71DFD0600F0
:1037200064213800FCF718FD75433100421B154831
:1037300011F0EEFA230028331978134811F0E8FA53
:10374000618D124811F0E4FA1821114B11481A78D2
:1037500051432031C91811F0DBFAF8BDE0250020F3
:10376000319B0108519B01086D9B01088C9B01084E
:10377000A89B010818FCFFFFBF9B0108DB9B010809
:10378000F99B01081A9C0108379C0108509C01080C
:10379000580000206F9C0108012310B5994204D104
:1037A00002783F2A03D0732A09D0180010BD0648BA
:1037B00011F0AEFA054811F0ABFA0023F5E7FFF778
:1037C00051FF0348F7E7C046889C0108969C010812
:1037D000279B0108044B054A02201A6114221A751E
:1037E00000225A757047C0463027002001030A06A0
:1037F00010B5074B074A5B7D527D9A4203D0002BE0
:1038000003D100F0B5F9002010BD00F0BDF9FAE7D2
:10381000182700203027002070B504000A25017CFD
:103820000F4811F075FA617C0E48694311F070FA87
:10383000A37C617C0C485943694311F069FAE17C2F
:103840000A4811F065FA237D617C094859436943B0
:1038500011F05EFA617D074811F05AFA70BDC0465A
:10386000B19C0108CA9C0108E49C0108FD9C010868
:10387000159D0108309D010801207047D0B513F057
:1038800079FDFA220D4C9200266867680023801BA0
:10389000B941FCF773FEFA218900414300230A0075
:1038A000B6185F41E368266067601B18E360236910
:1038B0001B182361A3681818A060D0BDE025002064
:1038C00007B5110015481A0013F002F8FFF79EFE25
:1038D0001349202013F00AFA002010F0F3FE00280C
:1038E00003D000210F4812F055FE002002F0F0FD39
:1038F000002803D000210C4812F04CFE684613F05B
:103900005FF900236A46D25C002A01D007480EBD49
:103910000133082BF6D10120F9E7C0464D9D01087F
:1039200004000020020000E0030000E0048000002A
:1039300070B5194B194C5A7C0A235343A2689A421A
:1039400006D2283423780420012B00D1023870BD20
:1039500013F010FD00250100114812F0B9FF114AC3
:1039600011491248A56011F03FF8A84203D0290080
:103970000F4812F00FFE0F4802F0D8FD002803D0C8
:1039800000210D4812F006FE230028331B78012B7E
:10399000D7D10A48DBE7C04630270020E0250020C9
:1039A0005E9D0108FC25002000260020F82500204F
:1039B000020000E004260020030000E00380000075
:1039C00070B51B4D2E0028363478002C03D0022C05
:1039D0001BD0022004E013F097F8002801D0042047
:1039E00070BD13F077F8012806D12B00012228338F
:1039F0001A7000236B85ECE76B8D01339BB26B85EE
:103A0000142BECD902233370E9E70A494B7C0A7D79
:103A10005A430A2353432A699A42E0D900232B616F
:103A200013F058F80128E0D06B8D0133E2E7C0466F
:103A3000E025002030270020F0B5B5B013F064F881
:103A4000002805D113F046F80225280035B0F0BD56
:103A50000025434C6421A0690895FCF707FC8023EE
:103A600009AE08AF14AA30806721019300971300B4
:103A70002800320012F080FFFA21E0694900FCF7CB
:103A80006BFB802314AA3070682101930097130008
:103A90000120320012F070FF206A0A21FCF75CFB63
:103AA000802314AA30807321019300971300022011
:103AB000320012F061FFFA21606A8900FCF74CFBCA
:103AC0008023308032000193009714AB65210320DE
:103AD00012F052FF234B20219A7C5E7CE76856430C
:103AE0000A22564315326A44117003921E220CA812
:103AF0006A440490029205955B79089901932B0022
:103B0000BE426B41C9B200930122062314A813F0F0
:103B10000AFA0138062897D8FCF7F6FA0C0A0404CA
:103B2000961D2000104812F0D3FE002323758BE76A
:103B3000257589E7B74202D9237D01332375237D9B
:103B400002252834062B00D87FE70021074825707E
:103B500012F020FD79E728340225F6E7032574E703
:103B6000E0250020302700206B9D01080400002084
:103B7000802110B54900002013F0A9FE802100200B
:103B8000890013F09BFE10BD802110B54900002074
:103B900013F094FE80210020890013F098FE10BDE0
:103BA000FA210A4B70B5890005001868FCF7D4FAB1
:103BB00000F0BEF904000120002C05D102382200DB
:103BC000290000F081F9200070BDC04600000020EF
:103BD0004023084A10B5116800200B431360FFF71B
:103BE000DFFF041E03D1FFF757FB200010BD0124A7
:103BF000FBE7C04600200240014B18687047C046F2
:103C00001026002070B50400FFF7F6FF631C5A1E53
:103C100093410500E418FFF7EFFF401BA042FAD3E1
:103C200070BD00000221024A13688B431360704785
:103C300010E000E00223024A11680B431360704752
:103C400010E000E0084B13B5040008491868FCF7C1
:103C500083FA44430194019B002B00D113BD019BC7
:103C6000013B0193F7E7C0460000002040420F00EF
:103C700070B504000120002C19D0636D002B06D113
:103C800022005032A36520001370FEF7EFFF636D32
:103C9000DB0604D4042223689868104008D010235F
:103CA000626D01201343636500235034237070BD9F
:103CB000626D5549114002220A43626503229968E8
:103CC0001140524A012902D11D680D4219D18026A6
:103CD0006168F6054D006D08B54203D080252D06BC
:103CE000A94276D11D69AD00AD081D611D6929434A
:103CF00019611825D968A943D960D968A5682943ED
:103D0000D9601168424D29401160616B1568490600
:103D100029431160802299685205114202D19968A5
:103D20000A439A60DA683B490A402169DA60DD6833
:103D3000E268022900D10420266B611C32432A4329
:103D4000A569C97FAD032A43E569ED032A434D0305
:103D50002A4325002C352D786D002A430243C220CA
:103D6000DA60626AFF30824204D0A56AD8682A43CA
:103D70000243DA60A21CD27F012A06D1002934D185
:103D80008022D96852020A43DA60E16B1A6901297C
:103D900033D12148656C02401A61226C18692A43AC
:103DA000A56C2A4302431A611A691143196107215C
:103DB0005A6900208A435A615A69A16B0A435A61C1
:103DC0000322A065636D93431A00012313436365C7
:103DD0006DE71D69114EAD00AD081D6115683540D8
:103DE000156015682943116083E72021606D014348
:103DF0006165A16D0A43A265C7E701210A42D6D0D9
:103E00001A698A431A61D2E7FDFEFFFF08270140C5
:103E1000FFFFFFFD1902FEFF03FCFFFFFFFFC3FFD3
:103E2000F8B504005034237806000D000220012B61
:103E30000BD032680138916820704B0706D52022DC
:103E4000716D0A43726500222270F8BD80232868D4
:103E5000194E6F684103DB02490B0340B74219D08A
:103E6000906A01439162002B08D08023134A1B04FF
:103E700011680A200B431360FFF7E4FE2B689B03D5
:103E800005D580230D4ADB0311680B431360002026
:103E90002070DAE7956A8D439562002B04D0074ABB
:103EA000074913680B4013608303F0D5034A0549A3
:103EB00013680B40EAE7C0460110000008270140E4
:103EC000FFFF7FFFFFFFBFFF30B5FF2503242A0060
:103ED000C3B21C40E400A24089012940D243A14062
:103EE00000280BDA0F200340083B0A489B089B0080
:103EF0001B18D86902401143D96130BD064B8008B8
:103F00008000C018C0239B00C45822401143C150F8
:103F1000F3E7C04600ED00E000E100E01F23184099
:103F20001E3B8340014A13607047C04600E100E039
:103F3000094A431E012093420DD8C021074A084870
:103F40005360036A09061B021B0A0B43036200202D
:103F50000723906013607047FFFFFF0010E000E050
:103F600000ED00E070B5841DE37F022B04D0042334
:103F7000C363033B180070BD0E210368456C1A68CB
:103F80008A431A6001221968914319601C232B404F
:103F900015009D40016C431D4D60E2770024826B4B
:103FA000DC771300A242E5D090472300E2E700004F
:103FB000F0B5544A0B688218541EA24187B003938F
:103FC000002305320592039ADA4001D107B0F0BD13
:103FD00001259D40039A2A40029200D18FE04A6851
:103FE00001921022019E9643022E0FD1DA08920010
:103FF00007248218176A04920F221C40A400A240D2
:1040000097430A69A2401743049A176203225C008F
:10401000A240013ED243012E0DD8CE688768A6404B
:1040200017403E4386604668AE43019DED06ED0FA6
:104030009D40354345600326019D07683540A540F6
:1040400017403D430560C5682A408D68A5402A4356
:10405000C260019AD20052D501252B4CAC46626B4E
:104060000F272A431D003540AD00AF406263274A49
:104070009C08A400A418A268BA43A0270492FF05D4
:104080000022B84210D0224F6246B8420CD0214FD5
:104090009218B84208D0204F3200B84204D01F4EC8
:1040A0006244B04200D0059AAA40049D019F2A4371
:1040B000A2601B4A029C1668029DE4433543FF033D
:1040C00001D43500254015605668029D019F354397
:1040D000BF0301D43500254055609668029D019FBD
:1040E0003543FF0201D4350025409560D568029E16
:1040F000019F2E43BF0201D425402E00D66001331C
:1041000061E7C04600E4FFAF00100240000001403C
:104110000004005000080050000C00500010005037
:1041200000040140002A01D0816170478162FCE7F0
:10413000044B10B55A69104202D0586113F0E0FBED
:1041400010BDC0460004014003689A69920701D57A
:1041500000229A6201229969114202D199690A43A7
:104160009A61704730B5039C1204006822431343E0
:10417000054A45688905640D890D1443A5430B4321
:104180002B43436030BDC046FF63FF03F8B50368AF
:104190000400986910230E001700184020250028FD
:1041A00018D1F8BD721C16D0FFF726FDC01BB04217
:1041B00001D8002E0ED12022636C134363642300C8
:1041C00041331A7022000023423240341370012020
:1041D0002370E6E723689A692A42E3D01022200080
:1041E000DA61DD61FFF7B0FF2268064953680B40D2
:1041F00053600423626C13436364230041331D70D6
:10420000E0E7C04600E800FEF8B504000D00170026
:10421000042623689B69334211D13A00290020000B
:10422000FFF7B4FF00281AD1202123689A690A42B7
:1042300017D09A69324204D0228D002A01D0002082
:10424000F8BD2021D9615A680E4802405A60220008
:104250000023413263641170403453702370012095
:10426000EEE7FFF7C9FCC01BA84201D8002DD0D152
:104270002022636C13436364230041331A7040347B
:104280000023EBE700E800FEF8B504000D0016007F
:10429000202723689B693B4201D00020F8BD3200F3
:1042A00029002000FFF772FF002813D1FFF7A4FCBC
:1042B000801BA84201D8002DEBD12022636C134350
:1042C0006364230041331A702200002342324034D9
:1042D000137023700120E1E7F8B504000E00170009
:1042E0001D002268936933409B1B59424B41BB42DE
:1042F00001D0002017E06B1CF4D0FFF77DFC069B7B
:10430000C01AA84201D8002DEBD12022636C0120F5
:1043100013436364230041331A70220000234232A6
:10432000403413702370F8BDF8B504000D0016007A
:10433000022723689B693B4201D00020F8BD320070
:1043400029002000FFF722FF002815D16B1CF0D0B8
:10435000FFF752FC801BA84201D8002DE9D1202292
:10436000636C13436364230041331A7022000023FB
:1043700042324034137023700120DFE770B504002F
:104380000120002C3FD0250041352B78DBB2002BDB
:1043900005D12200403213702000FEF78BFD24234C
:1043A00001212B702368E0681A68A6688A431A60A6
:1043B00061681A4A0A401A619968194A114099605D
:1043C000012821D18021090231439960586815499B
:1043D00001435960D96800200A40DA6061692269A6
:1043E0000A43A16909020A43DA60216AE2690A43C1
:1043F0001A60012219680A431A60202360642B7036
:1044000020634234207070BD8421090231439960D9
:104410000228DBD1802109015960D7E7FFFFFFF0B7
:10442000FF7FFFFF00800002F0B5050087B0039119
:104430000492059341352B7804000220202B14D1DF
:10444000230040331A78012A0FD001261E70FFF78F
:10445000D3FB8021070000901923320009022000BD
:10446000FFF73AFF002802D0012007B0F0BD21235A
:104470002B702500113B42352B70049B60646362F6
:104480006B469B8A60636385628D304BFF2A21D91E
:10449000FF222285009380235B0403992000FFF70D
:1044A00061FEFF26638D3A000C992000002B19D184
:1044B000FFF7EAFE0028D7D120212368244ED961D6
:1044C0005A6832405A6023004034413319702870D2
:1044D0002070CAE7628D92B2228500938023D2B207
:1044E0009B04DAE7FFF720FF0028BDD1636A22684A
:1044F0001978013391626362638D228D013B9BB217
:104500006385013A638D92B22285002BCAD0002ABE
:10451000C8D100970C9B80212000FFF7DDFE00280A
:10452000A2D1638DFF2B09D98023FF2226855B044E
:10453000009003992000FFF715FEB3E78023628DFA
:104540009B0492B22285D2B20090F2E70020008054
:1045500000E800FEF0B5050087B0039104920593D2
:1045600041352B7804000220202B14D12300403346
:104570001A78012A0FD001261E70FFF73DFB80211B
:10458000070000901923320009022000FFF7A4FE63
:10459000002802D0012007B0F0BD22232B70250097
:1045A000123B42352B70049B606463626B469B8AAE
:1045B00060636385628D314BFF2A21D9FF222285FA
:1045C000009380235B0403992000FFF7CBFDFF26B7
:1045D000638D3A000C992000002B19D1FFF754FE8F
:1045E0000028D7D120212368254ED9615A6832404E
:1045F0005A60230040344133197028702070CAE794
:10460000628D92B2228500938023D2B29B04DAE7B6
:10461000FFF7FAFD0028BDD12368626A5B6A137058
:10462000636A228D01336362638D013A013B9BB261
:104630006385638D92B22285002BC9D0002AC7D131
:1046400000970C9B80212000FFF746FE0028A1D197
:10465000638DFF2B09D98023FF2226855B04009000
:1046600003992000FFF77EFDB2E78023628D9B0453
:1046700092B22285D2B20090F2E7C04600240080B8
:1046800000E800FEF0B50400413422780300D2B205
:104690000220202A18D11D0040352E78012E13D07B
:1046A0001B68223020701E68233886431E601E68F7
:1046B000064F3E401E601E6831431960196808436A
:1046C0001860002022702870F0BDC046FFEFFFFF89
:1046D000F0B5050041352A780300D2B20220202A25
:1046E00017D11C0040342678012E12D01B682230CE
:1046F00028701E68233886431E601E68054F090215
:104700003E403143196019680843186000202A7040
:104710002070F0BDFFF0FFFF70B504000120002CF9
:1047200014D023680F4A1A600F4A1A6062685A60F0
:10473000A2689A60FFF760FA05002368D86800282D
:1047400005D11969E268914208D01A6170BDFFF77E
:1047500053FA401B3028F0D90320F7E7034A1A60C8
:10476000F4E7C046CCCC000055550000AAAA0000D2
:104770000368024A00201A607047C046AAAA0000D7
:104780008023034A5B0011680B4313607047C046E7
:104790000070004010B503240A4A1368A34318436D
:1047A00010600422084B186902431A61012905D1DF
:1047B00030BF04211A698A431A6110BD40BF20BF6F
:1047C00020BFF6E70070004000ED00E08023034AC0
:1047D000DB0011680B4313607047C0460070004057
:1047E0008023034A9B0011680B4313607047C04647
:1047F000007000400C22194B10B5D9680A40082AF5
:1048000029D00C2A09D0042A1DD11868144BC006DF
:10481000C0171840134BC01810BD8A021248120F5F
:10482000825C0902D868890F0131C00304D50F48A2
:104830005043FBF791FCEFE71B68DB0601D50C4802
:10484000F6E70848F4E780205B6800021B045B0F72
:1048500001339840E0E70548DEE7C046001002401B
:1048600000E548FF0024F400C08E010800127A0021
:1048700000093D00F0B5050087B0002802D10120F5
:1048800007B0F0BD0C23C24CE668E2681E408023EE
:104890005B021A4001920268D20741D42B689B0741
:1048A00000D587E02B68DB0628D5002E00D0E1E09C
:1048B00023689B0502D5EB69002BE0D06268B549FF
:1048C0006B6A0A401A43626061682A6A0902090A2F
:1048D00012060A43626080225B0B013312029A4087
:1048E0001300E16800200A06AB49120F8A5CD3402E
:1048F000AA4A1360FFF754F90028C1D12B681B079F
:1049000000D5EEE02B685B0700D510E12B689B0615
:1049100000D595E1AB6A002B00D0C4E10020AFE7E1
:10492000082E04D00C2E09D1019A002A06D0236843
:104930009B03B3D56B68002BB0D1A0E76A689A429D
:1049400011D1226813432360FFF756F90700802234
:10495000236892021342A1D1FFF74EF9C01B6428CD
:10496000F5D903208CE7A021C9028A4205D1802213
:104970002168D2020A432260E3E7216888480140A7
:10498000216021680B400593059B864923680B40F5
:104990002360002AD8D1FFF72FF90700802223686F
:1049A0009202134200D179E7FFF726F9C01B642871
:1049B000F4D9D6E72022EB68134203D02168934351
:1049C00011432160042E04D00C2E25D1019A002A17
:1049D00022D12268520702D5002B00D14FE761682F
:1049E0002A697148120201400A4309216260226863
:1049F0008A4313432360FFF7FDFEE368664A1B0604
:104A00001B0FD35CD840654B18600020FFF7C8F837
:104A1000002800D146E733E7002B19D0092122688E
:104A20008A4313432360FFF7E7F807000422236853
:104A3000134207D062682B695B491B020A4013438B
:104A400063602FE7FFF7D8F8C01B0228EED988E78C
:104A50000122236893432360FFF7CEF80700042266
:104A60002368134200D11DE7FFF7C6F8C01B0228D8
:104A7000F5D976E7EB69002B20D0802322685B0014
:104A800013432360FFF7B8F80700802223689200E1
:104A900013420DD063683F4A13406A6A1343636050
:104AA00062682B6A12021B06120A1343636025E731
:104AB000FFF7A2F8C01B0228E7D952E723683B4A58
:104AC00013402360FFF798F80700802223689200C4
:104AD000134200D112E7FFF78FF8C01B0228F4D968
:104AE0003FE76A690123002A10D0226D1343236532
:104AF000FFF782F807000222236D134200D001E77E
:104B0000FFF77AF8C01B0228F5D92AE7226D9A43ED
:104B10002265FFF771F807000222236D134200D1CE
:104B2000F0E6FFF769F8C01B0228F5D919E78023E2
:104B30000021A26B5B0501911A4204D1A26B1343C1
:104B4000A363012301938022194F52003B68134253
:104B500008D08022AB68520093422BD1226D1343C0
:104B600023654CE080223B68520013433B60FFF713
:104B700043F880235B00029003933B68039A13423F
:104B8000E7D1FFF739F8029BC01A6428F5D9E8E6A7
:104B900000100240FF1FFFFFC98E01080000002027
:104BA000FFFFFEFFFFFFFBFFFFE0FFFFFFFEFFFF3A
:104BB00000700040002B16D1236D6A4A1340236514
:104BC000236D694A13402365FFF716F8070080221A
:104BD000236D920013422AD0FFF70EF8634BC01BDF
:104BE0009842F4D9BDE6A021C9008B420BD18023A5
:104BF000216DDB000B432365236D1A432265FEF70D
:104C0000FBFF07000EE0236D564A13402365236D1A
:104C1000554A1340A4E7FEF7EFFF544BC01B9842E0
:104C200000D99EE68022236D92001342F3D0019BAF
:104C3000012B00D06AE6A36B4D4A1340A36365E6DF
:104C4000A96901234B4A002918D0A1681943A16022
:104C5000616B0B4363638023116A9B010B431362F7
:104C6000FEF7CAFF07000222A368134200D051E6F4
:104C7000FEF7C2FFC01B0228F5D972E6A16899436E
:104C8000A160136A3C490B401362FEF7B5FF0700B1
:104C90000222A368134200D13CE6FEF7ADFFC01B21
:104CA0000228F5D95DE60C2E43D0344A022B2ED1D2
:104CB0002368802613402360FEF79EFF0700B6049A
:104CC000236833421DD1296BEB6AE2680B432C4900
:104CD0000A4013436A6B80251343E36080232268F4
:104CE0005B0413432360FEF787FF0600AD042368CF
:104CF0002B4200D012E6FEF77FFF801B0228F6D978
:104D00002FE6FEF779FFC01B0228D9D929E62368D0
:104D1000802513402360FEF76FFF0600AD04236873
:104D20002B4200D1FAE5FEF767FF801B0228F6D977
:104D300017E68022E368E96A52021A4001208A429B
:104D400000D09DE5F022296B92031A408A4200D0E0
:104D500096E5C02000040340686B181A431E984172
:104D6000C0B28DE5FFFEFFFFFFFBFFFF88130000D1
:104D7000FFFFFFEF00000140FFDFFFFFFFFFFFFE2F
:104D8000FFFF02FFF7B5061E019101D10120FEBD14
:104D90000122514C0199236813408B4227D332687A
:104DA00093072FD4D30735D40123226801991A40E1
:104DB0008A4200D981E03268484C530700D584E02C
:104DC000130706D5E26833694549DB000A401343FF
:104DD000E360FFF70FFDE368424A1B061B0FD35C3D
:104DE000D840414B18600020FEF7DAFECFE7236879
:104DF000019993430B43236023681340019A934224
:104E0000C4D1CCE7F0203549CB688343B068034375
:104E1000CB60C7E7314D72682B68022A19D19B031A
:104E2000B4D50321EB688B431343EB60FEF7E4FE3C
:104E300073680700022B19D10C22EB681340082B72
:104E4000B2D0FEF7D9FE294BC01B9842F4D90320FB
:104E50009DE7032A02D19B01E3D497E7012A02D1FF
:104E60005B07DED492E79B05DBD48FE7032B0BD1E6
:104E70000C22EB681340934296D0FEF7BDFE1B4B0D
:104E8000C01B9842F4D9E2E7012B10D00C22EB684A
:104E9000134289D0FEF7B0FE144BC01B9842F5D9DF
:104EA000D5E7FEF7A9FE114BC01B9842CFD80C22C4
:104EB000EB681340042BF4D176E722689A43226012
:104EC00022681A4200D176E760E7E36808490B40A0
:104ED000F1680B43E36073E70020024000100240DA
:104EE000FFC7FFFFC98E01080000002088130000E3
:104EF000FFF8FFFF044B054ADB685B055B0FD35CE3
:104F0000034A1068D840704700100240D98E01084B
:104F100000000020044B054ADB689B045B0FD35C58
:104F2000034A1068D840704700100240D98E01082B
:104F3000000000200368F7B505009B063DD58023DF
:104F400000215F4C5B05A26B00911A4204D1A26B59
:104F50001343A3630123009380275A4E7F003368D5
:104F60003B426CD06868C023C02601002268B603AB
:104F70009B023040324019401E00904200D06FE04A
:104F8000236D334000D074E06968C0230A009B029F
:104F90001A409A4207D123684B480340C02080033F
:104FA00001400B432360236D1A43009B2265012BB4
:104FB00003D1A36B454A1340A3632B68DA0706D5D8
:104FC00003203F49CA6C8243A8680243CA649A0717
:104FD00006D50C203A49CA6C8243E8680243CA6489
:104FE0005A0706D536493A48CA6C02402869024336
:104FF000CA641A0706D532493648CA6C0240686945
:105000000243CA64DA0506D52D493348CA6C02400A
:10501000A8690243CA645A0606D529492F48CA6CB2
:105020000240286A0243CA6400201B0617D5244A9E
:105030002B49D36C0B40E9690B43D3640FE0336811
:105040003B433360FEF7D8FD019033683B4289D182
:10505000FEF7D2FD019BC01A6428F6D90320FEBDDD
:10506000994200D08CE7236801209B0300D487E796
:10507000F5E78B4200D187E72B689B0600D483E7D6
:105080008022216D206D120302432265226D124B96
:1050900014480B40024022652365CB0500D473E71A
:1050A000FEF7AAFD80270600BF00236D3B4200D01B
:1050B0006AE7FEF7A1FD0C4B801B9842F5D9CDE7BE
:1050C0000010024000700040FFFFCFFFFFFFFFEF26
:1050D000FFF3FFFFFFCFFFFFFFFFFCFFFFFFFFFB23
:1050E000FFFFF3FFFFFFF7FF88130000704700008A
:1050F000036810B59A680400D2040AD5DB68DB05A2
:1051000007D5FFF7F3FF21680E4BCA68D2B21343ED
:10511000CB6023689A6892040BD5DB689B0508D5A1
:10512000200000F08DFB2168074BCA68D2B2134300
:10513000CB608022054B92025A6101230234E3774F
:1051400010BDC0467FFEFFFF7FFDFFFF0004014052
:10515000A0210268F8B5D36804008B43D360FEF742
:105160004BFDFA2706002025BF002368DB682B4291
:1051700001D00020F8BDFEF73FFD801BB842F4D9F6
:105180000320F7E7F8B5402403680500DA682242F7
:1051900001D00020F8BD01225242DA60FEF72CFD5A
:1051A000FA270600BF002B68DB682342F1D1FEF727
:1051B00023FD801BB842F6D90320EBE770B504004D
:1051C000012500281AD0861CF37FDBB2002B03D107
:1051D0004219D377FDF7ACFF0223CA22F377236885
:1051E00020005A62773A5A62FFF7CCFF2368051E07
:1051F00006D0FF225A620423F3770125280070BDF0
:105200009A681B4920690A409A606268996802435B
:10521000A06902430A439A60E26860691A61A26861
:10522000196912040A4380211A61DA688A43DA6034
:10523000DA6C7D398A43DA64E269D96C02430A4345
:10524000DA649B689B060CD42000FFF781FF0028DE
:1052500007D0FF22236801345A620423F377E577ED
:10526000CBE7FF2223685A620123F377C6E7C046E3
:10527000BFFF8FFF0023092803D81B011843C0B2CA
:1052800070470A380133C0B2F5E700000223F0B5D9
:10529000471C0C00F97F85B005001E00012937D09E
:1052A0000121F977C118CB77019140210668637815
:1052B00020780293B3680B40002A2CD1002B00D138
:1052C000E370FFF7D7FF03900298FFF7D3FF029038
:1052D000A078FFF7CFFF0300E07800041843039B9A
:1052E0001B041843029B1B021843CA237362773BBB
:1052F000736202902800FFF745FF2B68061E16D048
:10530000FF225A620423019AD3770023FB770126F8
:10531000300005B0F0BD002B00D1E370029B00040B
:105320001B021843A3781843E3781B04DCE71548F5
:10533000029A154902401A609A6820690A409A60E8
:10534000E268996802430A4380219A60DA688A43D6
:10535000DA609B689B060CD42800FFF7F9FE002852
:1053600007D0FF222B685A620423019AD377FE7775
:10537000CDE7FF222B685A620123019AD3770023DD
:10538000FB77C5E77F7F7F00FFFFFBFF0223F0B5C0
:10539000471C0E00F97F85B004001D00012936D09E
:1053A0000121F977C1180191CB773178F078490361
:1053B0007378B5780291002A4CD11032134202D092
:1053C00093430A337370FFF755FF03907078FFF72C
:1053D00051FF06002800FFF74DFF039B36021D0416
:1053E000029B18430543CA22236820005A62773A79
:1053F0005A62FFF7C7FE2E432368051E0AD0FF221C
:105400005A620423019AD3770023FB7701252800F1
:1054100005B0F0BD8021124806405E60DA688A431C
:10542000DA609B689B060CD42000FFF791FE0028F1
:1054300007D0FF2223685A620423019AD377FD77AD
:10544000E4E7FF2223685A620123019AD3770023FD
:10545000FB77DCE7029A0004104305431E02C2E713
:105460003FFFFF000223F7B50D00411CCE7F040073
:105470001800012E00D18CE00138C877E118CB77F5
:1054800040216B7826680093B3682878AF780B408A
:10549000002A5DD1002B00D1EB70FFF7EBFE0190ED
:1054A0000098FFF7E7FE00903800FFF7E3FE0700E3
:1054B0006B1CD87FFFF7DEFE6A69EB691343EA785D
:1054C000120413431F43019B1B041F43009B1B0239
:1054D0001F43AA696B68000613430093CA236A6AD4
:1054E0007362773B7362AD3307439A4252D1B3681C
:1054F0003B4A1340B360F2683A4BD2B21343F360B5
:10550000FEF77AFB060001222368DD68154031D0E2
:10551000009ADF615A648022996852000A439A60B7
:105520008022996852010A439A6080222E4B92028F
:10553000196800201143196099680A439A60FF2294
:1055400023685A62FE3AA31CA418DA77E07720E0B9
:10555000002B00D1EB70EB696A69000413431F4311
:10556000009B074318020743E8786B1C00040743BD
:10557000D87FAEE7FEF740FBFA23801B9B009842E2
:10558000C1D9FF22032023685A62A31C0134D877B3
:10559000E577FEBDB368154A1340B360F268144B5B
:1055A000D2B21343F360FEF727FB06000222236802
:1055B000DD6815400BD0009A1F629A6480229968BA
:1055C00092000A439A60802299689201ABE7FEF745
:1055D00013FBFA23801B9B009842E7D9D1E7C04612
:1055E000FFFEFFFF7FFEFFFF00040140FFFDFFFF06
:1055F0007FFDFFFF0A23020953430F2210401818B2
:10560000C0B2704770B50C0001683F208B6A6360C0
:105610000B695B045B0CA3600B680E490B40190C13
:105620001E0ADDB240230840F6B2194020706670B1
:10563000A570E170002A0AD1FFF7DCFF207030006E
:10564000FFF7D8FF60702800FFF7D4FFA07000209C
:1056500070BDC0467F7F7F0070B50C0003680E49A7
:105660005B680B40180CDD04DEB21B04ED0E5B0F13
:10567000E0706570A6702370002A0AD1FFF7BAFFA8
:10568000E0702800FFF7B6FF60703000FFF7B2FF50
:10569000A070002070BDC0463FFFFF000223F0B5A0
:1056A00085B0461C02910392F27F04001800012A83
:1056B00058D00122E718F277FB772368C9325A6283
:1056C000773A5A629B685B0535D423682E499A68FD
:1056D0000A409A60D9682D4AC9B20A43DA60FEF7D7
:1056E0008BFA019004222368DD6815403CD0072125
:1056F000029A5A619A688A439A609A6803990A439F
:1057000080219A60224A490310680843106090681B
:105710000143916080229968D2010A439A608022F5
:105720009968D2000A439A60FF2200205A6201233E
:10573000FB77F07716E0FEF75FFA04250190236807
:10574000DB682B42C1D0FEF757FA019BC01AFA233F
:105750009B009842F3D9FF22236803205A6200235A
:10576000F877F37705B0F0BDFEF746FA019BC01A53
:10577000FA239B009842B5D9FF22032023685A627E
:10578000F877F577EEE7C046FFFBFFFF7FFBFFFFF3
:10579000000401400223F7B5451CEA7F040018000D
:1057A000012A2DD00122E618EA77F3772368C9325F
:1057B0005A62773A5A629A6812490A409A609A681D
:1057C00011490A409A60FEF717FA019004222368F3
:1057D000DF68174006D0FB325A6200200123F377BE
:1057E000E8770DE0FEF708FA019BC01AFA239B0048
:1057F0009842EBD9FF22032023685A62F077EF77B3
:10580000FEBDC046FFFBFFFFFFBFFFFF036810B5F3
:10581000DB6804005B0507D512F03AFC2168064BF3
:10582000CA68D2B21343CB608022044B52035A6140
:1058300001230234E37710BD7FFBFFFF000401402A
:1058400070470000E021036810B55A688A435A6027
:1058500082224168520091420CD180218268090263
:105860008A4203D08021C9008A4203D140211A68AC
:105870008A431A608021826A89018A4206D11968A6
:10588000074C2140196019680A431A60030001227D
:1058900051331A70002350300370032010BDC046EE
:1058A000FFDFFFFFF8B504000D0017008026226817
:1058B000936833420BD06B1CFAD0FEF79DF9C01BE6
:1058C0008542F4D82000FFF7BDFF002801D1002059
:1058D000F8BD2023626D032013436365F8E70000E1
:1058E00070B504000120002C37D000232500A362EE
:1058F00051352B78DBB2002B05D1220050321370CA
:105900002000FDF76DFC0223402221682B700B68FC
:10591000A06893430B606368A2690343E068034394
:105920002069034360690343E0690343206A03433A
:10593000A06A034380208000104003430B600423CF
:10594000120C1A40636A00201A434A60CB69034A6A
:105950001340CB61012360652B7070BDFFF7FFFF23
:10596000F0B51E000300503317001A78040085B00C
:105970000D000220012A00D199E001221A70FEF7E1
:105980003BF92300019051331B786168DBB2012B96
:105990000CD0822202205200914200D080E0A26806
:1059A000002A00D07CE0042B00D079E00120002DFB
:1059B00076D0002F74D0002E72D0230051331A7885
:1059C000042A01D005221A70002340226365236453
:1059D00063642368E687E6861868A763A68725635D
:1059E000A686104202D1186802431A608022E0683D
:1059F000120190425DD1002901D0012E07D12A88E1
:105A00000235DA60E38E2563013B9BB2E386012514
:105A100002272E00E38E002B15D1E38F002B12D12D
:105A2000019A0A992000FFF73DFF002800D086E088
:105A3000A368002B34D123680390DA6803929B6833
:105A40000393039B2CE0226893683B420ED0E38EC5
:105A5000002B0BD0012D09D10025236B19880233AF
:105A6000D1602363E38E013B9BB2E38693683342AC
:105A70000CD0E38F002B09D03500D268A36B1A80BD
:105A80000233A363E38F013B9BB2E387FEF7B4F8D5
:105A9000019BC01A0A9B8342BCD80133BAD00320B1
:105AA0002300012251331A7000235034237005B0B3
:105AB000F0BD002901D0012E08D12A781A73236B7A
:105AC00001332363E38E013B9BB2E386012502276A
:105AD0002E00E38E002B02D1E38F002BA0D0236891
