:020000040800F2
:1000000000500020ED9301085D3300085F330008C5
:1000100000000000000000000000000000000000E0
:100020000000000000000000000000006133000834
:100030000000000000000000633300086533000882
:100040003D9401083D9401086D3300083D9401087A
:100050003D940108853300083D940108953300085C
:100060003D9401083D9401083D9401083D94010828
:100070003D9401083D9401083D9401083D94010818
:100080003D9401083D9401083D94010800000000E2
:100090003D9401083D9401083D9401083D940108F8
:1000A0003D9401083D9401083D9401083D940108E8
:1000B0003D9401083D940108000000003D940108B2
:1000C00010B5064C2378002B07D1054B002B02D02E
:1000D000044800E000BF0123237010BD2802002067
:1000E0000000000014A00108044B10B5002B03D041
:1000F0000349044800E000BF10BDC04600000000F6
:100100002C02002014A0010802B4714649084900DD
:10011000095C49008E4402BC7047C04603B4714676
:10012000490840004900095E49008E4403BC7047FD
:1001300003B47146490840004900095A49008E44F9
:1001400003BC7047002243088B4274D303098B42DF
:100150005FD3030A8B4244D3030B8B4228D3030C97
:100160008B420DD3FF22090212BA030C8B4202D339
:100170001212090265D0030B8B4219D300E0090A61
:10018000C30B8B4201D3CB03C01A5241830B8B426A
:1001900001D38B03C01A5241430B8B4201D34B0353
:1001A000C01A5241030B8B4201D30B03C01A5241B8
:1001B000C30A8B4201D3CB02C01A5241830A8B423D
:1001C00001D38B02C01A5241430A8B4201D34B0226
:1001D000C01A5241030A8B4201D30B02C01A52418A
:1001E000CDD2C3098B4201D3CB01C01A524183093E
:1001F0008B4201D38B01C01A524143098B4201D378
:100200004B01C01A524103098B4201D30B01C01AA2
:100210005241C3088B4201D3CB00C01A524183081C
:100220008B4201D38B00C01A524143088B4201D349
:100230004B00C01A5241411A00D2014652411046A9
:100240007047FFE701B5002000F0F0F802BDC0469E
:100250000029F7D076E7704703460B437FD400228E
:1002600043088B4274D303098B425FD3030A8B424A
:1002700044D3030B8B4228D3030C8B420DD3FF22B4
:10028000090212BA030C8B4202D31212090265D082
:10029000030B8B4219D300E0090AC30B8B4201D335
:1002A000CB03C01A5241830B8B4201D38B03C01A7C
:1002B0005241430B8B4201D34B03C01A5241030BF3
:1002C0008B4201D30B03C01A5241C30A8B4201D3A4
:1002D000CB02C01A5241830A8B4201D38B02C01A4F
:1002E0005241430A8B4201D34B02C01A5241030AC6
:1002F0008B4201D30B02C01A5241CDD2C3098B42AB
:1003000001D3CB01C01A524183098B4201D38B0127
:10031000C01A524143098B4201D34B01C01A5241CA
:1003200003098B4201D30B01C01A5241C3088B420F
:1003300001D3CB00C01A524183088B4201D38B00FA
:10034000C01A524143088B4201D34B00C01A52419C
:10035000411A00D201465241104670475DE0CA0F73
:1003600000D04942031000D34042534000229C4633
:1003700003098B422DD3030A8B4212D3FC2289013D
:1003800012BA030A8B420CD3890192118B4208D313
:10039000890192118B4204D389013AD0921100E075
:1003A0008909C3098B4201D3CB01C01A5241830989
:1003B0008B4201D38B01C01A524143098B4201D3B6
:1003C0004B01C01A524103098B4201D30B01C01AE1
:1003D0005241C3088B4201D3CB00C01A524183085B
:1003E0008B4201D38B00C01A5241D9D243088B42B1
:1003F00001D34B00C01A5241411A00D20146634654
:1004000052415B10104601D34042002B00D54942B7
:10041000704763465B1000D3404201B5002000F0F6
:1004200005F802BD0029F8D016E770477047C046AE
:10043000D0400B1CD1409C46203AD3401843524236
:1004400063469340184370478446101C62468C46AE
:10045000191C634600E0C0461FB501F0A9FB002847
:1004600001D40021C8421FBD10B501F001FB40427C
:10047000013010BD10B501F09BFB002801DB00200E
:1004800010BD012010BDC04610B501F091FB002841
:1004900001DD002010BD012010BDC04610B501F0E7
:1004A00023FB002801DC002010BD012010BDC04648
:1004B00010B501F019FB002801DA002010BD012061
:1004C00010BDC0468446081C6146FFE71FB500F01A
:1004D00013FA002801D40021C8421FBD10B500F056
:1004E00095F94042013010BD10B500F005FA002822
:1004F00001DB002010BD012010BDC04610B500F08A
:10050000FBF9002801DD002010BD012010BDC04610
:1005100010B500F0A3F9002801DC002010BD012077
:1005200010BDC04610B500F099F9002801DA00208E
:1005300010BD012010BDC046002B15D1002A13D1DB
:10054000002906DB01DC002806D00020C04341085A
:1005500002E080210906002007B4024801A14018EA
:10056000029003BDC9FEFFFF03B4684601B50298BF
:1005700000F030F9019B9E4602B00CBC7047C046AB
:10058000002B11D1002A0FD1002900D1002802D060
:100590000021C943081C07B4024802A14018029078
:1005A00003BDC04689FEFFFF03B4684601B502984B
:1005B00000F04EF8019B9E4602B00CBC7047C0464E
:1005C000F0B5CE46474615042D0C2E0080B5070425
:1005D000140C3F0C9946030C7E435D436743634311
:1005E0007F19340CE4199C46A54203D980235B0291
:1005F0009846C4444B4643435143250C3604654456
:10060000360C2404A4195B19591820000CBC904620
:100610009946F0BD70B500220C4B04000D00FFF7A9
:1006200047FF002804D12000290002F0E3F870BD44
:10063000064B00222000290001F094FD02F0DAF8B8
:1006400080231B069C466044F1E7C0460000E04161
:10065000F0B54F464646D646C0B5040082B00D0000
:10066000914698468B422FD82CD04146484602F0FE
:10067000D3F929000600200002F0CEF9331A9C4677
:10068000203B9A4600D576E04B46524693401F00E9
:100690004B46624693401E00AF4228D825D05346B1
:1006A000A41BBD41002B00DA7BE000220023009256
:1006B00001930123524693400193012362469340E4
:1006C000009318E08242D0D90022002300920193C7
:1006D0000A9B002B01D01C605D600098019902B05C
:1006E0001CBC90469946A246F0BDA342D7D9002231
:1006F0000023009201936346002BE9D0FB07984644
:10070000414672080A437B0866460EE0AB4201D1BF
:10071000A2420CD8A41A9D41012024196D41002148
:10072000013E24184D41002E06D0AB42EED9013EC9
:1007300024196D41002EF8D10098019953460019F3
:100740006941002B23DB2B005246D3402A0064462C
:10075000E2401C0053461500002B2DDB26005746B7
:10076000BE40330026006746BE403200801A9941E1
:1007700000900191ACE7624620239B1A4A46DA407A
:100780006146130042468A4017001F4380E76246D5
:1007900020239B1A2A0066469A402300F340134305
:1007A000D4E76246202300219B1A00220091019287
:1007B0000122DA40019280E72023624626009B1A3C
:1007C000DE402F00B0466646B74046463B00334306
:1007D000C8E7C046F0B583B016001F000090019135
:1007E00002F026F904000D0002000B003000390071
:1007F000FFF7E6FE009A019B121A8B410899200030
:100800000A604B60290003B0F0BDC04670B54200DD
:100810004E024C0045026D0A120EC30F760A240EDA
:10082000C90FFF2A0FD0FF2C11D00120A24200D007
:1008300070BDB542FCD18B420DD0002AF8D1280002
:10084000451EA841F4E70120002DF1D1EBE701207E
:10085000002EEDD1E9E70020EAE7C04670B54A0076
:100860004E02450244006D0A240EC30F760A120E92
:10087000C90FFF2C15D0FF2A0ED0002C15D1002A4D
:1008800001D1002E1CD0002D14D08B4227D0022085
:10089000013B1840013870BD002EEED002204042CE
:1008A000F9E7002DFAD1FF2A0ED0002A0ED1002E32
:1008B000EDD00BE001230139994308000130EAE74C
:1008C0000020002DE7D0E2E7002EE7D18B42DED1F9
:1008D000944205DD0221581E08400138DBE7002460
:1008E000A24204DCB542D2D80020B542D3D2581E71
:1008F000012398430130CEE730B5420044024D0257
:10090000C30F4800640A120E6D0A000EC90FFF2AB9
:1009100012D0FF280CD0002A12D1002819D1002DA6
:1009200017D1002C2BD00220013B1840013826E0C3
:10093000002DF0D0022022E0002CFBD1FF281FD098
:1009400000281FD1002D1DD10220013B1840013885
:1009500015E0002C0ED08B42E5D10022904204DC41
:10096000AC42E0D80020AC4209D2581E0123984383
:10097000013004E00123013999430800013030BD02
:10098000002DD7D18B42CED18242E7DD0221581E05
:1009900008400138F3E7C046F8B54746CE46440064
:1009A000C20F80B547024802400A844666464800A6
:1009B0007F0A240EF60025009046FB00000EC90FAA
:1009C000B146FF2800D185E001267140261A9142E8
:1009D00057D0002E43DD002800D07FE04946002993
:1009E00000D1AAE0013E002E00D0F7E05B1A5A01C8
:1009F00000D48BE09B019C09200001F0EFFF05383B
:100A00008440854200DDD3E0451B230020200135D2
:100A1000EB40451BAC40621E944123430724002554
:100A20001C40012241460A40002C04D00F211940ED
:100A3000042900D00433590100D480E00135ECB220
:100A4000FF2D00D0A3E0FF2400235B02E405580A39
:100A5000D207204310430CBC90469946F8BD002EA7
:100A600074D1601CC0B2012800DCA7E04A469C1A81
:100A7000620100D5B6E0002CBED100220024002384
:100A8000E3E7002E00DC85E0002846D0FF2C49D0AB
:100A900080224846D2041043814601221B2E09DCE5
:100AA00020204C46801B84404A462000F240441ED1
:100AB000A04102439B185A0128D50135FF2D00D1D2
:100AC000A8E00122072494491A405B080B40134315
:100AD0001C40A6E7002E00D078E775E7FF2C54D025
:100AE00080224946D2041143894601221B2E09DC8B
:100AF00020214846891B88404A460100F240481E92
:100B000081410A439B1A5A0100D573E701224146ED
:100B10000A40590700D089E711E04846002858D11B
:100B2000FF2C0CD1DB08002B00D18CE78020C00308
:100B300003435B025B0AFF2487E7FF2C25D0DB0819
:100B4000FF2DF0D05B025B0AECB27EE7002C4DD0AB
:100B5000FF2818D08024E404724223431B2A00DDBE
:100B6000C4E01C002025D440AA1A93405A1E934189
:100B700023434A460500D31A884638E7721CF8D04A
:100B8000F243FF28EAD10A004B46FF25D7E79B0135
:100B90005B0A5AE7002E41D1651CE9B2012945DD07
:100BA000FF2D00D14FE707244B445B081C4038E77A
:100BB00007225A4B2D1A2340144032E7002C1DD136
:100BC000002B7AD14B46002B00D191E00A00002582
:100BD000B5E7013E002E19D14B446CE7FF2C84D1C0
:100BE000FF25ACE74A468846D41A05E7002BC5D155
:100BF0000A00FF28C8D005004B46A0E7002B49D1CA
:100C00004B46002B77D00A00FF2598E7FF2C00D039
:100C100043E787E70A00FF24002316E7002C15D1DD
:100C2000002B57D1FF28E6D14B467BE7002C20D183
:100C3000002B57D04946002953D04B445A0168D560
:100C40000724364A1C4001251340EAE6FF28EBD072
:100C50008022D204764213431B2E53DC2025AD1B89
:100C60001A00AB40F2405C1EA34113434B44050005
:100C700021E7002BD8D04946002900D152E7802136
:100C8000C9030F4200D14DE76046084200D049E752
:100C90004B4647E74846FF25002800D14FE7802212
:100CA000D203174204D06046104201D14B46884619
:100CB00001224146FF250A4041E7484600281FD04F
:100CC0001A1A500120D54A460724D31A1C408846D8
:100CD0000025A6E6741CC9D0F643FF28BCD14B46BC
:100CE00020E799464B460025DB082BE7012340E728
:100CF00000220023A9E680230022DB03FF24A4E6D0
:100D000000251CE70123B1E7002AF1D013000025DC
:100D1000FCE60025FAE6C046FFFFFF7DFFFFFFFB74
:100D200070B500283DD0C317C5185D40C40F28001A
:100D300001F054FE9E22121A962A07DCD2B208282D
:100D400033DD083885406802400A23E0992A0BDD2C
:100D5000052329001B1AD94003001B339D402B009B
:100D60005D1EAB4119430D00052801DD431F9D4069
:100D70002B000F490B406E0709D00F263540042D7C
:100D800005D004335D0102D59F220B40121A9B014E
:100D9000580AD2B24002D205400AE4071043204369
:100DA00070BD002400220020F4E76802400AF1E749
:100DB000FFFFFFFB70B5041E34D001F00FFE9E2232
:100DC000121A962A07DCD2B208282EDD0838844091
:100DD0006002400A21E0992A09DD030021001B334B
:100DE00099404B1E994105231B1ADC400C430528F2
:100DF00001DD431F9C4023000D490B40650709D0CE
:100E00000F252C40042C05D004335C0102D59F2211
:100E10000B40121A9B01580AD2B24002D205400A76
:100E2000104370BD00220020F7E76002400AF4E79B
:100E3000FFFFFFFBF0B54F464646D6460C000903C0
:100E4000C0B5490A470F5E0039431F03DB0F9C46BC
:100E500065007B0A570F1F436D0DE40F760DA14609
:100E6000C000B846D200AB1B64457BD0002B5FDDD1
:100E7000002E00D0A4E03E00164300D112E15E1E19
:100E8000002E00D09EE1871A4346B84280410125DA
:100E9000C91A4042091A0B0200D431E149024E0A34
:100EA000002E00D16EE1300001F098FD0300083BF8
:100EB0001F2B00DD61E120223900D21A9E40D14073
:100EC0009F400E439D4200DD51E15D1B6B1C1F2BBB
:100ED00000DD7CE12021C91A3D0030008F408840B0
:100EE000DD40791E8F41310007222843D94000257B
:100EF00007433A40002A09D00F233B40042B05D07A
:100F00003B1DBB42BF417F42C9191F000B0200D4E9
:100F100026E26A1CC64B55056D0D9A4200D106E1CA
:100F2000C44AFF080A40530752023B43120B8EE0AB
:100F3000002B00D0B8E06B1C5B055B0D012B00DCC7
:100F400030E1871A4346B842B641CB1A76429E1B1F
:100F5000330200D54CE13B003343A1D100220024F1
:100F6000002570E0002B00DCE5E0002E00D183E0DE
:100F7000AF4EB54260D0802636043743B846382B92
:100F800000DC3EE1434613431F007A1E97413F18A1
:100F900087428041404209180B0200D4B0E0A44BC4
:100FA00001359D4200D1C3E0A24A7B080A400121DD
:100FB0000F401F435108D30707221F433A4099E7C8
:100FC0009B4EB54238D0802636043743B846382B7E
:100FD00000DDDCE01F2B00DC30E11E004746203E38
:100FE000F740BC46202B04D04026F31A46469E40CC
:100FF0003243170063467A1E97411F43CCE0002B13
:1010000000D104E24346134300D159E14B07C00825
:1010100018438023C9081B03194208D04546ED0830
:101020001D4204D14346D008590708432900420F06
:10103000C9007F4D1143C0004B07CA087C49C00856
:1010400003438D4268D012036D05120B6D0D002114
:1010500012031800130B0A0D12051A43764B2D05C7
:1010600013402B435B00E4075B08234319001CBCBF
:1010700090469946A246F0BD3E00164312D05E1E31
:10108000002E00D000E18718874280414144404251
:10109000091801250B0233D5022585E76446330084
:1010A000414610001D00C7E7002D00D0DAE00C001B
:1010B0000443F3D05C1C00D19FE15D4CA64200D1FB
:1010C0002FE1DB43382B00DD66E11F2B00DD83E1E0
:1010D00020240500E41A0F00DD40D940A04043461B
:1010E000A7405B1A441EA04198462F433843171A65
:1010F000BA42924143465242991A64463500CAE6C2
:1011000007223A40002A00D0F6E64B07CA084849B1
:10111000FF083B438D4296D11900114300D19EE157
:10112000802109030A431203120B414D8FE715007A
:10113000002200238BE7002B00D0C7E06B1C5F056B
:101140007F0D012F00DCF1E0394DAB4200D1B9E059
:1011500085180A00854289414244494251180722B4
:10116000CF076D082F4349083A401D00C2E6072209
:101170003049ED1A31403A40BCE63E0028388640FE
:1011800000279FE6380001F029FC20308EE6434618
:1011900013431F007A1E9741C71BB842804140424B
:1011A000091A78E60E003B0006431343002D61D177
:1011B000002E00D0F4E0002B00D11BE16446390082
:1011C000100039E71A4FBB427AD03300FFE63000F7
:1011D0001F3DE840202B03D04021CB1A9E403743CF
:1011E0007B1E9F41072207433A400021002589E7E3
:1011F000171A4346BA42B641591A76428E1B6446C4
:101200004EE61F2B00DDADE020264746F61AB7401C
:10121000B9461700B246DF404E463E4337005646B9
:10122000B240561EB24117434246DA408918AEE634
:10123000FF070000FFFF7FFFFFFF0F8020264746CC
:10124000F61AB740B9461700B246DF404E463E4355
:1012500037005646B240561EB24117434246DA4066
:10126000891A99E77F4CA6425BD0802424045B4214
:10127000214327E7002E0CD1002B00D1CBE06446A0
:1012800039001000774DD7E6764FBB4218D03300B7
:1012900075E6002B14D04B07C00818438023C908FB
:1012A0001B03194207D0FC081C4204D17907D0085F
:1012B0000843E14621004C46420FC9001143C000DB
:1012C000684DB9E61D0000220023C0E6002D5BD169
:1012D0000D00054300D1E2E65D1C00D1B0E0614D98
:1012E000AE421FD0DB43382B71DC1F2B00DD96E0B4
:1012F00020250F00ED1AAF40B9460700AA46DF408F
:101300004D463D432F005546A840D940451EA841B3
:1013100088440743BF1897429241514241443500E7
:101320003AE6644635004146100085E60B0003436B
:10133000002D00D063E6002BF5D04346134300D1C7
:101340007AE68718874280410722414440420918C3
:101350003A400B0200D4D5E6434B01351940C9E5AC
:10136000380069E61E004746203EF740BC46202B69
:1013700004D04026F31A46469E4032431700634687
:101380007A1E97411F4302E6364DAE42CAD08025F1
:101390002D045B422943A6E70843411E8841A6E687
:1013A000002B00D148E6871A4346B842B641CB1A13
:1013B00076429E1B33024BD5171A4346BA429241DE
:1013C000591A5242891A072264463A4092E501436B
:1013D0000F00791E8F419DE71C000F00203CE74065
:1013E000202B03D04024E31A99400843411E884132
:1013F00038437CE60022002425E6171A4346BA4209
:101400009241591A5242891A6446350043E54146D1
:101410001000144D10E680220024120380E61D0007
:101420000F00203DEF40BC46202B03D04025EB1A97
:101430009940084307006346781E87411F4369E7C8
:10144000871897429B4141445B42C9183500A3E588
:101450003B003343CED0072231003A4052E600230E
:101460001A00F4E5FF070000FFFF7FFFF0B55746C5
:10147000DE464E464546E0B5834607000E0348006B
:1014800085B092461C00360B400DCD0F002800D1D0
:101490009DE0954B984239D08023F6001B041E43F3
:1014A000924A7B0F3343994694460300634400936A
:1014B00000230026FF00029323031B0B98466300C2
:1014C000E40F52465B0D019400D1B3E086498B4294
:1014D00000D19EE04246D100802212040A435146C8
:1014E000490F11438B46814952468C46009963440B
:1014F000CB1A0021D20000932B0063409A460F2E96
:1015000000D905E17A4BB6009B599F465B463343B1
:10151000994600D0B8E002230826002700900293E5
:10152000CAE7CB463A0002990195019B9A460229E7
:1015300027D0032900D180E2012944D06D49009BC6
:101540008C4663441C00002C38DD530700D013E2A6
:10155000D2085B46DB0109D55946674B19408B46DB
:101560008021C9008C46009B63441C00634B9C4255
:1015700007DC5B4664055F075B0217431B0B620DCC
:1015800002E000230027584A00211B031C0B0B0D0F
:101590001B05234314055A4A380013401C43534685
:1015A0006400DB0764081C43210005B03CBC904686
:1015B0009946A246AB46F0BD0122524201231B1BB5
:1015C000382B00DCADE1002200230027DCE75B467E
:1015D000334399465ED0002E00D18AE1300001F0FD
:1015E000FDF903000B3B1C2B00DD7BE11D22D31A10
:1015F0005A460100DA4008398E4013005F463343F3
:1016000099468F403F4B00261B1A009300230293FC
:1016100052E7414653460B433B499B468C46009B51
:10162000634400935B46002B3BD1022300221E4300
:10163000022161E7434613439B4637D04346002BC4
:1016400000D162E1404601F0C9F903000B3B1C2BBD
:1016500000DD53E102004146083A914088461D21D1
:10166000CB1A5146D9400B0041460B439B4653468B
:1016700093401A00009B25499C46604403008C4619
:1016800063440093002137E70323B14600900C2602
:10169000029311E7002300930133042600270293ED
:1016A0000AE70323C3461E43032125E701331E43F4
:1016B0000022012120E700239A46802300271B03F4
:1016C000094A61E7802349461B03194200D1E2E041
:1016D0005946194200D0DEE00B431B0317001B0BD9
:1016E000A246014A50E7C046FF07000001FCFFFF89
:1016F00000AB0108FF030000FFFFFFFEFE07000034
:10170000FFFF0F800DFCFFFF01F8FFFFF303000058
:10171000D94500D9CBE000D1C6E03C0048460027BF
:10172000009B013B00935B46160E1B021E431302F7
:10173000984633041B0C9946310C0191FEF788FD45
:101740004A4642430B04210C050019438A4207D93B
:101750008919013D8E4203D88A4201D9851E891913
:10176000881A0199FEF774FD09048C464A46210443
:1017700064464243090C030021438A4204D9891973
:10178000013B8E4200D8F1E02D041D43AB46434699
:10179000891A4246280C12041D0C5B46140C2200C8
:1017A0001B041B0C5A4303946B4344430295684348
:1017B0001B19150CEB189C4203D980246402A44623
:1017C00060441C0C15041B042D0C20185D1981426B
:1017D00077D373D00C1AA24A7D1BAF42BF41944607
:1017E000009B7F426344E01B1C00864200D1DBE08B
:1017F0000199FEF72DFD4A4642430B04290C0700D0
:1018000019438A4207D98919013F8E4203D88A4277
:1018100001D9871E8919881A0199FEF719FD090453
:101820004A46894629044D464243090C0300294390
:101830008A4207D98919013B8E4203D88A4201D9CD
:10184000831E89193F04891A3A00039F1A433800FE
:1018500013041B0C584381460298150C6F434343F5
:1018600045434846000C8446DB1963449F4203D934
:10187000802040028446654448461F0C00041B0437
:10188000000C7D191818A94200D284E000D17FE035
:1018900001231A4357E680234A461B0313431B03C5
:1018A0001B0BAA466F4A6FE6BA4200D935E74B4692
:1018B000DC0758087B081C43FF0734E70024AF42CD
:1018C00089D247444745A4415B466442A419641841
:1018D000013BA6421ED2A0426DD800D1B6E0241A28
:1018E0009B4678E703005A46283B9A4000279146DA
:1018F00088E6584601F072F8203072E6030052463E
:10190000283B9A4093460022B4E6504601F066F820
:1019100020309AE6A642E2D1B845DCD9341A9B467B
:1019200059E71F2B65DC504C0099A4465C46614486
:1019300008008C4011008240D940501E82410C4367
:1019400014435A46DA401300620709D00F2222409E
:10195000042A05D02200141D9442894149425B1893
:101960001A0262D50122002300270DE68A4200D820
:101970000AE7831E891907E70F231340042B00D1C0
:10198000E6E5171D9742924153429B44FA08E0E571
:10199000002800D1D7E57118531EB14227D3A942C0
:1019A00015D358D01A0073E7002B00DC04E601239E
:1019B00000229B44CDE502234744474589415B42D1
:1019C0009C46494289190C19E344241A03E743460B
:1019D0005F0047459B41B8465B429E19023A891910
:1019E000A94200D054E7404500D051E7ABE51A00CA
:1019F000F6E71F215F4649420C1BE740202B07D02A
:101A00001A49009B8C46634418005B4683401A4386
:101A1000501E82413A4307270023174009D00F2167
:101A2000002311401400042995D122005F075B02B6
:101A30001B0BD20817430022A6E5802359461B033F
:101A40000B431B0317001B0B064A9DE5BD42B2D892
:101A50009B460024BFE68045B9D31A00C3E7C046C1
:101A6000FF030000FF0700001E0400003E0400000A
:101A7000F0B54F464646D6468446C0B58046194E18
:101A800018030F034D00000B5C0082463F0B6D0DE9
:101A9000C90F9146640DDB0F0120B5420AD0B44254
:101AA00003D0A54201D157450CD01CBC90469946A5
:101AB000A246F0BD66463E43F7D1AC42F5D154464E
:101AC0001443F2D10120C845EFD1994207D0002D2F
:101AD000EBD163461F433800471EB841E5E70020BD
:101AE000E3E7C046FF070000F0B54F464646D6463E
:101AF0004D00C0B50E03C90F8A462C491F035C0078
:101B00008046360B6D0D91463F0B640DDB0F8D4209
:101B10001ED08C4216D0002D1ED130438446002C9E
:101B200001D13A4323D06246002A1AD09A4529D0DF
:101B3000514602200139084001381CBC90469946A4
:101B4000A246F0BD39001143E5D002204042F4E73F
:101B50003043FAD1AC420FD0002C0FD13A43E7D03A
:101B60000CE00122013B934318000130E5E7634696
:101B70000020002BE1D0DBE73A43E6D19A45D7D1EC
:101B8000A542D5DCA54205DBBE42D1D808D0002055
:101B9000BE42D2D250460123013898430130CCE7EF
:101BA000C845C5D80020C845F4D3C6E7FF070000E4
:101BB000F0B54F464646D6464D00C0B50E03C90F98
:101BC0008A462E491F035C008046360B6D0D9146F8
:101BD0003F0B640DDB0F8D4218D08C4211D0002DCD
:101BE00018D130438446002C1ED13A431CD16346A1
:101BF0000020002B30D05146022001390840013826
:101C00002AE039001143EAD0022025E03043FBD11D
:101C1000AC4226D0002C26D13A4324D15146022092
:101C200001390840013817E06246002A0FD09A4572
:101C3000E1D1A54205DBBE42DDD819D00020BE426D
:101C40000AD25046012301389843013004E00122B2
:101C5000013B9343180001301CBC90469946A246B4
:101C6000F0BD3A43D0D19A45C5D1A542C3DCE0E7E7
:101C7000C845C0D80020C845E3D3EDE7FF07000002
:101C8000F0B55746DE464E464546E0B5834606006B
:101C90000F03480087B092461D003F0B400DCC0F4C
:101CA000002800D16FE0DE4B984238D08023FF003F
:101CB0001B041F43730F3B430193DA4B00279946E4
:101CC00000239B46F60081442B0369001B0B524600
:101CD0009846490DED0F002900D185E0D04B99427F
:101CE00000D173E04346DA0080231B0413435246BD
:101CF000CC48520F84461343524600206144D20020
:101D000089442100694000918C46012149448A465A
:101D10000F2F00D990E0C449BF00CF59BF465B46A2
:101D20003B43019300D06AE1022308270026814645
:101D30009B46C9E732005846019B61460091022844
:101D400000D175E0032800D1FEE1012800D02CE18C
:101D500000230027002600253F032A0D3F0BB34830
:101D600012053A4302401B051343009A5B00D1075A
:101D70005B080B433000190007B03CBC9046994605
:101D8000A246AB46F0BD5B463B43019300D12FE139
:101D9000002F00D1A5E1380000F020FE03000B3B2E
:101DA0001C2B00DD96E11D22D31A5A460100DA40B1
:101DB0005E4608398F4013008E403B4301939C4B95
:101DC00000271B1A994600239B467DE74146534650
:101DD0000B4393498C46E144002B00D01AE10222C8
:101DE0000220174300228CE7134300D10DE1434644
:101DF000002B00D181E1404600F0F0FD02000B3ADB
:101E00001C2A00DD72E10100434608398B409846E8
:101E10001D239A1A5346D3401A0043461343524691
:101E20008A404946081A824989468144002068E769
:101E30007B4B002700268EE7140C1204120C1100B5
:101E4000370C3604350C794328008C462E0060434D
:101E50006044834656432100300C804658467943FF
:101E600040440291844506D98846802149028C4627
:101E7000E044414602913604010C360C00048B46C6
:101E800081191E0C1B041B0C0391190079438C460D
:101E9000280075436544A8465843050C45447743DC
:101EA000A94203D9802149028C466744290C8C46FB
:101EB00039000004000C2D042D186144AB44059139
:101EC0005946049101990F043F0C080C3900514305
:101ED0004243904602008C46090C8B4662437C4389
:101EE00044445C44A04503D98021490288464244C9
:101EF000210C884661460904090C8C463900594377
:101F0000434370437E430F0CF6182404BE19644407
:101F100042448C46B34203D980235B029846404436
:101F2000029B61469846049B370443449B46AB455D
:101F3000AD416B420D0405992D0C8C467F19674409
:101F4000FD18A8465D462D19A542A441934664425A
:101F5000A446C344DC448F42BF4198459B4193450E
:101F60009241A445A4415B427F421F43360C52423A
:101F70006442BF192243BF18624638184302D20D8B
:101F8000039913436A020A43501E82416146ED0DD4
:101F90002A434E023243D90100D4B3E0012650084F
:101FA00032400243DE0732435B08224C5444002C8B
:101FB00062DD510709D00F201040042805D0101D04
:101FC0009042924152429B180200D90104D58024CC
:101FD0001948E400034054441848844200DD27E7D0
:101FE0005E075B02D2081F0B630516435B0DB2E66A
:101FF000002399460133042700269B4664E6032309
:10200000019781460C279B465EE60122012017437B
:10201000002276E6032303201F43434671E6C046B1
:10202000FF07000001FCFFFF40AB0108FFFF0F802E
:102030000DFCFFFFFF030000FFFFFFFEFE07000097
:102040000023802700933F030026434B83E6019B38
:102050003200A446584670E6AC466EE680270199E9
:102060003F0339422DD03B422BD11F433F033F0B4F
:1020700000951600384B6EE601252D1B382D00DD2E
:1020800066E61F2D40DC35481C0050441600824097
:102090008440EE40501E824134431443EB406207BB
:1020A00009D00F222240042A05D02200141D944298
:1020B000804140421B181A023ED50123002700260A
:1020C00049E68027019B3F031F433F033F0B0094DA
:1020D000214B40E603005A46283B9A4000260192D5
:1020E0006DE6584600F07AFC203057E60300524671
:1020F000283B9A401300002293E6504600F06EFC05
:1021000020307BE6CA4650E71F201E004042041BD9
:10211000E640202D03D0124C5444A3401A43501ED5
:102120008241324307260027164009D00F200023A2
:10213000104014000428B9D122005E075B021F0B77
:10214000D2081643002306E680273F031F433F03C0
:102150003F0B1600004BFEE5FF0700001E040000C9
:102160003E040000F8B557464E464546DE460C0094
:102170000903E0B5490A460F5F0031431E03DB0F38
:10218000760A9B46530F3343C84E6500C000E40FE8
:10219000D2006D0DA24681467F0D9C469046B74207
:1021A00000D1B9E05B46012673409B46EE1BA34578
:1021B00000D183E0002E63DD002F00D0B1E0634644
:1021C000134300D123E1731E002B00D0BAE1861A1D
:1021D0006346B04280410125C91A4042091A0B02E8
:1021E00000D447E149024B0A98464346002B00D1F0
:1021F00089E1404600F0F2FB0300083B1F2B00DDA5
:102200007CE120223000D21A4146D04099400200A1
:102210009E400A439D4200DD6AE15D1B6B1C1F2B43
:1022200000DD94E1202110003500C91A8E40DA400B
:102230008840DD40711E8E41110007222843002591
:1022400006433240002A09D00F233340042B05D027
:10225000331DB342B641764289191E000B0200D4E9
:102260003DE26A1C914B55056D0D9A4200D119E172
:102270008F4AF6080A40570752023743120B9BE079
:10228000002E00D0C5E06E1C7605760D012E00DC18
:1022900048E16746861ACB1BB042BF417F42B84631
:1022A0001F004346FF1A3B00B8461B0200D55FE102
:1022B00037439AD100220024002579E0002E00DC6B
:1022C000FAE0002F00D18DE0784B9D4267D080234B
:1022D00067461B041F43BC46382E00DC52E16346B0
:1022E00013435A1E93411E188642804140420918EA
:1022F0000B0200D4BEE06D4B01359D4200D1D2E00F
:102300006B4A73080A4001210E401E435108D3074F
:1023100007221E43324095E71E00164300D045E7D2
:1023200040E7624B9D423AD0802367461B041F431F
:10233000BC46382E00DDEBE01F2E00DC3AE1330016
:102340006746203BDF403B00202E05D04027BF1BC7
:102350006646BE40324390464646721E964133431F
:10236000DAE0002B00D114E26346134300D168E1A8
:1023700080234E07C008C9081B030643194208D032
:102380006046C008184204D163460100D2085E07C7
:102390001643F3009946C900720F444D11434B4652
:1023A000DE08424B4F073743CA089D4200D16EE01A
:1023B00012036D05120B6D0D00211203130B0A0D94
:1023C00012051A433B4B2D0513402B435B00E407DA
:1023D0005B082343380019003CBC90469946A2464E
:1023E000AB46F8BD6346134311D0731E002B00D0DB
:1023F00007E1861886428041614440420918012560
:102400000B0237D502257BE73E0061469146350039
:10241000C5E75C46002D00D0E1E00B000343F3D09C
:10242000731C00D1ACE1214B9F4200D13AE1F34350
:10243000382B00DD6FE11F2B00DD8CE120250E0025
:10244000ED1AAE40B0460600AA46DE40454635438A
:102450002E005546D940A8406346451EA8415B1A48
:102460009C463043161AB242924163465242991A30
:102470003D00B4E607223240002A00D0E4E60B4BD0
:10248000F6084F073743CA089D4200D090E73B004B
:10249000134300D1A6E180231B031A431203120B3E
:1024A000024D89E715000022002785E7FF0700009D
:1024B000FFFF7FFFFFFF0F80002E00D0C7E06B1CE7
:1024C0005E05760D012E00DCF0E0C84DAB4200D178
:1024D000B9E085180A008542894162444942511891
:1024E0000722CE076D082E43490832401D00A9E699
:1024F000BF49ED1A114007223240A3E632002838C6
:102500008240002686E6300000F068FA203073E64C
:10251000634613435A1E9341C61AB042804140425B
:10252000091A5CE60E00674606431743002D5ED18C
:10253000002E00D0F3E0002F00D11EE15C46614682
:1025400091462CE7A94FBE427BD01E00F1E6100059
:102550001F3DE840202B03D04021CB1A9A40164360
:10256000731E9E410722064332400021002583E767
:10257000161A6346B2428041591A40420B1A9846D5
:102580005C4632E61F2E00DDABE02027BB1B9A46DF
:1025900063465746BB40994613004F46F3401F43DE
:1025A0003B005746BA40571EBA4113436246F240B9
:1025B000891898E62027BB1B9A4663465746BB40BE
:1025C000994613004F46F3401F433B005746BA401D
:1025D000571EBA4113436246F240891A9CE7834B67
:1025E0009F425FD080252D047342294320E7002EAF
:1025F0000CD1002F00D1D0E05C46614691467B4D66
:10260000CDE67A4FBE421CD01E0065E6002F18D0E2
:10261000C0084E0706438020C9080003014208D0C5
:102620006346DC08044204D12100DA46D2085E0782
:102630001643F300994601245346C900720F114313
:102640001C406A4DABE61D0000220027B4E6002DB9
:1026500059D10B00034300D1D6E6731C00D1B2E080
:10266000624B9F421ED0F343382B6FDC1F2B00DDE3
:1026700097E020250E00ED1AAE40B0460600AA46AF
:10268000DE40454635432E005546A840D940451EFC
:10269000A8418C440643B618964292415142614487
:1026A0003D0025E63D006146914678E60B00034378
:1026B000002D00D055E6002BF5D06346134300D122
:1026C0006DE6861886428041614440420918002226
:1026D0000B0200D4D0E6464B01351940B2E5B146B5
:1026E0005DE633006746203BDF403B00202E05D0EF
:1026F0004027BF1B6646BE40324390464646721E88
:1027000096413343EFE5394B9F42CBD080252D04D2
:1027100073422943A8E70843411E8841A2E6002FDF
:1027200000D13CE66346861ACF1AB0429B415B4219
:10273000FB1A98461B024ED5161A6346B2429241C6
:10274000591A5242891A5C4600227BE501430E0069
:10275000711E8E419FE71D000E00203DEE40B046E9
:10276000202B04D04025EB1A994008438146484667
:102770004346411E8841184374E60022002417E6B0
:10278000161A6346B2429241591A5242891A3D00C2
:1027900025E561469146154D01E68022002412038D
:1027A00079E61D000E00203DEE40B046202B04D0FF
:1027B0004025EB1A9940084381464E464346711E18
:1027C0008E411E4367E7861896429B4161445B42F7
:1027D000C9183D008CE547463743CED00722414615
:1027E000324049E600273A00E6E5C046FF07000010
:1027F000FFFF7FFF30B5144D0A034B00120B5B0D3A
:10280000C90F0024AB4211DD104CA34210DC802420
:10281000640322430E4CE41A1F2C0CDD0D48C31A2E
:10282000DA4013005C42002900D11C00200030BDBA
:10283000094BCC18FAE7094DE040AC4663449A4096
:1028400013000343EEE7C046FE0300001D04000032
:102850003304000013040000FFFFFF7FEDFBFFFFC8
:1028600070B500282DD0C317C5185D40C40F2800CF
:1028700000F0B4F8154B1B1A5B055B0D0A2815DD3B
:102880000B38854000222D032D0B002110002D0355
:102890000A0D2D0B12052A430D4D1B052A4013432B
:1028A0005B00E4075B082343190070BD02002900A8
:1028B000153291400A000B21081AC5402D032D0B3B
:1028C000E3E70024002300250022DEE71E040000C9
:1028D000FFFF0F8010B5041E25D000F07FF8144BC9
:1028E0001B1A5B055B0D0A2812DD0B3884400022A1
:1028F0002403240B0021100024030A0D240B1205CD
:1029000022430C4C1B05224013435B00590810BDA9
:1029100002002100153291400A000B21081AC44020
:102920002403240BE6E7002300240022E2E7C0464C
:102930001E040000FFFF0F804100090E4B1C70B504
:10294000DBB24602750AC40F012B14DDE0239B00A5
:102950006D07360BCB1800210A0D280012051C4DFF
:1029600032435B052A405B0813435B00E4075B08C6
:102970002343190070BD002914D1002D1ED028005A
:1029800000F02CF80A281CDC0B232A001B1ADA4062
:10299000030015339D400F4B12031B1A5B05160BEA
:1029A0005B0DD8E7002D06D0320B802636036D076D
:1029B0001643094BCFE7084B0026CCE7002300263F
:1029C000C9E703002A000B3B9A400025E3E7C04615
:1029D000FFFF0F8089030000FF0700001C21012377
:1029E0001B04984201D3000C10391B0A984201D3F2
:1029F000000A08391B09984201D30009043902A2D0
:102A0000105C40187047C046040302020101010136
:102A1000000000000000000010B5002903D1FFF7FE
:102A2000DDFF203002E0081CFFF7D8FF10BDC046D4
:102A3000F0B54E465746DE464546E0B50F0000214C
:102A400083B006008946002F06DA39000027464287
:102A50008F41012149428946002B07DA4946C94383
:102A6000100089461900002342428B4134003D008A
:102A700092469846BB4269D866D041465046FFF719
:102A8000CBFF834639003000FFF7C6FF5B461B1AB9
:102A90009C46203B9B4600D575E0514658468140F8
:102AA0000B005146604681400A00BB4261D85ED0AF
:102AB00034003D005946A41A9D41002900DA7AE00D
:102AC0000021002001260090019159468E40019678
:102AD000614601268E4061460096002950D0D907F4
:102AE00056085F080E4363460EE0AF4201D1A6428E
:102AF0000CD8A41BBD41012124196D410022013BCA
:102B000064185541002B06D0AF42EED9013B241981
:102B10006D41002BF8D1009801995B46001969417D
:102B2000002B3DDB2E00DE4063462C00DC405B4684
:102B3000002B4BDB34005D46AC4023006446A640CE
:102B40003200801A994103E0B24296D90020002158
:102B50004B46002B04D003000C0000215842A14139
:102B600003B03CBC90469946A246AB46F0BDB1428C
:102B70009ED9002100200090019161460029AED12C
:102B800000980199E4E72023624651469B1AD940F8
:102B90004046009161468840030000990B4380E75E
:102BA000624620239B1A2A009A40260013006246A0
:102BB000D6401E43B8E7614620260127761A00203A
:102BC0000021F74000900191019781E7674620239B
:102BD00062463500BC409B1ADD4023002B43ADE725
:102BE0000023C25C0133002AFBD1581E704700004D
:102BF00013B508220021684616F0F2FD8022194C18
:102C0000194BD20562600122236000232261A218C1
:102C1000D377A21CD377C222FF32626222002C3209
:102C2000137004222000E363A360A363E360A36244
:102C300062612363A3616363E36101F0FFF900282C
:102C400001D000F041FA094B69460093802320002F
:102C50005B01019301F0CAFA002801D000F034FAB8
:102C600013BDC0467C23002000240140000004481E
:102C7000054B02689A4205D18023044A9B00516BA0
:102C80000B4353637047C0460024014000100240CC
:102C9000F0B5012602278BB01422002105A816F0FA
:102CA0009FFD04204B4B4C4DDA6A00243243DA621C
:102CB000DA6A32400192019ADA6A3A43DA62DA6AEF
:102CC0003A400292029AD96A0143D9628021DA6AB3
:102CD0000240A0200392039ADA6AC0050A43DA622E
:102CE000DB6A00220B4004933C49049B01F0DAFBB1
:102CF00028000022402101F0D5FB0022072138489E
:102D000001F0D0FBA020374B05A9C005059308971B
:102D10000696079401F00CFB3323334F05A92800D6
:102D200005930697079401F003FB402305A92800AB
:102D3000059306960794089401F0FAFA802305A9F2
:102D40009B01274805930697079401F0F1FAA0200C
:102D50000322264B05A9C00506920593079401F0AE
:102D6000E7FA842305A9280007270593069407940A
:102D700001F0DEFA022305A9194808930597069683
:102D8000079401F0D5FAC023A0209B0005A9C00537
:102D9000059306960794089401F0CAFAC02303220B
:102DA0001B0105A9280005930692079401F0C0FABB
:102DB00022002100052001F06DFA052001F094FAAF
:102DC00022002100380001F065FA380001F08CFA89
:102DD0000BB0F0BD00100240000400500293000050
:102DE0000008005002900000000011103D0C00008F
:102DF00070B501258AB00C22002107A816F0F0FC5E
:102E00000220394B394CDA6A03262A43DA62DA6A3D
:102E10002A400192019AD96A0143D962DA6A0240D2
:102E20000292029AD96A00180143D9628021DA6AB3
:102E300002400392039ADA6A2D480A43DA62DB6A97
:102E400006940B400493049B132305A9059301F0FA
:102E50006FFA8023069400249B0105A92548059359
:102E6000079401F065FAA020234B05A9C00505933E
:102E70000696079401F05CFA842305A91C48059383
:102E80000694079401F054FAC023A0209B0005A9E2
:102E9000C005059306950794089401F049FAC023EC
:102EA00005A91B01124805930696079401F040FA04
:102EB00022002100052001F0EDF9052001F014FAAF
:102EC00022002100072001F0E5F9072001F00CFAAB
:102ED0000A4B9B7DA34203D101F030F80AB070BDCC
:102EE00001F038F8FAE7C046001002400000111067
:102EF00000040050000800503D0C0000382700205E
:102F000010B5134B134C01222360134B2000636058
:102F10000023E260A36023616361A361E361236234
:102F200001F050FC002801D000F0CEF80021200074
:102F300001F042FF002801D000F0C6F80021200077
:102F400001F060FF002801D000F0BEF810BDC046BF
:102F500000540040D8230020BB7C700010B5040052
:102F600086B01422002101A816F03AFC104B22680A
:102F70009A421AD102210F4C0F48E26A0A43E262D8
:102F8000E36A0B400093009BC0239B000193122334
:102F900002930F3B049301A90133059301F0C8F993
:102FA0008023A26B9B031343A36306B010BDC046EE
:102FB0000054004000100240000400500748084B35
:102FC00010B5036006234360064BC360836001F0C5
:102FD0003DFF002801D000F077F810BD2424002028
:102FE00000300040FF0F000030B59DB038220021B6
:102FF0000EA816F0F5FB14220021684616F0F0FB2F
:103000002422002105A816F0EBFB80231D491E4C4D
:103010000A681B01224013430B6001F04BFF1B4A5F
:103020000125136D0EA8234013650E230E93F23372
:103030001093F03B12930E3B189380231B031A93BB
:10304000802300241B041B9311951395199401F000
:10305000ABFF0F232900009368460C3B01930294B9
:103060000394049402F028FA2C230593C0231B0137
:103070000993802305A85B020A94069302F0F4FAF0
:103080001DB030BD00700040FFE7FFFF00100240A0
:1030900010B500F083FFFFF7A7FFFFF7F9FD00F081
:1030A00035F800F0B1F800F0D1F8FFF787FFFFF72F
:1030B0009FFD00F0A9F9FFF723FF00F0EBF915F0F1
:1030C0002FF815F055F8FCE77047000010B50248DE
:1030D00015F092F910BDC0465800002010B5054803
:1030E00014F0A2FC8021044A4900044815F0AAF813
:1030F00010BDC04680AB0108CD300008102700008D
:1031000010B510F085FB14F00DFF10BDF0B50025D3
:1031100091B001AF14220021380006AE16F060FB1A
:10312000282229003000009516F05AFB274C284B26
:10313000200023607F23A36080336560E360256106
:103140006561A561E56102F0D3FBA84201D0FFF7FC
:10315000BBFF3D80BD70002239002000FD603D6155
:1031600002F02EFC002801D0FFF7AEFF194B002221
:1031700069462000009302F0A3FC002801D0FFF76D
:10318000A3FFF0231B05B361192301216B44D977F9
:10319000802300225B00310020003280B270726018
:1031A000F26032617261F261736202F0F5FC002834
:1031B00001D0FFF789FF00222000110002F008FE75
:1031C000002801D0FFF780FF11B0F0BD34240020AB
:1031D0000028004001010100094B026810B59A4225
:1031E0000DD18023074ADB02116D02200B431365CA
:1031F0000022110001F04EF8022001F075F810BD18
:1032000000280040001002400E480F4B10B503602C
:10321000822380225B004360002392008261E13AB6
:103220008360C36003614361FF3A03624362836268
:103230000733C261C36202F0EDFE002801D0FFF740
:1032400043FF10BDB0240020003001400C480D4B5E
:1032500010B5036082235B00436000238360C3607A
:10326000036143618361C361036243628362073325
:10327000C36202F0CFFE002801D0FFF725FF10BD8A
:10328000582400200038004030B5040089B01422D2
:10329000002103A816F0A4FA2368254A93422CD1F2
:1032A00080220224234B5201596B03250A4301213A
:1032B0005A63DA6A20482243DA62DA6A22400092CC
:1032C000009ADA6A0A43DA62DB6A04940B400193DB
:1032D000019B082303A90393069501F029F8C02355
:1032E000A02003930023049405930695079303A954
:1032F000C00501F01DF809B030BD104A9342FAD163
:1033000080220C4BD201996B0B480A439A6302222C
:10331000D96A1143D962DB6A03A913400293029B65
:10332000F0231B020393032304920693E1E7C046B4
:1033300000300140001002400004005000380040FE
:103340000122054B596B0A435A638022996B52053F
:103350000A439A637047C046001002407047FEE778
:103360007047704710B515F091FF10BD10B5044CB3
:10337000200002F057FA200002F0E2FD10BDC04626
:103380003424002010B5012001F092F8022001F051
:103390008FF810BD10B5102001F08AF8202001F040
:1033A00087F88020800101F083F810BD8022104B47
:1033B000520019680A431A60DA680E490A40DA6056
:1033C0001A680D490A4001211A609A688A439A6076
:1033D0001A680A490A401A60DA6809490A40DA603C
:1033E00000221A618022074B12059A607047C0467E
:1033F000001002400C40FF88F6FFF6FEFFFFFBFFC7
:10340000FFFF02FF00ED00E010B586B010220021A2
:1034100002A816F0E5F908220021684616F0E0F946
:10342000134C144B2000236000236360A360E3600F
:103430002361636102F05AFF002801D0FFF744FEC8
:10344000802302A95B012000029302F06BFF002899
:1034500001D0FFF739FE0023694620000093019355
:1034600003F002F8002801D0FFF72EFE06B010BDD1
:103470000825002000080140044B02689A4204D14C
:103480000423034A516B0B43536370470008014008
:10349000001002400B480C4B10B5036096239B01B3
:1034A00043600C22002342618360C3600361836137
:1034B0000362436203F058FA002801D0FFF704FECC
:1034C00010BDC046442500200048004010B504004F
:1034D00086B01422002101A816F082F9104B226850
:1034E0009A421BD180220F4BD202996BA0200A4333
:1034F00001219A63DA6AC0050A43DA62DB6A0B408B
:103500000093009BC023DB010193022302935B180D
:10351000049301A90333059300F00AFF06B010BD20
:10352000004800400010024010B50300012919D1E5
:1035300003780C003F2B59D10931374812F08EFC2B
:10354000364812F08BFC364812F088FC354812F0F1
:1035500085FC354812F082FC0A21344812F07EFCCA
:10356000002443E00124052940D900784D283DD1AD
:10357000587843283AD198783A2837D118793A2898
:1035800034D1D8783038052830D8FCF7BDFD030E8B
:10359000161E263C062904D0581D14F033FE244B79
:1035A0005874244812F05AFCDAE70629F9D0581D5D
:1035B00014F028FE1E4B9874F3E70629F1D0581D2D
:1035C00014F020FE1A4BD874EBE70629E9D0581DF9
:1035D00014F018FE164B1875E3E75B79302B07D112
:1035E0000024134B13489C7512F038FC200010BDCA
:1035F000312B03D101220E4B9A75D2E70E4812F0FF
:103600002DFC0224F2E70629CBD0581D14F0FAFD58
:10361000074B5875C5E7C0468DAB0108BBAB010829
:10362000F2AB01082AAC010863AC010897AC0108B1
:1036300020270020C4AC0108C9AC01082D482E4B3E
:1036400070B503602D4B43600023836012F004FECD
:103650002B4B9B7D002B38D100F070FC0022002307
:10366000284C22606360220000232C3223616361B6
:10367000A360E36023761370E38523866386A386C5
:10368000E386E363238703F0CDFA051E20D00128EB
:103690002AD0E08E6421FCF755FD23004B331870CF
:1036A000208E6421FCF74EFD230048331870608E95
:1036B0006421FCF747FD230049331870A08E642174
:1036C000FCF740FD4A34207070BD00F043FCC5E7B4
:1036D0000D49022003F0AAF90C49012003F0A6F9D4
:1036E0000B49280003F0A2F90A49052003F09EF9CE
:1036F000CFE7C0464402002029350008A138000861
:1037000038270020C8250020FC250020FA250020AD
:10371000F8250020FE250020FA22F8B54A4C0023A7
:10372000206861689200FCF72BFF0100474812F007
:1037300095FB2169464812F091FB6169454812F0FA
:103740008DFBA168444812F089FBE168434812F000
:1037500085FB217E424812F081FBE7694149380030
:10376000FCF77AFD0A256843642106003800FCF75F
:1037700073FDFA21361889003800FCF76DFD320020
:103780000100394812F06AFBFA21276A89003800E3
:10379000FCF7D8FC642106003800FCF7D3FC2A00B3
:1037A00072433100821A314812F058FB676A642173
:1037B0003800FCF7C7FC290006003800FCF7C2FC03
:1037C0002A0072433100821A294812F047FBFA217D
:1037D000A76A89003800FCF7B5FC060064213800B0
:1037E000FCF7B0FC75433100421B224812F036FB57
:1037F000218E214812F032FB618E204812F02EFB00
:10380000A18E1F4812F02AFBE18E1E4812F026FB03
:10381000E16B1D4812F022FB218F1C4812F01EFBA9
:1038200023002C3319781A4812F018FBE18D19483F
:1038300012F014FB1821184B18481A785143203104
:10384000C91812F00BFBF8BDC8250020CEAC01084A
:10385000EEAC01080AAD010829AD010845AD01082B
:1038600063AD010818FCFFFF7AAD010896AD0108B1
:10387000B4AD0108D5AD0108F2AD01080EAE0108E6
:103880002AAE010846AE010861AE01087DAE01080E
:1038900098AE0108B1AE010858000020D0AE010872
:1038A000012310B5994204D102783F2A03D0732A2C
:1038B00009D0180010BD064812F0D0FA054812F0E1
:1038C000CDFA0023F5E7FFF727FF0348F7E7C046E7
:1038D000E9AE0108F7AE0108C4AC01080022044BB0
:1038E00002209A75034A1A61034A9A827047C046B9
:1038F0003827002001030A06140C000010B5074BFE
:10390000074A9B7D927D9A4203D0002B03D100F0A1
:1039100015FB002010BD00F01DFBFAE7202700205A
:103920003827002070B504000A25017C114812F0E8
:1039300095FA617C1048694312F090FAA37C617C8F
:103940000E485943694312F089FAE17C0C4812F0A1
:1039500085FA237D617C0B485943694312F07EFA56
:10396000617D0948694312F079FAA17D074812F098
:1039700075FA70BD12AF01082BAF010845AF010801
:103980005EAF010876AF010891AF0108AAAF010848
:1039900001207047D0B514F099FDFA220F4C920027
:1039A000266867680023801BB941FCF7E9FDFA210E
:1039B0008900414300230A00B6185F41236926604D
:1039C00067601B18236163691B186361A3681B1878
:1039D000A360E3681818E060D0BDC046C825002089
:1039E00007B511001F481A0014F01EF81E492020C8
:1039F00014F028FA002011F00BFF002803D000215A
:103A00001A4813F073FE002003F020F9002803D0B9
:103A10000021174813F06AFE012003F04FF8012837
:103A200003D90021134813F061FE01200FF0E2FFDB
:103A3000002803D00021104813F058FE00F000FACF
:103A4000FFF7FCFD684614F067F900236A46D25C74
:103A5000002A01D009480EBD0133082BF6D1012000
:103A6000F9E7C046C7AF010804000020020000E0EB
:103A7000030000E0060000E0050000E00580000013
:103A80000023F0B5B7B007900A93684C002866D1C0
:103A9000E0696421FCF7E0FB80270BAD0AAE2880CB
:103AA00016AB2A00672101970096079814F010F8CA
:103AB000FA21206A4900FCF745FB16AB28702A0062
:103AC000682101970096012014F002F8606A0A212B
:103AD000FCF738FB16AB28802A007321019700966B
:103AE000022013F0F5FFFA21A06A8900FCF72AFBF7
:103AF0002A00288016AB019700966521032013F059
:103B0000E7FF01224A4B494C597C987C01254843E8
:103B10000A2141432069884201D9002525611F20DF
:103B200002A940182021017003901E2000260EAF2C
:103B3000049702AFC019029005965B790A99019328
:103B4000C9B20095062316A814F099FA0138062880
:103B500051D8FCF7D9FA56544B4B506669000122F4
:103B6000079B9342CED1E08E0A21FCF7EBFA802727
:103B70000BAD0AAE288016AB2A00022101970096F1
:103B8000082013F0A5FF208E0A21FCF7DBFA16AB04
:103B900028802A00022101970096092013F098FF3F
:103BA000608E0A21FCF7CEFA16AB28802A0002218B
:103BB000019700960A2013F08BFFA08E0A21FCF7D4
:103BC000C1FA16AB28802A000221019700960B202B
:103BD00013F07EFF238F2A002B800221019700968D
:103BE00016AB0C2013F074FF02228BE7114813F080
:103BF0001BFF002323760225280037B0F0BD267670
:103C0000F9E7002D02D1237E01332376237E02259E
:103C10002C34062BF0D900210748257013F066FDDF
:103C2000EAE72C340225F6E70325E5E7C82500205E
:103C300038270020D8AF01080400002070B5504C90
:103C4000052523002C331B78012B17D14D4D6A7CA1
:103C5000002A15D16A7D0225002A0FD096239B00E9
:103C60005343E26802259A4208D30023E36002F03E
:103C7000D9FF061E4AD0012800D16EE0280070BD91
:103C80000A235343A2689A42E4D314F01FFC00268F
:103C900001003D4813F0C8FE3C4A3D493D48A6603E
:103CA00011F048FFB04203D031003B4813F01EFD35
:103CB0003A4802F0F9FF002803D00021384813F0F9
:103CC00015FDFA21206A8900FCF73CFA230008332D
:103CD000D8870A21E069FCF7BFFAA31CD8876421C2
:103CE000606AFCF72FFAFA21231DD8878900A06AA1
:103CF000FCF728FAA31DD8872A4800F0D9F823003A
:103D00002C331B78012BA5D1274DB7E72749280075
:103D100002F08CFE2649012002F088FE2549300081
:103D200002F084FE244802F06DFF238F208EDB43D7
:103D300064212387FCF706FA230048331870608E4D
:103D40006421FCF7FFF9230049331870A08E642129
:103D5000FCF7F8F923004A3318701849052002F0DF
:103D600065FE174802F030FFE36BE08E5B42E363D1
:103D70006421FCF7E7F94B342070124D7EE7C04612
:103D8000C825002038270020E9AF0108E8250020D9
:103D9000EC250020E4250020020000E0F0250020B2
:103DA000030000E00826002003800000FC2500201E
:103DB000FA250020F825002000260020FE250020FE
:103DC000042600200480000070B51B4D2E002C3608
:103DD0003478002C03D0022C1BD0022004E013F016
:103DE0003FFF002801D0052070BD13F01FFF012800
:103DF00006D12B0001222C331A700023EB85ECE74F
:103E0000EB8D01339BB2EB85142BECD9022333707D
:103E1000E9E70A494B7C0A7D5A430A2353436A69FE
:103E20009A42E0D900236B6113F000FF0128E0D033
:103E3000EB8D0133E2E7C046C8250020382700207B
:103E400013B50FF09DFC002108236A4608000FF00F
:103E5000D9FE002805D00021104813F047FC0124AA
:103E600009E00F4B009A9A4209D169460D4AC98868
:103E7000914204D100240FF049FC200016BD00211E
:103E80000093094B6A460193080008230FF03CFD9C
:103E90000028EFD000210548DFE7C046070000A05A
:103EA0004B5349440D03000000000D03080000A01F
:103EB00013B504000FF064FC002108236A460800D3
:103EC0000FF0A0FE002808D000211A4813F00EFCC5
:103ED00001240FF01BFC200016BD6B465979DB79DD
:103EE000013159432200C9B20C230FF00DFD002807
:103EF00002D000211048E9E76B466A4669465B79C3
:103F00000133DBB25371897912798A4202D2684651
:103F1000013202718B4202D300236A4653710021A1
:103F200008236A4608000FF0EFFC0028E1D10400E6
:103F3000CFE7C046070000A0080000A0802110B510
:103F40004900002014F06FFD80210020890014F04A
:103F500061FD10BD802110B54900002014F05AFD0C
:103F600080210020890014F05EFD10BDFA210A4B6B
:103F700070B5890005001868FCF7E4F800F0BEF998
:103F800004000120002C05D102382200290000F095
:103F900081F9200070BDC046000000204023084A7F
:103FA00010B5116800200B431360FFF7DFFF041EFC
:103FB00003D1FFF7C5F9200010BD0124FBE7C0467F
:103FC00000200240014B18687047C04618260020A8
:103FD00070B50400FFF7F6FF631C5A1E93410500FD
:103FE000E418FFF7EFFF401BA042FAD370BD0000BA
:103FF0000221024A13688B431360704710E000E00F
:104000000223024A11680B431360704710E000E07E
:10401000084B13B5040008491868FCF793F84443AB
:104020000194019B002B00D113BD019B013B019327
:10403000F7E7C0460000002040420F0070B50400C2
:104040000120002C19D0636D002B06D122005032C4
:10405000A36520001370FEF70BFE636DDB0604D42E
:10406000042223689868104008D01023626D012054
:104070001343636500235034237070BD626D55494E
:10408000114002220A436265032299681140524A94
:10409000012902D11D680D4219D180266168F605FB
:1040A0004D006D08B54203D080252D06A94276D17A
:1040B0001D69AD00AD081D611D69294319611825F1
:1040C000D968A943D960D968A5682943D96011681E
:1040D000424D29401160616B156849062943116002
:1040E000802299685205114202D199680A439A6068
:1040F000DA683B490A402169DA60DD68E268022932
:1041000000D10420266B611C32432A43A569C97F74
:10411000AD032A43E569ED032A434D032A432500F5
:104120002C352D786D002A430243C220DA60626A82
:10413000FF30824204D0A56AD8682A430243DA607D
:10414000A21CD27F012A06D1002934D18022D9684D
:1041500052020A43DA60E16B1A69012933D121481E
:10416000656C02401A61226C18692A43A56C2A43C7
:1041700002431A611A691143196107215A69002023
:104180008A435A615A69A16B0A435A610322A065A6
:10419000636D93431A000123134363656DE71D6943
:1041A000114EAD00AD081D611568354015601568EC
:1041B0002943116083E72021606D01436165A16D92
:1041C0000A43A265C7E701210A42D6D01A698A4389
:1041D0001A61D2E7FDFEFFFF08270140FFFFFFFD48
:1041E0001902FEFF03FCFFFFFFFFC3FFF8B5040049
:1041F0005034237806000D000220012B0BD03268CA
:104200000138916820704B0706D52022716D0A4352
:10421000726500222270F8BD80232868194E6F68ED
:104220004103DB02490B0340B74219D0906A0143B6
:104230009162002B08D08023134A1B0411680A20C6
:104240000B431360FFF7E4FE2B689B0305D5802327
:104250000D4ADB0311680B43136000202070DAE77E
:10426000956A8D439562002B04D0074A074913686D
:104270000B4013608303F0D5034A054913680B40D4
:10428000EAE7C0460110000008270140FFFF7FFF5A
:10429000FFFFBFFF30B5FF2503242A00C3B21C4037
:1042A000E400A24089012940D243A14000280BDA52
:1042B0000F200340083B0A489B089B001B18D86945
:1042C00002401143D96130BD064B80088000C01800
:1042D000C0239B00C45822401143C150F3E7C0469D
:1042E00000ED00E000E100E01F2318401E3B83408A
:1042F000014A13607047C04600E100E0094A431ECE
:10430000012093420DD8C021074A08485360036A30
:1043100009061B021B0A0B4303620020072390605F
:1043200013607047FFFFFF0010E000E000ED00E0C9
:10433000F0B5544A0B688218541EA24187B003930B
:10434000002305320592039ADA4001D107B0F0BD8F
:1043500001259D40039A2A40029200D18FE04A68CD
:1043600001921022019E9643022E0FD1DA0892008C
:1043700007248218176A04920F221C40A400A2404E
:1043800097430A69A2401743049A176203225C000C
:10439000A240013ED243012E0DD8CE688768A640C8
:1043A00017403E4386604668AE43019DED06ED0F23
:1043B0009D40354345600326019D07683540A54073
:1043C00017403D430560C5682A408D68A5402A43D3
:1043D000C260019AD20052D501252B4CAC46626BCB
:1043E0000F272A431D003540AD00AF406263274AC6
:1043F0009C08A400A418A268BA43A0270492FF0551
:104400000022B84210D0224F6246B8420CD0214F51
:104410009218B84208D0204F3200B84204D01F4E44
:104420006244B04200D0059AAA40049D019F2A43ED
:10443000A2601B4A029C1668029DE4433543FF03B9
:1044400001D43500254015605668029D019F354313
:10445000BF0301D43500254055609668029D019F39
:104460003543FF0201D4350025409560D568029E92
:10447000019F2E43BF0201D425402E00D660013398
:1044800061E7C04600E4FFAF0010024000000140B9
:104490000004005000080050000C005000100050B4
:1044A00000040140002A01D0816170478162FCE76D
:1044B000044B10B55A69104202D0586114F0CCFA7E
:1044C00010BDC0460004014003689A69920701D5F7
:1044D00000229A6201229969114202D199690A4324
:1044E0009A61704730B5039C12040068224313435D
:1044F000054A45688905640D890D1443A5430B439E
:104500002B43436030BDC046FF63FF03F8B503682B
:104510000400986910230E00170018402025002879
:1045200018D1F8BD721C16D0FFF74CFDC01BB0426D
:1045300001D8002E0ED12022636C13436364230044
:1045400041331A702200002342324034137001209C
:104550002370E6E723689A692A42E3D010222000FC
:10456000DA61DD61FFF7B0FF2268064953680B404E
:1045700053600423626C13436364230041331D7052
:10458000E0E7C04600E800FEF8B504000D001700A3
:10459000042623689B69334211D13A002900200088
:1045A000FFF7B4FF00281AD1202123689A690A4234
:1045B00017D09A69324204D0228D002A01D00020FF
:1045C000F8BD2021D9615A680E4802405A60220085
:1045D0000023413263641170403453702370012012
:1045E000EEE7FFF7EFFCC01BA84201D8002DD0D1A9
:1045F0002022636C13436364230041331A704034F8
:104600000023EBE700E800FEF8B504000D001600FB
:10461000202723689B693B4201D00020F8BD32006F
:1046200029002000FFF772FF002813D1FFF7CAFC12
:10463000801BA84201D8002DEBD12022636C1343CC
:104640006364230041331A70220000234232403455
:10465000137023700120E1E7F8B504000E00170085
:104660001D002268936933409B1B59424B41BB425A
:1046700001D0002017E06B1CF4D0FFF7A3FC069BD1
:10468000C01AA84201D8002DEBD12022636C012072
:1046900013436364230041331A7022000023423223
:1046A000403413702370F8BDF8B504000D001600F7
:1046B000022723689B693B4201D00020F8BD3200ED
:1046C00029002000FFF722FF002815D16B1CF0D035
:1046D000FFF778FC801BA84201D8002DE9D12022E9
:1046E000636C13436364230041331A702200002378
:1046F00042324034137023700120DFE773B5140099
:104700001E00DAB2154B0500009380235B04FFF70F
:10471000E9FE079A06992800FFF7C6FF002801D096
:10472000012076BD2B68012E0DD1E4B29C62079B5F
:10473000002200938021069B2800FFF78DFF431E77
:104740009841C0B2EDE7220A9A620699079A2800BA
:10475000FFF7AAFF0028E3D12B68E6E700200080DE
:1047600073B5050014001E00DAB2154B0093002348
:10477000FFF7B8FE079A06992800FFF795FF002873
:1047800001D0012076BD2B68012E0DD1E4B29C62D0
:10479000079B002200934021069B2800FFF75CFF47
:1047A000431E9841C0B2EDE7220A9A620699079A21
:1047B0002800FFF779FF0028E3D12B68E6E7C04621
:1047C0000020008070B504000120002C3FD025009F
:1047D00041352B78DBB2002B05D12200403213701B
:1047E0002000FEF7BBFB242301212B702368E06827
:1047F0001A68A6688A431A6061681A4A0A401A61F0
:104800009968194A11409960012821D18021090233
:10481000314399605868154901435960D9680020AF
:104820000A40DA60616922690A43A16909020A4300
:10483000DA60216AE2690A431A60012219680A43B0
:104840001A60202360642B7020634234207070BD96
:1048500084210902314399600228DBD180210901BA
:104860005960D7E7FFFFFFF0FF7FFFFF00800002E6
:10487000F0B5050087B003910492059341352B787C
:1048800004000220202B14D1230040331A78012A7F
:104890000FD001261E70FFF795FB802107000090C6
:1048A0001923320009022000FFF7D6FE002802D0AB
:1048B000012007B0F0BD21232B702500113B4235AC
:1048C0002B70049B606463626B469B8A60636385A4
:1048D000628D304BFF2A21D9FF222285009380234D
:1048E0005B0403992000FFF7FDFDFF26638D3A006E
:1048F0000C992000002B19D1FFF786FE0028D7D194
:1049000020212368244ED9615A6832405A6023001E
:1049100040344133197028702070CAE7628D92B21A
:10492000228500938023D2B29B04DAE7FFF7BCFE16
:104930000028BDD1636A22681978013391626362ED
:10494000638D228D013B9BB26385013A638D92B2E8
:104950002285002BCAD0002AC8D100970C9B802149
:104960002000FFF779FE0028A2D1638DFF2B09D923
:104970008023FF2226855B04009003992000FFF727
:10498000B1FDB3E78023628D9B0492B22285D2B23F
:104990000090F2E70020008000E800FEF0B505007E
:1049A00087B003910492059341352B7804000220CF
:1049B000202B14D1230040331A78012A0FD001266E
:1049C0001E70FFF7FFFA80210700009019233200C4
:1049D00009022000FFF740FE002802D0012007B0A6
:1049E000F0BD22232B702500123B42352B70049B17
:1049F000606463626B469B8A60636385628D314B42
:104A0000FF2A21D9FF222285009380235B0403998A
:104A10002000FFF767FDFF26638D3A000C99200008
:104A2000002B19D1FFF7F0FD0028D7D120212368F2
:104A3000254ED9615A6832405A60230040344133D0
:104A4000197028702070CAE7628D92B22285009397
:104A50008023D2B29B04DAE7FFF796FD0028BDD190
:104A60002368626A5B6A1370636A228D0133636232
:104A7000638D013A013B9BB26385638D92B22285BF
:104A8000002BC9D0002AC7D100970C9B80212000A1
:104A9000FFF7E2FD0028A1D1638DFF2B09D9802308
:104AA000FF2226855B04009003992000FFF71AFD82
:104AB000B2E78023628D9B0492B22285D2B200902D
:104AC000F2E7C0460024008000E800FEF0B50700D1
:104AD00089B007930EAB069204CB41371B88049232
:104AE00005933B7804000D000220202B08D1002AFA
:104AF00002D0059B002B05D180239B00636401201D
:104B000009B0F0BD2300403303931B78012BF7D08D
:104B10000122039B1A70FFF755FA80210290009042
:104B20001923012209022000FFF796FD061EE6D197
:104B300021233B7027001F3342373B70049B606486
:104B400063626B469B8A60636385029B069A01934E
:104B5000109B290000932000079BFFF7CFFD002842
:104B600002D0039B1E70CAE7638DFF2B54D9FF222E
:104B7000802322855B040090290020008026FFF717
:104B8000B1FCB604029A10992000FFF78DFD0028B1
:104B9000B5D1636A22681978013391626362638DCB
:104BA000228D013B9BB26385013A638D92B22285CF
:104BB000002B18D0002A16D1029B802100932000E0
:104BC000109BFFF749FD002800D098E7638DFF2B6D
:104BD0002AD9FF2323858023FF2200905B0429002C
:104BE0002000FFF77FFC638D002BCBD1029A109938
:104BF0002000FFF709FD002800D080E7202123686E
:104C00000D4DD9615A682A405A602300403441331F
:104C100019703870207073E78023628D9B0492B204
:104C20002285D2B20090A7E7628D330092B222852E
:104C3000D2B20090D3E7C04600E800FEF0B507000E
:104C400089B007930EAB069204CB41371B880492C0
:104C500005933B7804000D000220202B08D1002A88
:104C600002D0059B002B05D180239B0063640120AB
:104C700009B0F0BD2300403303931B78012BF7D01C
:104C80000122039B1A70FFF79DF98021029000908A
:104C90001923012209022000FFF7DEFC061EE6D1DF
:104CA00022233B7027001E3342373B70049B606415
:104CB00063626B469B8A60636385029B069A0193DD
:104CC000109B290000932000079BFFF749FD002857
:104CD00002D0039B1E70CAE7628D354BFF2A58D95C
:104CE000FF222285009380235B0429002000802678
:104CF000FFF7F8FBB604029B002200930421109BEF
:104D00002000FFF7A9FC0028B1D12368626A5B6A22
:104D10001370636A228D01336362638D013A013B34
:104D20009BB26385638D92B22285002B18D0002A36
:104D300016D1029B802100932000109BFFF78CFC72
:104D4000002800D093E7638DFF2B2AD9FF2323850A
:104D50008023FF2200905B0429002000FFF7C2FBA4
:104D6000638D002BC7D1029A10992000FFF74CFCED
:104D7000002800D07BE7202123680E4DD9615A68B6
:104D80002A405A6023004034413319703870207033
:104D90006EE7628D92B2228500938023D2B29B048B
:104DA000A3E7628D330092B22285D2B20090D3E79E
:104DB0000024008000E800FEF0B5040041342278B1
:104DC0000300D2B20220202A18D11D0040352E78CF
:104DD000012E13D01B68223020701E6823388643B2
:104DE0001E601E68064F3E401E601E6831431960FB
:104DF000196808431860002022702870F0BDC04672
:104E0000FFEFFFFFF0B5050041352A780300D2B26D
:104E10000220202A17D11C0040342678012E12D0FF
:104E20001B68223028701E68233886431E601E6867
:104E3000054F09023E403143196019680843186064
:104E400000202A702070F0BDFFF0FFFF70B5040055
:104E50000120002C14D023680F4A1A600F4A1A60F0
:104E600062685A60A2689A60FFF7ACF80500236890
:104E7000D868002805D11969E268914208D01A6102
:104E800070BDFFF79FF8401B3028F0D90320F7E7EB
:104E9000034A1A60F4E7C046CCCC00005555000028
:104EA000AAAA00000368024A00201A607047C046A0
:104EB000AAAA00008023034A5B0011680B43136019
:104EC0007047C0460070004010B503240A4A1368BA
:104ED000A343184310600422084B186902431A6167
:104EE000012905D130BF04211A698A431A6110BD16
:104EF00040BF20BF20BFF6E70070004000ED00E09B
:104F00008023034ADB0011680B4313607047C046DF
:104F1000007000408023034A9B0011680B4313601C
:104F20007047C046007000400C22194B10B5D9687C
:104F30000A40082A29D00C2A09D0042A1DD1186851
:104F4000144BC006C0171840134BC01810BD8A027E
:104F50001248120F825C0902D868890F0131C00320
:104F600004D50F485043FBF7EDF8EFE71B68DB066D
:104F700001D50C48F6E70848F4E780205B6800029A
:104F80001B045B0F01339840E0E70548DEE7C046AD
:104F90000010024000E548FF0024F40030A00108A2
:104FA00000127A0000093D00F0B5050087B0002826
:104FB00002D1012007B0F0BD0C23C24CE668E268C4
:104FC0001E4080235B021A4001920268D20741D43E
:104FD0002B689B0700D587E02B68DB0628D5002EC1
:104FE00000D0E1E023689B0502D5EB69002BE0D0FF
:104FF0006268B5496B6A0A401A43626061682A6A4E
:105000000902090A12060A43626080225B0B01331F
:1050100012029A401300E16800200A06AB49120F01
:105020008A5CD340AA4A1360FEF7A0FF0028C1D1D2
:105030002B681B0700D5EEE02B685B0700D510E15D
:105040002B689B0600D595E1AB6A002B00D0C4E12C
:105050000020AFE7082E04D00C2E09D1019A002AB7
:1050600006D023689B03B3D56B68002BB0D1A0E7B3
:105070006A689A4211D1226813432360FEF7A2FFA7
:1050800007008022236892021342A1D1FEF79AFF03
:10509000C01B6428F5D903208CE7A021C9028A42ED
:1050A00005D180222168D2020A432260E3E7216809
:1050B00088480140216021680B400593059B864983
:1050C00023680B402360002AD8D1FEF77BFF07003E
:1050D000802223689202134200D179E7FEF772FF23
:1050E000C01B6428F4D9D6E72022EB68134203D012
:1050F0002168934311432160042E04D00C2E25D146
:10510000019A002A22D12268520702D5002B00D131
:105110004FE761682A697148120201400A43092178
:10512000626022688A4313432360FFF7FDFEE36851
:10513000664A1B061B0FD35CD840654B18600020E5
:10514000FEF714FF002800D146E733E7002B19D003
:10515000092122688A4313432360FEF733FF0700C7
:1051600004222368134207D062682B695B491B0243
:105170000A40134363602FE7FEF724FFC01B022899
:10518000EED988E70122236893432360FEF71AFFD4
:10519000070004222368134200D11DE7FEF712FF27
:1051A000C01B0228F5D976E7EB69002B20D08023BD
:1051B00022685B0013432360FEF704FF0700802290
:1051C0002368920013420DD063683F4A13406A6A15
:1051D0001343636062682B6A12021B06120A1343B0
:1051E000636025E7FEF7EEFEC01B0228E7D952E711
:1051F00023683B4A13402360FEF7E4FE0700802249
:1052000023689200134200D112E7FEF7DBFEC01BB9
:105210000228F4D93FE76A690123002A10D0226DE1
:1052200013432365FEF7CEFE07000222236D1342CF
:1052300000D001E7FEF7C6FEC01B0228F5D92AE719
:10524000226D9A432265FEF7BDFE07000222236D00
:10525000134200D1F0E6FEF7B5FEC01B0228F5D9D7
:1052600019E780230021A26B5B0501911A4204D14A
:10527000A26B1343A363012301938022194F5200B1
:105280003B68134208D08022AB68520093422BD176
:10529000226D134323654CE080223B685200134388
:1052A0003B60FEF78FFE80235B00029003933B6818
:1052B000039A1342E7D1FEF785FE029BC01A6428C9
:1052C000F5D9E8E600100240FF1FFFFF39A00108F2
:1052D00000000020FFFFFEFFFFFFFBFFFFE0FFFFDE
:1052E000FFFEFFFF00700040002B16D1236D6A4ABD
:1052F00013402365236D694A13402365FEF762FE60
:1053000007008022236D920013422AD0FEF75AFE36
:10531000634BC01B9842F4D9BDE6A021C9008B4263
:105320000BD18023216DDB000B432365236D1A43D2
:105330002265FEF747FE07000EE0236D564A134034
:105340002365236D554A1340A4E7FEF73BFE544BFB
:10535000C01B984200D99EE68022236D9200134222
:10536000F3D0019B012B00D06AE6A36B4D4A13409A
:10537000A36365E6A96901234B4A002918D0A168F7
:105380001943A160616B0B4363638023116A9B0126
:105390000B431362FEF716FE07000222A3681342B6
:1053A00000D051E6FEF70EFEC01B0228F5D972E6CA
:1053B000A1689943A160136A3C490B401362FEF750
:1053C00001FE07000222A368134200D13CE6FEF76B
:1053D000F9FDC01B0228F5D95DE60C2E43D0344AF6
:1053E000022B2ED12368802613402360FEF7EAFDAE
:1053F0000700B604236833421DD1296BEB6AE268CB
:105400000B432C490A4013436A6B80251343E36026
:10541000802322685B0413432360FEF7D3FD06005C
:10542000AD0423682B4200D012E6FEF7CBFD801BB3
:105430000228F6D92FE6FEF7C5FDC01B0228D9D9F0
:1054400029E62368802513402360FEF7BBFD060094
:10545000AD0423682B4200D1FAE5FEF7B3FD801BB3
:105460000228F6D917E68022E368E96A52021A4058
:1054700001208A4200D09DE5F022296B92031A4058
:105480008A4200D096E5C02000040340686B181AD9
:10549000431E9841C0B28DE5FFFEFFFFFFFBFFFFFB
:1054A00088130000FFFFFFEF00000140FFDFFFFF58
:1054B000FFFFFFFEFFFF02FFF7B5061E019101D1BE
:1054C0000120FEBD0122514C0199236813408B42FB
:1054D00027D3326893072FD4D30735D4012322680A
:1054E00001991A408A4200D981E03268484C53073A
:1054F00000D584E0130706D5E26833694549DB002F
:105500000A401343E360FFF70FFDE368424A1B06BE
:105510001B0FD35CD840414B18600020FEF726FDDE
:10552000CFE72368019993430B432360236813401B
:10553000019A9342C4D1CCE7F0203549CB6883432C
:10554000B0680343CB60C7E7314D72682B68022A0D
:1055500019D19B03B4D50321EB688B431343EB6054
:10556000FEF730FD73680700022B19D10C22EB689F
:105570001340082BB2D0FEF725FD294BC01B9842E3
:10558000F4D903209DE7032A02D19B01E3D497E7D6
:10559000012A02D15B07DED492E79B05DBD48FE7BB
:1055A000032B0BD10C22EB681340934296D0FEF7ED
:1055B00009FD1B4BC01B9842F4D9E2E7012B10D028
:1055C0000C22EB68134289D0FEF7FCFC144BC01B85
:1055D0009842F5D9D5E7FEF7F5FC114BC01B984270
:1055E000CFD80C22EB681340042BF4D176E7226865
:1055F0009A43226022681A4200D176E760E7E368A6
:1056000008490B40F1680B43E36073E70020024058
:1056100000100240FFC7FFFF39A001080000002072
:1056200088130000FFF8FFFF044B054ADB685B05A9
:105630005B0FD35C034A1068D840704700100240EB
:1056400049A0010800000020044B054ADB689B04C8
:105650005B0FD35C034A1068D840704700100240CB
:1056600049A00108000000200368F7B505009B066B
:105670003DD5802300215F4C5B05A26B00911A424F
:1056800004D1A26B1343A3630123009380275A4ED6
:105690007F0033683B426CD06868C023C02601009D
:1056A0002268B6039B023040324019401E009042EF
:1056B00000D06FE0236D334000D074E06968C023F0
:1056C0000A009B021A409A4207D123684B480340C4
:1056D000C020800301400B432360236D1A43009BCD
:1056E0002265012B03D1A36B454A1340A3632B68AA
:1056F000DA0706D503203F49CA6C8243A8680243F3
:10570000CA649A0706D50C203A49CA6C8243E868F5
:105710000243CA645A0706D536493A48CA6C024061
:1057200028690243CA641A0706D532493648CA6C4A
:10573000024068690243CA64DA0506D52D49334838
:10574000CA6C0240A8690243CA645A0606D52949B0
:105750002F48CA6C0240286A0243CA6400201B0614
:1057600017D5244A2B49D36C0B40E9690B43D3640A
:105770000FE033683B433360FEF724FC019033684D
:105780003B4289D1FEF71EFC019BC01A6428F6D962
:105790000320FEBD994200D08CE7236801209B03C3
:1057A00000D487E7F5E78B4200D187E72B689B069B
:1057B00000D483E78022216D206D1203024322650D
:1057C000226D124B14480B40024022652365CB0525
:1057D00000D473E7FEF7F6FB80270600BF00236DB9
:1057E0003B4200D06AE7FEF7EDFB0C4B801B984272
:1057F000F5D9CDE70010024000700040FFFFCFFF59
:10580000FFFFFFEFFFF3FFFFFFCFFFFFFFFFFCFFF7
:10581000FFFFFFFBFFFFF3FFFFFFF7FF8813000011
:1058200070470000036810B59A680400D2040AD5D6
:10583000DB68DB0507D5FFF7F3FF21680E4BCA686D
:10584000D2B21343CB6023689A6892040BD5DB680D
:105850009B0508D5200000F08DFB2168074BCA6826
:10586000D2B21343CB608022054B92025A610123CE
:105870000234E37710BDC0467FFEFFFF7FFDFFFFD0
:1058800000040140A0210268F8B5D36804008B43EE
:10589000D360FEF797FBFA2706002025BF00236898
:1058A000DB682B4201D00020F8BDFEF78BFB801B8C
:1058B000B842F4D90320F7E7F8B54024036805009F
:1058C000DA68224201D00020F8BD01225242DA609B
:1058D000FEF778FBFA270600BF002B68DB6823423F
:1058E000F1D1FEF76FFB801BB842F6D90320EBE73E
:1058F00070B50400012500281AD0861CF37FDBB2A6
:10590000002B03D14219D377FDF766FC0223CA228C
:10591000F377236820005A62773A5A62FFF7CCFF88
:105920002368051E06D0FF225A620423F37701255F
:10593000280070BD9A681B4920690A409A60626815
:1059400099680243A06902430A439A60E268606969
:105950001A61A268196912040A4380211A61DA687F
:105960008A43DA60DA6C7D398A43DA64E269D96C99
:1059700002430A43DA649B689B060CD42000FFF7BD
:1059800081FF002807D0FF22236801345A620423D4
:10599000F377E577CBE7FF2223685A620123F37799
:1059A000C6E7C046BFFF8FFF0023092803D81B01AD
:1059B0001843C0B270470A380133C0B2F5E700009F
:1059C0000223F0B5471C0C00F97F85B005001E00CE
:1059D000012937D00121F977C118CB7701914021F6
:1059E0000668637820780293B3680B40002A2CD1B4
:1059F000002B00D1E370FFF7D7FF03900298FFF769
:105A0000D3FF0290A078FFF7CFFF0300E0780004F7
:105A10001843039B1B041843029B1B021843CA2311
:105A20007362773B736202902800FFF745FF2B6893
:105A3000061E16D0FF225A620423019AD377002350
:105A4000FB770126300005B0F0BD002B00D1E370DC
:105A5000029B00041B021843A3781843E3781B043D
:105A6000DCE71548029A154902401A609A682069D5
:105A70000A409A60E268996802430A4380219A606A
:105A8000DA688A43DA609B689B060CD42800FFF72B
:105A9000F9FE002807D0FF222B685A620423019ADE
:105AA000D377FE77CDE7FF222B685A620123019A54
:105AB000D3770023FB77C5E77F7F7F00FFFFFBFFE6
:105AC0000223F0B5471C0E00F97F85B004001D00CD
:105AD000012936D00121F977C1180191CB773178AE
